:020000040800F2
:10000000C8080020A5010008492C0008E7260008C0
:10001000452C0008DD020008093800080000000037
:10002000000000000000000000000000A9310008EE
:10003000E1020008000000004D2C0008AB31000870
:10004000BF010008BF010008BF010008BF01000890
:10005000BF010008BF010008E3020008BF0100085B
:10006000BF010008BF010008BF010008BF01000870
:10007000BF010008BF010008BF010008BF01000860
:10008000BF010008BF010008BF010008BF01000850
:10009000BF010008BF010008BF010008BF01000840
:1000A000BF010008BF010008BF010008BF01000830
:1000B000BF0100080000000000000000BF010008B0
:1000C000BF0100080000000000000000BF010008A0
:1000D00000000000E9370008F937000800000000C0
:1000E000ED020008BF010008000000000000000051
:1000F0000000000000000000000000000000000000
:10010000000000000000000000000000BF01000827
:100110000000000000000000BF010008BF0100084F
:10012000BF010008BF010008BF010008BF010008AF
:10013000BF010008000000000000000000000000F7
:10014000BF010008BF010008BF010008BF0100088F
:10015000BF010008BF010008BF010008BF0100087F
:10016000BF010008BF010008BF0100080000000037
:10017000BF010008BF0100080000000000000000EF
:10018000BF010008BF010008BF010008DFF810D060
:1001900000F092F80048004725410008AFF30080C6
:1001A000C80800200648804706480047FEE7FEE7EB
:1001B000FEE7FEE7FEE7FEE7FEE7FEE7FEE7FEE717
:1001C000593200088D0100082DE9F05F0546002036
:1001D00092469B4688460646814640241BE02846B8
:1001E00041464746224600F056F853465A46C01A42
:1001F000914110D311461846224600F03DF82D1AC1
:1002000067EB01084F4622460120002100F034F838
:1002100017EB00094E41201EA4F10104DFDC484623
:1002200031462A46434600F000B830BCBDE8C09FC6
:1002300040EA01039B0703D009E008C9121F08C068
:10024000042AFAD203E011F8013B00F8013B521EE8
:10025000F9D27047D2B201E000F8012B491EFBD25F
:1002600070470022F6E710B513460A4604461946C1
:10027000FFF7F0FF204610BD202A04DB203A00FAE9
:1002800002F1002070479140C2F1200320FA03F3ED
:10029000194390407047202A04DB203A21FA02F0EB
:1002A0000021704721FA02F3D040C2F120029140B0
:1002B0000843194670470000064C074D06E0E06809
:1002C00040F0010394E8070098471034AC42F6D39D
:1002D000FFF760FFC8440008E844000800BFFEE7DD
:1002E000704710B5012000F0D7F810BD10B54FF4DD
:1002F000004000F0D1F810BD72B600BFFEE770B547
:100300000446002594F82500022803D00420E06369
:10031000012520E02068006820F00E0021680860B8
:100320002068006820F001002168086094F844000B
:1003300000F01C0101208840216C4860012084F8F5
:10034000250000BF002084F8240000BFA06B10B17E
:100350002046A16B8847284670BD000010B50146B5
:1003600009B9012010BD3E4B086898420BD23D4BA5
:100370000868C01A1423B0FBF3F0800048643948C1
:10038000083808640AE0364B0868C01A1423B0FB2A
:10039000F3F080004864324808380864022081F88D
:1003A00025000868026847F6F0708243D1E902032D
:1003B00018430B6918434B6918438B691843CB6981
:1003C00018430B6A18430243086802608868B0F556
:1003D000804F3AD0234B083B086C98421BD1D0F891
:1003E000A80091F8443003F01C040F23A340984365
:1003F0001C4BA033186091F8443003F01C0348688C
:100400009840184B083BD3F8A8301843154B083BCD
:10041000C3F8A80019E01248A030006891F84430F1
:1004200003F01C040F23A34098430D4BA033186026
:1004300091F8443003F01C0348689840084BA033FF
:100440001B681843064BA03318600020C8630120C6
:1004500081F82500002081F8240000BF82E7000019
:10046000080402400800024070B5044600F010F98C
:1004700006462546681C10B104480078054400BFB4
:1004800000F006F9801BA842FAD370BD34000020AA
:10049000012800D000BF704710B50446044800682A
:1004A000204020B1024804602046FFF7F1FF10BD54
:1004B0001404014078B503460022C1E001269640AD
:1004C0000D6805EA0604002C72D04D68012D08D095
:1004D0004D68022D05D04D68112D02D04D68122DAA
:1004E00013D1986856000325B540A8435600CD683F
:1004F000B54028439860586801259540A8430D7978
:10050000C5F30015954028435860D8685600032568
:10051000B540A84356008D68B5402843D8604D6863
:10052000022D02D04D68122D13D1D60803F12005FB
:1005300055F826005507EE0E0F25B540A84356077F
:10054000F60E0D69B5402843D60803F1200545F89D
:100550002600186856000325B540A8430D7905F01C
:1005600003055600B540284318604D6805F08055D6
:10057000B5F1805F63D100BF344D2D6E45F00105AC
:10058000324E356635462D6E05F00105009500BFEB
:1005900000BF4FEAB635960855F8260095072E0F8E
:1005A0000F25B540A843B3F1904F02D100250BE0D1
:1005B00045E0274DAB4201D1012505E0254DAB4279
:1005C00001D1022500E007259607360FB5402843E4
:1005D000214D960845F82600204D2868A0434D6817
:1005E00005F48035B5F5803F00D120431B4D2860D0
:1005F0002D1D2868A0434D6805F40035B5F5003F72
:1006000000D12043154D2D1D28602D1D2868A043C5
:100610004D6805F48015B5F5801F00D120430F4DBE
:10062000083528602D1D2868A0434D6805F4001585
:10063000B5F5001F00D12043084D0C352860521C31
:100640000D68D540002D7FF439AF78BD0010024011
:100650000004004800080048080001400004014070
:10066000024613690B400BB1012000E000207047E7
:1006700010B5426921EA020302EA010443EA044395
:10068000836110BD0AB1816100E0816270470000A2
:1006900001480068704700002C00002010B5044697
:1006A0000CB9012010BD94F8410028B9002084F84D
:1006B0004000204600F0B6F9242084F8410020686C
:1006C000006820F0010021680860606820F0706018
:1006D000216808612068806820F4004021688860F3
:1006E000E068012805D1A06840F4004021688860D6
:1006F00004E0A06840F4044021688860E0680228B3
:1007000002D180022168486020684068134908438C
:10071000216848602068C06820F400402168C860F3
:10072000D4E904010843A16940EA01202168C860B6
:10073000D4E907010843216808602068006840F098
:1007400001002168086000206064202084F84100D6
:100750000020206384F8420000BFA3E7008000026D
:100760002DE9F8430446894616461F46DDF82080E9
:1007700094F84100202873D100BF94F8400001286C
:1007800002D10220BDE8F883012084F8400000BFB8
:10079000FFF77EFF054619230122D103204600956D
:1007A00002F01EF808B10120ECE7222084F8410095
:1007B000102084F8420000206064666267856063F0
:1007C000608DFF280CD9FF2020853C48009094F8CC
:1007D00028204FF080734946204601F0E7FF0BE0E8
:1007E000608D20853548009094F828204FF00073E4
:1007F0004946204601F0DAFF3FE02A4641462046BE
:1008000002F01EF808B10120BCE72068406A616A66
:100810000870606A401C6062208D401E2085608DDB
:10082000401E6085608D40B3208D30BB4346002262
:1008300080212046009501F0D3FF08B10120A1E7F7
:10084000608DFF280DD9FF2020850020009094F8AE
:1008500028204FF080734946204601F0A7FF0CE0A6
:100860002AE0608D20850020009094F828204FF029
:1008700000734946204601F099FF608D0028BCD1E5
:100880002A464146204602F02BF808B1012079E7BC
:1008900020202168C8612068406809490840216813
:1008A0004860202084F84100002084F8420000BF06
:1008B00084F8400000BF65E7022063E70024008061
:1008C00000E800FE2DE9F8430446894616461F4617
:1008D000DDF8208094F84100202871D100BF94F801
:1008E0004000012802D10220BDE8F883012084F8ED
:1008F000400000BFFFF7CCFE054619230122D103BB
:100900002046009501F06CFF08B10120ECE72120A2
:1009100084F84100102084F8420000206064666280
:1009200067856063608DFF280BD9FF2020853B48D9
:10093000009094F82820C3024946204601F036FF73
:100940000AE0608D20853548009094F82820030344
:100950004946204601F02AFF3FE02A46414620460C
:1009600001F0E9FF08B10120BEE7606A0078216864
:100970008862606A401C6062608D401E6085208DC8
:10098000401E2085608D40B3208D30BB4346002241
:1009900080212046009501F023FF08B10120A3E744
:1009A000608DFF280DD9FF2020850020009094F84D
:1009B00028204FF080734946204601F0F7FE0CE0F6
:1009C0002AE0608D20850020009094F828204FF0C8
:1009D00000734946204601F0E9FE608D0028BCD135
:1009E0002A464146204601F07BFF08B101207BE703
:1009F00020202168C86120684068094908402168B2
:100A00004860202084F84100002084F8420000BFA4
:100A100084F8400000BF67E7022065E700200080FF
:100A200000E800FE10B586B00446142101A8FFF7C7
:100A300018FC17492068884228D100BF1548806DEE
:100A400040F40010134988650846806D00F40010DA
:100A5000009000BF00BF00BF0846C06C40F002001D
:100A6000C8640846C06C00F00200009000BF00BFE0
:100A7000C0200190122002900120039002200490D7
:100A80000420059001A90448FFF714FD06B010BD2D
:100A90000054004000100240000400480348006871
:100AA0000349097808440149086070472C00002078
:100AB0003400002010B50024032000F0AFF800201F
:100AC00000F008F808B1012401E000F02FF82046FA
:100AD00010BD000070B50446002511480078D8B15B
:100AE0000F4800784FF47A71B1FBF0F00D490968B6
:100AF000B1FBF0F6304601F09FFB58B9102C07D23D
:100B000000222146501E00F047F80748046004E028
:100B1000012502E0012500E00125284670BD000006
:100B200034000020380000203000002008B500BF4D
:100B30000E48006E40F001000C4908660846006E41
:100B400000F00100009000BF00BF00BF0846806DAC
:100B500040F0805088650846806D00F0805000901D
:100B600000BF00BF052000F059F808BD001002408A
:100B70000146084600280DDB00BF00BF00F01F0340
:100B800001229A4043099B0003F1E023C3F80021AE
:100B900000BF00BF00BF70472DE9F05F80460D46E3
:100BA0001646002702F042FE074639462A463346DB
:100BB00001F00700C0F1070ABAF1040F02D94FF0A3
:100BC000040A01E0C0F1070AD14600F1040ABAF1B3
:100BD000070F02D24FF0000A01E0A0F1030AD44649
:100BE0004FF0010A0AFA09FAAAF1010A0AEA020A0E
:100BF0000AFA0CFA4FF0010B0BFA0CFBABF1010BEC
:100C00000BEA030B4AEA0B042146404602F016FEAB
:100C100000F000B830BCBDE8C09F000000BF00F08D
:100C20000702064B19684FF6FF031940044B0B43AC
:100C300043EA0221014B196000BF70470CED00E050
:100C40000000FA050246B2F5007F2AD11D4800686F
:100C500000F4C060B0F5007F32D01A48006820F47C
:100C6000C06040F40070174B1860174800683223CA
:100C70005843164BB0FBF3F0411C00E0491E1148ED
:100C8000406900F48060B0F5806F01D10029F5D192
:100C90000C48406900F48060B0F5806F10D10320EB
:100CA00070470848006800F4C060B0F5806F07D056
:100CB0000448006820F4C06040F48060014B186074
:100CC0000020EDE7007000403800002040420F0097
:100CD0000248006800F4C0607047000000700040E7
:100CE0002DE9F84304460025A846208800F400605A
:100CF000B0F5006F26D1E06B68B1B0F5000F03D0FE
:100D0000B0F5400F0ED10CE0C648C06840F480300A
:100D1000C449C86008E00021201D01F099FF054684
:100D200002E001E0012500BF00BF55B9BD48883091
:100D3000006820F44000E16B0843BA49C1F888001C
:100D400000E0A846206800F40030B0F5003F75D1FF
:100D50004FF00009B348806D012121EA107078B18D
:100D600000BFB048806D40F08050AE4988650846AD
:100D7000806D00F08050009000BF00BF4FF001096F
:100D8000A948006840F48070A7490860FFF780FC1C
:100D9000074606E0FFF77CFCC01B022801D90325AB
:100DA00005E0A148006800F480700028F2D000BF80
:100DB0007DBB9C489030006800F44076CEB1206D39
:100DC000B04216D097489030006820F4407695489D
:100DD000D0F8900040F480309249C1F89000084665
:100DE000D0F8900020F48030C1F890000846C0F898
:100DF000906006F00100A8B1FFF74AFC074609E041
:100E0000FFF746FCC01B41F28831884202D9032516
:100E100007E016E083489030006800F002000028E8
:100E2000EED000BF5DB97F489030006820F440707C
:100E3000216D08437B49C1F8900003E00CE0A8460F
:100E400000E0A846B9F1010F05D17648806D20F089
:100E500080507449886500BF207800F0010048B1D7
:100E600070488830006820F00300216A08436D490B
:100E7000C1F88800207800F00200022809D16948F2
:100E80008830006820F00C00616A08436549C1F8A9
:100E90008800207800F02000202809D1614888309F
:100EA000006820F44060A16A08435E49C1F88800E8
:100EB000208800F40070B0F5007F09D159488830CF
:100EC000006820F44020616B08435649C1F888004F
:100ED000208800F48060B0F5806F09D151488830D7
:100EE000006820F44010A16B08434E49C1F8880007
:100EF000207800F04000402809D14A488830006836
:100F000020F44050E16A08434649C1F8880020882F
:100F100000F48070B0F5807F09D1424888300068C5
:100F200020F44030216B08433E49C1F888002088F6
:100F300000F40050B0F5005F1FD13A4888300068D7
:100F400020F04060216C0843364988310860206CED
:100F5000B0F1006F06D13348C06840F480103149C9
:100F6000C8600AE0206CB0F1806F06D10121201D1D
:100F700001F06EFE054605B1A846206800F4802009
:100F8000B0F5802F1FD127488830006820F04060DE
:100F9000616C0843234988310860606CB0F1006FD0
:100FA00006D12048C06840F480101E49C8600AE09D
:100FB000606CB0F1806F06D10121201D01F048FE68
:100FC000054605B1A846208800F48040B0F5804F62
:100FD00014D114488830006820F04050A16C0843B8
:100FE000104988310860A06CB0F1805F06D1022101
:100FF000201D01F02DFE054605B1A846208800F40D
:101000000040B0F5004F09D106488830006820F054
:101010008040E16C08430349C1F888004046BDE8C0
:10102000F883000000100240007000402DE9F041FC
:1010300004460D4614B90120BDE8F081554800680A
:1010400000F00700A8420ED25248006820F00700C6
:101050002843504908600846006800F00700A8428D
:1010600001D00120E8E7207800F00100002840D0FE
:101070006068032806D14848006800F00070D8B9BD
:101080000120D9E76068022806D14348006800F4CF
:10109000003088B90120CFE7606830B93E48006869
:1010A00000F0020040B90120C6E73B48006800F4A8
:1010B000806008B90120BFE73748806820F003004E
:1010C0006168084334498860FFF7E2FA064608E0A1
:1010D000FFF7DEFA801B41F28831884201D90320F4
:1010E000AAE72D48806800F00C006168B0EB810F22
:1010F000EED1207800F00200022807D1264880684F
:1011000020F0F000A1680843234988602148006866
:1011100000F00700A8420ED91E48006820F0070022
:1011200028431C4908600846006800F00700A842F0
:1011300001D0012080E7207800F00400042807D1C6
:101140001548806820F4E060E1680843124988602F
:10115000207800F00800082808D10F48806820F4A3
:101160006050216940EAC1000B49886000F046F8F0
:1011700009498968C1F30311084A515C01F01F0154
:10118000C8400749086007480068FFF7A3FC074606
:10119000384651E700200240001002408044000819
:1011A000380000203000002001480068704700002F
:1011B0003800002000B5FFF7F7FF05498968C1F343
:1011C0000221044A515C01F01F01C84000BD00002B
:1011D000001002409044000800B5FFF7E5FF054904
:1011E0008968C1F3C221044A515C01F01F01C84063
:1011F00000BD00000010024090440008F0B500233C
:101200000020DFF8D4C0DCF808C00CF00C01DFF8D7
:10121000C8C0DCF80CC00CF0030719B10C291ED1B2
:10122000012F1CD1DFF8B0C0DCF800C00CF0080CB6
:10123000BCF1000F06D1DFF8A0C0DCF894C0CCF3FD
:10124000032305E0DFF890C0DCF800C0CCF3031303
:10125000DFF888C05CF8233041B9184606E004295D
:1012600001D11F4802E0082900D11E480C2932D1C3
:10127000DFF864C0DCF80CC00CF00304012C09D0CA
:10128000022C02D0032C04D101E0154A04E0154AD7
:1012900002E000BF1A4600BF00BFDFF83CC0DCF828
:1012A0000CC0CCF3021C0CF10106DFF82CC0DCF8FA
:1012B0000CC0CCF3062C0CFB02FCBCFBF6F2DFF8F6
:1012C00018C0DCF80CC0CCF3416C0CF1010C4FEAF7
:1012D0004C05B2FBF5F0F0BD001002409844000848
:1012E0000024F40000127A002DE9F843044614B9F2
:1012F0000120BDE8F883F948806800F00C06F74843
:10130000C06800F00307207800F01000102877D1A3
:101310001EB10C2E76D1012F74D1F048006800F078
:10132000020018B1A06908B90120E2E7EB48216A80
:10133000006800F0080020B1E848006800F0F00004
:1013400005E0E6489430006800F4706000098142CE
:101350001FD9206A01F040FD08B10120C9E700BF94
:10136000DE48006840F00800DC4908600846006874
:1013700020F0F000216A0843D849086000BF084601
:10138000406820F47F40E16940EA0120D349486089
:101390001FE000BFD148006840F00800CF49086056
:1013A0000846006820F0F000216A0843CB49086035
:1013B00000BF0846406820F47F40E16940EA012010
:1013C000C64948602EB9206A01F006FD08B1012027
:1013D0008FE7FFF713FFC1498968C1F30311C04AC2
:1013E000515C01F01F01C840BE490860BE4800685A
:1013F000FFF770FB8046B8F1000F4ED0404678E70B
:101400004BE0FFE7A06980B3B448006840F00100FA
:10141000B2490860FFF73CF9054606E0FFF738F9E6
:10142000401B022801D9032063E7AC48006800F0A4
:1014300002000028F2D000BFA848006840F0080071
:10144000A64908600846006820F0F000216A0843B9
:10145000A249086000BF0846406820F47F40E16967
:1014600040EA01209D49486017E0FFE79B4800687B
:1014700020F0010099490860FFF70AF9054606E0E7
:10148000FFF706F9401B022801D9032031E79348F2
:10149000006800F002000028F2D1207800F001007E
:1014A00000285CD0082E03D00C2E0AD1032F08D1BF
:1014B0008A48006800F4003088B3606878BB012077
:1014C00017E700BF6068B0F5803F06D18348006829
:1014D00040F48030814908601AE06068B0F5A02FC0
:1014E0000BD17E48006840F480207C4908600846A3
:1014F000006840F4803008600AE07848006820F412
:101500008030764908600846006820F48020086032
:1015100000BF606890B1FFF7BBF8054607E01EE02A
:10152000FFF7B6F8401B642801D90320E1E66B48B9
:10153000006800F400300028F2D010E0FFF7A8F8AF
:10154000054606E0FFF7A4F8401B642801D90320F4
:10155000CFE66248006800F400300028F2D120781D
:1015600000F00200022852D1042E03D00C2E14D118
:10157000022F12D15948006800F4806018B1E06869
:1015800008B90120B5E65548406820F0FE40217CAE
:1015900040EA01605149486039E0E06800B34F48D3
:1015A000006840F480704D490860FFF771F8054607
:1015B00006E0FFF76DF8401B022801D9032098E6EA
:1015C0004648006800F480600028F2D04348406834
:1015D00020F0FE40217C40EA01604049486016E06E
:1015E0003E48006820F480703C490860FFF750F8DE
:1015F000054606E0FFF74CF8401B022801D90320FE
:1016000077E63648006800F480600028F2D1207840
:1016100000F00800082836D16069D0B12F48943016
:10162000006840F001002D49C1F89400FFF730F840
:10163000054606E0FFF72CF8401B022801D90320DD
:1016400057E626489430006800F002000028F1D0E8
:1016500019E022489430006820F001001F49C1F8C9
:101660009400FFF715F8054606E0FFF711F8401B58
:10167000022801D903203CE618489430006800F0A5
:1016800002000028F1D1207800F00400042872D173
:101690004FF000091148806D00F0805078B900BF0C
:1016A0000E48806D40F080500C4988650846806D7A
:1016B00000F08050009000BF00BF4FF001090B48C0
:1016C000006800F4807000BB0848006840F4807037
:1016D00006490860FEF7DCFF054610E000100240F6
:1016E00080440008380000203000002000700040D6
:1016F000FEF7CEFF401B022801D90320F9E5D048B0
:10170000006800F480700028F2D000BFA0680128B3
:1017100008D1CC48006840F00100CA499039C1F8AE
:10172000900021E0A06805280FD1C648006840F06D
:101730000400C4499039C1F890000846D0F89000E0
:1017400040F00100C1F890000EE0BE48006820F0B3
:101750000100BC499039C1F890000846D0F89000CB
:1017600020F00400C1F8900000BFA068A0B1FEF70F
:101770008FFF054609E02EE0FEF78AFF401B41F28D
:101780008831884201D90320B3E5AE48006800F0F3
:1017900002000028F0D012E0FEF77AFF054608E0CC
:1017A000FEF776FF401B41F28831884201D90320C1
:1017B0009FE5A448006800F002000028F0D1B9F1CC
:1017C000010F07D19F489038806D20F080509D49CF
:1017D0009039886500BF207800F02000202838D19B
:1017E000606AD8B197480830006840F00100954918
:1017F0009039C1F89800FEF74BFF054606E0FEF76A
:1018000047FF401B022801D9032072E58D480830AC
:10181000006800F002000028F1D01AE08948083082
:10182000006820F0010087499039C1F89800FEF760
:101830002FFF054606E0FEF72BFF401B022801D9CB
:10184000032056E57F480830006800F002000028B9
:10185000F1D1A06A00287DD0A06A02287BD1794806
:101860009038C76807F00301E06A814225D107F08C
:101870007001206B401EB1EB001F1ED107F4FE412A
:10188000606BB1EB002F18D107F078413820005D74
:10189000B1EBC06F11D107F4C001A08F0122C2EBE0
:1018A0005000B1EB405F08D107F0C0614020005DFF
:1018B000C2EB5000B1EB406F66D00C2E62D0614895
:1018C0009038006800F0806008B1012011E55D48A3
:1018D0009038006820F080705A4990390860FEF70F
:1018E000D7FE054606E0FEF7D3FE401B022801D9CD
:1018F0000320FEE453489038006800F00070002890
:10190000F1D1D4E90B10401E41EA0011606B41EAAD
:101910000021A08F0122C2EB500041EA405140203B
:10192000005DC2EB500041EA40613820005D41EAB1
:10193000C06044499039C968434A1140084341494D
:101940009039C8600846006840F08070086008461A
:10195000C06801E05BE03DE040F08070C860FEF7E9
:1019600097FE054606E0FEF793FE401B022801D9CC
:101970000320BEE433489038006800F0007000286F
:10198000F1D05AE00120B4E42E489038006800F00D
:101990000070E0BB2B489038006840F08070294907
:1019A000903908600846C06840F08070C860FEF753
:1019B0006FFE054606E0FEF76BFE401B022801D9CC
:1019C000032096E41F489038006800F0007000285B
:1019D000F1D032E00C2E2ED01A489038006820F05A
:1019E00080701849903908600846006800F000606F
:1019F00020B90846C06820F00300C860114890383C
:101A0000C068124908400F499039C86000E014E0EE
:101A1000FEF73EFE054606E0FEF73AFE401B0228B2
:101A200001D9032065E407489038006800F0007091
:101A30000028F1D101E001205BE4002059E400001E
:101A400000700040901002408C809D01FFFFEEFE70
:101A500070B504460CB9012070BD606A38B9606881
:101A6000B0F5827F00D105E00021E16102E00021B4
:101A7000216161610021A16294F85D0028B9002014
:101A800084F85C00204600F05BF8022084F85D00DA
:101A90002068006820F0400021680860E068B0F528
:101AA000E06F01D9002501E04FF48055E068B0F502
:101AB000706F05D0E068B0F5E06F01D00021A16241
:101AC000A08800F48270218901F404410843217C3C
:101AD00001F002010843217D01F001010843218B3F
:101AE00001F400710843217F01F0380108432021EF
:101AF000095D01F080010843218D01F40051084384
:101B0000216808600421A06901EA104094F82410BB
:101B100001F01001084394F8341001F00801084363
:101B2000A18901F47061084305F4805108432168DC
:101B3000486000202066012084F85D0000208BE7CB
:101B400010B586B00446142101A8FEF78AFB174998
:101B50002068884228D100BF1548806D40F40040BD
:101B6000134988650846806D00F40040009000BF6E
:101B700000BF00BF0846C06C40F00200C8640846C1
:101B8000C06C00F00200009000BF00BF3820019040
:101B9000022002900020039002200490062005906D
:101BA00001A90448FEF786FC06B010BD003C0040C9
:101BB00000100240000400482DE9F843044688461E
:101BC00016461D464FF000096068B0F5827F0DD1C2
:101BD000A06858B9042084F85D0033464246414667
:101BE0002046009500F0B3F9BDE8F88300BF94F8F3
:101BF0005C00012801D10220F6E7012084F85C0096
:101C000000BFFEF745FD074694F85D00012802D0AD
:101C10004FF0020999E0B8F1000F00D016B94FF06B
:101C2000010992E0042084F85D0000202066C4F8D9
:101C30004080A4F84460A4F84660A063A087E087D1
:101C4000E0642065E068B0F5E06F06D92068406880
:101C500020F480502168486005E02068406840F426
:101C6000805021684860A068B0F5004F0BD1206813
:101C7000006820F04000216808602068006820F4B7
:101C80008040216808602068006800F0400040281B
:101C900005D02068006840F0400021680860E068D6
:101CA000B0F5E06F22D81CE02068806800F00100E9
:101CB00060B12068007B216C0870206C401C20649F
:101CC000B4F84600401EA4F846000AE0FEF7E0FC27
:101CD000C01BA84201D3681C00B915B94FF0030915
:101CE00033E0B4F846000028DED121E01CE0206893
:101CF000806800F0010060B12068C068216C088035
:101D0000206C801C2064B4F84600401EA4F84600F5
:101D10000AE0FEF7BDFCC01BA84201D3681C00B955
:101D200015B94FF0030910E0B4F846000028DED1E1
:101D30003A462946204601F09DF808B12020206649
:101D4000206E08B14FF0010900BF012084F85D004A
:101D500000BF002084F85C0000BF484644E72DE93E
:101D6000F84F0446884616461D464FF0000A00BF4D
:101D700094F85C00012802D1022000F0E5B80120AF
:101D800084F85C0000BFFEF783FC0746B14694F878
:101D90005D00012802D04FF0020ACBE0B8F1000F3D
:101DA00000D016B94FF0010AC4E0032084F85D00AA
:101DB00000202066C4F83880A687E6872064A4F84F
:101DC0004400A4F846002065E064A068B0F5004F28
:101DD0000BD12068006820F040002168086020686E
:101DE000006840F48040216808602068006800F0C6
:101DF0004000402805D02068006840F0400021687D
:101E00000860E068B0F5E06F2FD9606810B1B9F1F3
:101E1000010F09D1A06B00882168C860A06B801CED
:101E2000A063E08F401EE0871BE02068806800F020
:101E3000020002280AD1A06B00882168C860A06B4C
:101E4000801CA063E08F401EE0870AE0FEF720FCC4
:101E5000C01BA84201D3681C00B915B94FF0030A92
:101E600068E0E08F0028E0D14AE0606810B1B9F185
:101E7000010F17D1E08F01280AD9A06B00882168D3
:101E8000C860A06B801CA063E08F801EE08709E023
:101E9000A06B007821680873A06B401CA063E08FE2
:101EA000401EE08729E02068806800F002000228D8
:101EB00018D1E08F01280AD9A06B00882168C8607A
:101EC000A06B801CA063E08F801EE08715E0A06BF4
:101ED000007821680873A06B401CA063E08F401E4F
:101EE000E0870AE0FEF7D4FBC01BA84201D3681CC0
:101EF00000B915B94FF0030A1CE0E08F0028D2D1D9
:101F00003A462946204600F0F6FF08B12020206618
:101F1000A06850B900BF002000902068C068009001
:101F200020688068009000BF00BF206E08B14FF0AD
:101F3000010A00BF012084F85D0000BF002084F882
:101F40005C0000BF504618E718BCBDE8E08F2DE9E3
:101F5000FF5F0446894692461D460E9E0120019071
:101F60000020009000BF94F85C00012803D10220FB
:101F700004B000F04AB9012084F85C0000BFFEF70D
:101F800087FB074694F85D00029060680390A846BE
:101F9000AB46029801280BD00398B0F5827F04D19C
:101FA000A06810B90298042802D00220009022E113
:101FB000B9F1000F03D0BAF1000F00D015B901201C
:101FC000009018E194F85D00042802D0052084F800
:101FD0005D0000202066C4F840A0A4F84650A4F894
:101FE0004450C4F83890E587A587E0642065E06830
:101FF000B0F5E06F02D8BBF1010F06D92068406848
:1020000020F480502168486005E02068406840F472
:102010008050216848602068006800F04000402837
:1020200005D02068006840F0400021680860E06842
:10203000B0F5E06F4ED9606810B1B8F1010F09D169
:10204000A06B00882168C860A06B801CA063E08F33
:10205000401EE08736E02068806800F00200022819
:1020600010D1E08F70B1019801280BD1A06B0088CE
:102070002168C860A06B801CA063E08F401EE087D1
:10208000002001902068806800F0010080B1B4F861
:10209000460068B12068C068216C0880206C801CF4
:1020A0002064B4F84600401EA4F8460001200190C8
:1020B000FEF7EEFAC01BB04204D3701C10B103202F
:1020C000009098E0E08F0028C5D1B4F846000028C1
:1020D000C1D185E0606810B1B8F1010F17D1E08F70
:1020E00001280AD9A06B00882168C860A06B801CF9
:1020F000A063E08F801EE08709E0A06B0078216874
:102100000873A06B401CA063E08F401EE08760E076
:102110002068806800F0020002281ED1E08FE0B144
:102120000198012819D1E08F01280AD9A06B0088F5
:102130002168C860A06B801CA063E08F801EE087D0
:1021400009E0A06B007821680873A06B401CA063B5
:10215000E08F401EE087002001902068806800F03A
:10216000010058B3B4F8460040B3B4F84600012863
:1021700016D92068C068216C0880206C801C2064FF
:10218000B4F84600801EA4F84600B4F846000128C2
:1021900012D82068406840F48050216848600BE005
:1021A0002068007B216C0870206C401C2064B4F80F
:1021B0004600401EA4F8460001200190FEF768FA90
:1021C000C01BB04201D3701C00B916B903200090A7
:1021D00011E0E08F00289BD1B4F84600002897D189
:1021E0003A463146204600F086FE18B101200090A4
:1021F0002020206600BF012084F85D0000BF002081
:1022000084F85C0000BF0098B2E630BCBDE8C09F17
:10221000042808D14FF0E021096941F004014FF092
:10222000E022116107E04FF0E021096921F004018B
:102230004FF0E0221161704770B504462546681ED4
:10224000B0F1807F01D301200FE0681E4FF0E02144
:1022500048610F214FF0FF3001F0F0FA00204FF0FD
:10226000E021886107200861002070BD7047704739
:102270002DE9F04704462068C56920680668206893
:10228000876840F60F0005EA0008B8F1000F0CD18E
:1022900005F0200048B106F0200030B1206E10B1EA
:1022A0002046216E8847BDE8F087B8F1000F7DD049
:1022B00007F0010018B95A4830400028F7D005F05F
:1022C000010048B106F4807030B101202168086235
:1022D000E06F40F00100E06705F0020048B107F050
:1022E000010030B1022021680862E06F40F0040074
:1022F000E06705F0040048B107F0010030B10420A8
:1023000021680862E06F40F00200E06705F0080015
:1023100060B106F0200010B907F0010030B10820CC
:1023200021680862E06F40F00800E06705F4006093
:1023300050B106F0806038B14FF400602168086247
:10234000E06F40F02000E067E06F80B305F0200010
:1023500038B106F0200020B1206E10B12046216E69
:102360008847D4F87C902068806800F040004028BE
:1023700002D009F0280030B3204601F054F820685C
:10238000806800F04000402819D12068806820F063
:10239000400021688860E06E68B12248E16E886381
:1023A000E06EFDF7ACFF10B1E06E01E011E00FE070
:1023B000816B88470CE02046FFF759FF08E0204674
:1023C000FFF755FF04E02046FFF751FF0020E067CC
:1023D00069E705F4801050B107F4800038B14FF47C
:1023E0008010216808622046FFF740FF5BE705F098
:1023F000800040B106F0800028B1606E10B1204628
:10240000616E88474FE705F0400030B106F04000AC
:1024100018B1204601F018F845E700BF43E7000077
:10242000200100040F34000810B504460CB9012047
:1024300010BDA06900B100E000BF606F28B90020A6
:1024400084F87000204600F029F824206067206896
:10245000006820F0010021680860204601F004F8BF
:10246000012800D1E4E7606A10B1204600F01CFFAB
:102470002068406820F490402168486020688068A7
:1024800020F02A00216888602068006840F0010080
:1024900021680860204600F083FFC9E710B586B0C8
:1024A0000446142101A8FDF7DCFE52492068884249
:1024B0004DD100BF5048006E40F480404E49086640
:1024C0000846006E00F48040009000BF00BF00BFCF
:1024D0000846C06C40F00100C8640846C06C00F0BB
:1024E0000100009000BF00BF4FF4C06001900220C7
:1024F000029000200390022004900720059001A97B
:102500004FF09040FDF7D6FF3C483D49086002205F
:10251000486000213A488160C1608021016100214A
:1025200041618161C1610162FDF718FF08B1FDF7EA
:10253000E3FE00BF3248E066846200BF002211461D
:102540002520FEF729FB2520FEF712FB50E02D4940
:10255000206888424CD100BF2748806D40F400308D
:10256000254988650846806D00F40030009000BF62
:1025700000BF00BF0846C06C40F00100C8640846B8
:10258000C06C00F00100009000BF00BF0C20019063
:102590000220029000200390022004900720059062
:1025A00001A94FF09040FDF785FF144814301649FB
:1025B000086002204860002113488160C1608021CA
:1025C0000161002141618161C1610162FDF7C6FEC7
:1025D00008B1FDF791FE00BF0B48E066846200BFC2
:1025E000002211462620FEF7D7FA2620FEF7C0FA71
:1025F00006B010BD003801400010024058000240F3
:1026000034020020004400407C0200202DE9F84FF5
:1026100004460E4617469946606F20285DD106B1E4
:1026200017B9012000F05BB800BF94F870000128D2
:1026300001D10220F6E7012084F8700000BF0020DD
:10264000E06721206067FEF723F88246A4F8507007
:10265000A4F85270A068B0F5805F04D1206910B969
:102660000025B04602E035464FF0000800BF0020CC
:1026700084F8700000BF1DE05346002280212046F0
:10268000CDF8009001F055F808B10320CAE745B92C
:10269000B8F80000C0F308002168088508F10208B6
:1026A00003E02878216808856D1CB4F85200401EAC
:1026B000A4F85200B4F852000028DDD1534600229D
:1026C00040212046CDF8009001F033F808B10320F6
:1026D000A8E7202060670020A4E70220A2E718BC3A
:1026E000BDE8E08F704700BFFEE701688969C1F36C
:1026F000400111B10021026891620168896901F00D
:10270000010129B90168896941F0010102689161FB
:102710007047000070B504460D4616462068806973
:10272000C0F3001000283DD017E0681CA8B1FDF7E9
:10273000AFFF801BA84200D87DB9606C40F020003C
:102740006064202084F84100002084F8420000BF2B
:1027500084F8400000BF012070BD20688069C0F38C
:1027600040100028E1D010202168C8612020216895
:10277000C8612046FFF7B9FF206840680A49084051
:1027800021684860606C40F004006064202084F898
:102790004100002084F8420000BF84F8400000BFE0
:1027A0000120D9E70020D7E700E800FEF0B5059C3E
:1027B00005686D684FF4806606EA545666F0FC269C
:1027C00046F4C046B543C1F309064FF47F0707EA54
:1027D00002473E431E432643354306687560F0BDFD
:1027E0002DE9F04104460E4617461D46DDF81880D7
:1027F00019E0681CB8B1FDF74BFFA0EB0800A84238
:1028000000D885B9606C40F020006064202084F816
:102810004100002084F8420000BF84F8400000BF5F
:102820000120BDE8F081206880693040B04201D1CC
:10283000012000E00020B842DBD00020F1E70000DA
:1028400070B504460D46164640E0324629462046FD
:10285000FFF760FF08B1012070BD20688069C0F3F8
:102860004010F8B120688069C0F3800018B1208D55
:1028700008B10020F0E720202168C8612068406886
:10288000164908402168486000206064202084F8D0
:102890004100002084F8420000BF84F8400000BFDF
:1028A0000120D9E7FDF7F4FE801BA84200D86DB9DE
:1028B000606C40F020006064202084F8410000BF7C
:1028C000002084F8400000BF0120C5E7206880692F
:1028D000C0F380000028B8D00020BDE700E800FE6B
:1028E00070B504460D4616461DE032462946204680
:1028F000FFF710FF08B1012070BDFDF7C9FE801B76
:10290000A84200D87DB9606C40F0200060642020AF
:1029100084F84100002084F8420000BF84F84000A1
:1029200000BF0120E8E720688069C0F3401000285C
:10293000DBD00020E0E770B504460D4616461FE0E8
:10294000324629462046FFF7E5FE08B1012070BD5A
:10295000681CA8B1FDF79CFE801BA84200D87DB979
:10296000606C40F020006064202084F8410000206A
:1029700084F8420000BF84F8400000BF0120E6E771
:1029800020688069C0F340000028D9D00020DEE72D
:1029900008B500BF0E48806C40F001000C49886407
:1029A0000846806C00F00100009000BF00BF0022CC
:1029B00011460F20FEF7F0F80F20FEF7D9F800229D
:1029C00011461020FEF7E8F81020FEF7D1F808BDF8
:1029D0000010024000B587B0142102A8FDF741FCA9
:1029E00000BF5048C06C40F001004E49C864084622
:1029F000C06C00F00100019000BF00BF00BF08469E
:102A0000C06C40F00200C8640846C06C00F00200D0
:102A1000019000BF00BF00BF0846C06C40F004003A
:102A2000C8640846C06C00F00400019000BF00BFFD
:102A30000220029000200390049002A93A48FDF77A
:102A400039FD4FF48040029000200390049002A9C9
:102A50003648FDF72FFD4FF40040029034480390B4
:102A60000020049002A93148FDF724FD7320029054
:102A70000120039000200490059002A94FF090409F
:102A8000FDF718FD4FF48D500290012003900020B7
:102A90000490059002A94FF09040FDF70BFD4FF414
:102AA000004002900120039004900020059002A9AC
:102AB0004FF09040FDF7FEFC012002901C4803906F
:102AC0000120049002A91848FDF7F4FC00221146E9
:102AD0000620FEF761F80620FEF74AF800221146AC
:102AE0002820FEF759F82820FEF742F8002241F28C
:102AF000B3014FF09040FDF7C5FD01224FF4A071E6
:102B00004FF09040FDF7BEFD0122D1034FF0904001
:102B1000FDF7B8FD012220214FF09040FDF7B2FDF6
:102B200007B000BD00100240000400480008004843
:102B30000000211010B50B480B4908600B48486095
:102B40000021094881600121C160002101614161CA
:102B50008161C1610162FDF7A1FD08B1FDF7CCFB08
:102B600010BD00000054004074000020825ED010B0
:102B700010B51248124908604FF482704860002175
:102B80000F4881604FF4E061C16000210161416143
:102B90004FF4007181613821C161002101624162FD
:102BA00081620721C1620021016308214163FEF7B0
:102BB0004FFF08B1FDF7A0FB10BD0000003C004036
:102BC000C000002010B50D480D4908604FF4E130F9
:102BD000486000210A488160C16001610C214161A7
:102BE00000218161C16101620020054948620846F7
:102BF000FFF71AFC08B1FDF77FFB10BD003801405C
:102C00003401002010B50D480D4908604FF4E13043
:102C1000486000210A488160C16001610C21416166
:102C200000218161C16101620020054948620846B6
:102C3000FFF7FAFB08B1FDF75FFB10BD0044004051
:102C4000B401002000BFFEE700BFFEE770470000B0
:102C50002DE9F04104460F4600255B48C06800F0AE
:102C6000030090B15848C06800F003002168884212
:102C700009D1206838B15448C068C0F30210401C24
:102C80006168884233D0012531E02068012804D0F2
:102C9000022809D003281AD10DE04B48006800F043
:102CA000020000B9012514E04748006800F4806084
:102CB00000B901250DE04448006800F4003028B94F
:102CC0004148006800F4802000B9012501E0012599
:102CD00000BF00BF5DB9D4E90010401E41EA0010FA
:102CE0003949C96821F0730108433749C860002D8C
:102CF00067D13548006820F0806033490860FDF7EF
:102D0000C7FC064606E0FDF7C3FC801B022801D97C
:102D1000032505E02C48006800F000600028F2D18F
:102D200000BFC5BB67B9A0680002217B40EAC16053
:102D300025490969254A114008432349086120E0D3
:102D4000012F0FD1A0680002218A0122C2EB51019C
:102D500040EA41501C4909691D4A114008431A497B
:102D600008610EE0A0680002217D0122C2EB510142
:102D700040EA416014490969164A11400843124962
:102D800008611148006840F080600F490860FDF755
:102D90007FFC064607E014E0FDF77AFC801B022862
:102DA00001D9032505E00848006800F0006000280C
:102DB000F2D000BF2DB904480069A1690843024957
:102DC00008612846BDE8F08100100240FF80FF073F
:102DD000FF809FFFFF80FFF9F8B5044600262348D7
:102DE000806D00F0805018B1FDF772FF054616E0C7
:102DF00000BF1E48806D40F080501C498865084621
:102E0000806D00F08050009000BF00BFFDF760FFB4
:102E100005461648806D20F0805014498865B5F548
:102E2000007F07D1802C10D9A02C01D902260CE0FC
:102E300001260AE0802C01D9032606E0802C01D16E
:102E4000022602E0702C00D101260948006820F01B
:102E500007003043064908600846006800F0070094
:102E6000B04201D00120F8BD0020FCE70010024074
:102E700000200240F8B504460E4615466068B0F5DD
:102E8000827F0DD1A068B0F5004F03D0A068B0F5E7
:102E9000806F05D12068006820F04000216808603C
:102EA0003346002280212046009500F0EDF828B13D
:102EB000206E40F0200020660320F8BD6068B0F569
:102EC000827F16D1A068B0F5004F03D0A068B0F59E
:102ED000806F0ED1334600224FF4C061204600952A
:102EE00000F05CF828B1206E40F02000206603203E
:102EF000E3E70020E1E7F8B504460E461546334601
:102F000000224FF4C0512046009500F047F828B148
:102F1000206E40F0200020660320F8BD33460022DA
:102F200080212046009500F0AFF828B1206E40F0D7
:102F3000200020660320F0E7334600224FF4C061F2
:102F40002046009500F02AF828B1206E40F02000BD
:102F500020660320E1E70020DFE7000070B50446AB
:102F60000E461546012C05D10022C1034FF09040BA
:102F7000FDF788FB41F288332A4631460648FEF7C2
:102F80001BFE012C05D10122D1034FF09040FDF72B
:102F900079FB284670BD0000C00000202DE9F84FE5
:102FA00004460D4616469846DDF82890FDF770FB5E
:102FB000A0EB0900A8EB0007FDF76AFB82462F484B
:102FC0000068C0EBC00000EB8000000D784300906B
:102FD0004CE0B5F5C06F02D10EB92068007B08F156
:102FE0000100002842D0FDF753FBA0EB0A00B842D5
:102FF00000D2A7BB2068406820F0E000216848604C
:103000006068B0F5827F0DD1A068B0F5004F03D0A5
:10301000A068B0F5806F05D12068006820F04000FE
:1030200021680860A06AB0F5005F0DD100BF20687C
:10303000006820F40050216808602068006840F4AF
:1030400000502168086000BF012084F85D0000BFC7
:10305000002084F85C0000BF032000F011B8FFE7F7
:10306000009800B900270098401E009020688068F2
:103070002840B042ADD10020EFE70000380000202A
:1030800018BCBDE8E08F00002DE9F84F04460D465E
:1030900090461E46DDF82890FDF7FAFAA0EB0900ED
:1030A000371AFDF7F5FA82462C480068C0F3CB309A
:1030B0007843009045E0701C002842D0FDF7E8FA04
:1030C000A0EB0A00B84200D2A7BB2068406820F0FD
:1030D000E000216848606068B0F5827F0DD1A0688B
:1030E000B0F5004F03D0A068B0F5806F05D120681F
:1030F000006820F0400021680860A06AB0F5005F19
:103100000DD100BF2068006820F4005021680860DD
:103110002068006840F400502168086000BF01206A
:1031200084F85D0000BF002084F85C0000BF03202D
:1031300000F016B8FFE7009800B900270098401E7D
:103140000090206880682840A84201D1012000E05A
:1031500000204045AFD10020EAE700003800002001
:1031600018BCBDE8E08F000070B504460E46154659
:10317000012C05D10022C1034FF09040FDF782FAE7
:1031800041F288332A4631460648FEF7E8FD012C15
:1031900005D10122D1034FF09040FDF773FA284684
:1031A00070BD0000C0000020704710B5FDF776FC30
:1031B00010BD10B5ACB044211BA8FDF752F8142186
:1031C00016A8FDF74EF8542101A8FDF74AF818207B
:1031D0001B9001202090219000202290B02023906D
:1031E000002025901BA8FEF77FF808B1FDF784F8B2
:1031F0000F20169000201790189019901A90012116
:1032000016A8FDF713FF08B1FDF776F843200190EB
:10321000002009900A900C9001A8FDF761FD08B10B
:10322000FDF76AF84FF40070FDF70CFD08B1FDF7EB
:1032300063F8FDF7B9FF4FF47A71B0FBF1F4204663
:10324000FEF7FAFF0420FEF7E3FF00221146501EAE
:10325000FDF7A2FC2CB010BD1048006840F47000CF
:103260000E4908600E48006840F001000C490860F3
:1032700000208860084600680A490840084908603C
:103280008814C8600846006820F480200860002088
:103290008861C803014980390860704788ED00E003
:1032A00000100240FFFFF6EA90F8241001F001013F
:1032B00039B10168496821F40031826A114302681A
:1032C000516090F8241001F00201022907D1016831
:1032D000496821F48031C26A11430268516090F854
:1032E000241001F00401042907D10168496821F480
:1032F0008021026B11430268516090F8241001F0A4
:103300000801082907D10168496821F40041426B8E
:1033100011430268516090F8241001F01001102947
:1033200007D10168896821F48051826B11430268DA
:10333000916090F8241001F02001202907D1016844
:10334000896821F40051C26B11430268916090F8C2
:10335000241001F04001402913D10168496821F48B
:103360008011026C114302685160016CB1F5801F3D
:1033700007D10168496821F4C001426C1143026819
:10338000516090F8241001F08001802907D1016874
:10339000496821F40021826C114302685160704732
:1033A00038B504460020E067FDF772F9054620684D
:1033B000006800F0080008280CD16FF07E402B4612
:1033C00000224FF400110090204600F0B2F908B13D
:1033D000032038BD2068006800F0040004280CD1E8
:1033E0006FF07E402B4600224FF480010090204673
:1033F00000F09FF908B10320EBE720206067A06789
:1034000000BF002084F8700000BF00BFE1E770B586
:103410000546AC6A0020A4F85A00A4F852002046E1
:10342000FEF725FF70BD0168096821F490710268FC
:1034300011600168896821F0010102689160202112
:10344000816700210166704710B504462068006856
:1034500020F040002168086020206067002060663E
:103460002046FFF73FF910BD2DE9F84F0446002034
:103470000090A8492068884200D100E000BF21697F
:10348000A068084361690843E16940EA010A2068CD
:103490000068A149084040EA0A00216808602068E5
:1034A000406820F44050E168084321684860D4F83F
:1034B00018A098492068884202D0206A40EA0A0A87
:1034C0002068806820F4306040EA0A002168886043
:1034D00000BF92492068884216D19148006800F0E8
:1034E000030030B1012808D0022804D0032808D1F5
:1034F00005E0012607E0022605E0042603E0082691
:1035000001E0102600BF39E086492068884216D1C4
:103510008348006800F00C0030B1042808D0082867
:1035200004D00C2808D105E0002607E0022605E0BB
:10353000042603E0082601E0102600BF1EE07549BE
:103540002068884219D17648006800F4406048B18C
:10355000B0F5806F0AD0B0F5006F05D0B0F5406FC0
:1035600008D105E0002607E0022605E0042603E076
:10357000082601E0102600BF00E0102600BF6549C4
:10358000206888424AD136B1022E08D0042E08D0D5
:10359000082E0DD109E0FDF70DFE05460CE0624D49
:1035A0000AE0FDF72BFE054606E04FF4004503E078
:1035B00000250120009000BF00BF002D0AD06068E8
:1035C00000EB4000A84203D860680003A84202D282
:1035D0000120009098E002220023D4F804C0604645
:1035E0001946FCF7F1FD4FF48072A5FB0223871802
:1035F0005941D4F804C0624600233846FCF7E4FD84
:103600008146B9F5407F06D3B9F5801F03D2206803
:10361000C0F80C9078E00120009075E0E069B0F50A
:10362000004F3CD1092E17D2DFE806F005090D1630
:103630000F1616161300FDF7BDFD054610E0FDF749
:10364000CBFD05460CE0384D0AE0FDF7D7FD0546F9
:1036500006E04FF4004503E000250120009000BF84
:1036600000BF7DB36800616800EB5100B0FBF1F072
:103670001FFA80F9B9F1100F0ED3B9F5803F0BD2C4
:103680004FF6F07009EA000BC9F342004BEA000B59
:103690002068C0F80CB037E00120009034E0092E1B
:1036A00018D2DFE806F005090D17101717171400D8
:1036B000FDF780FD054611E0FDF78EFD05460DE0A6
:1036C000194D0BE020E0FDF799FD054606E04FF4AB
:1036D000004503E000250120009000BF00BF9DB120
:1036E000606805EB50006168B0FBF1F01FFA80F9EB
:1036F000B9F1100F06D3B9F5803F03D22068C0F8A6
:103700000C9001E001200090002020666066009887
:1037100000F00CB800800040F369FFEF0038014072
:1037200088100240004400400024F40018BCBDE8AA
:10373000E08F2DE9F04104460D4617469846069E57
:1037400045E0701C002842D0FCF7A2FFA0EB080067
:10375000B04200D8B6B92068006820F4D070216863
:1037600008602068806820F00100216888602020BF
:103770006067A06700BF002084F8700000BF0320CE
:10378000BDE8F0812068006800F00400F8B120680E
:10379000C069C0F3C020D0B14FF400602168086256
:1037A0002068006820F4D070216808602068806874
:1037B00020F001002168886020206067A067E06732
:1037C00000BF002084F8700000BF0320D8E7206805
:1037D000C0692840A84201D1012000E00020B84281
:1037E000AFD00020CCE7000010B50248FEF740FD46
:1037F00010BD00003401002010B50248FEF738FD6E
:1038000010BD0000B401002000BFFEE70FB4054B5F
:1038100010B503A9044A029800F033F810BC5DF813
:1038200014FB0000B94000083C000020024800687A
:10383000C0F30220704700000CED00E010B5002836
:1038400004DB0A07130E054A135406E00A07140E98
:10385000034A00F00F031B1FD45410BD00E400E026
:1038600018ED00E002E008C8121F08C1002AFAD1D2
:1038700070477047002001E001C1121F002AFBD1F0
:1038800070472DE9F84F994692468846054600272D
:1038900006E025280AD051464A4690476D1C7F1CF9
:1038A00028780028F5D1384600F056B8002315F8DE
:1038B000011F18462E2915D115F8011F04232A29A6
:1038C0000DD06FF02F022978A1F13004092C09D80E
:1038D00000EB800002EB400008446D1CF3E758F851
:1038E000040B6D1C2A78002ADDD0632A07D0732AC6
:1038F0000FD0104651464A4690477F1C2AE018F8E0
:10390000042B8DF8002000218DF801106E46012156
:1039100003E058F8046B4FF0FF315A074FF00004F2
:1039200001D409E0641C84420BDA8C42FADB325D7C
:10393000002AF7D105E0641C8C42FCDB305D0028D6
:10394000F9D1274404E016F8010B51464A46904746
:10395000641EF8D26D1CA3E718BCBDE8E08F2DE90A
:10396000F04104460D4600260027284600F024F8C2
:1039700001220321104600F0ADF8064626F4600649
:1039800004F0070046EA405700224FF400414FF090
:103990009040FCF777FE002303223946012000F017
:1039A00016F900F077F90122D1034FF09040FCF7AF
:1039B00069FEBDE8F081000070B5044600250026D0
:1039C00001220321022000F085F805460748054042
:1039D0000120A040C0F3090045EA0026012303228C
:1039E0003146022000F0F3F870BD0000FF00FCFF3C
:1039F0002DE9F0410446002500270026134F002240
:103A00004FF400414FF09040FCF73CFE00230322AE
:103A10003946012000F0DBF800BF09E000F03AF978
:103A200000220321084600F055F80544701CC6B278
:103A3000A642F3DB0122D1034FF09040FCF722FEB7
:103A4000B5FBF4F52846BDE8F081000060002800D1
:103A5000F0EE400A9FED1A1AB0EE410A19490978B2
:103A6000C1B901EE100AB8EE411A9FED172AC1EE56
:103A7000021AB7EE001A31EEC11A61EE201A13498C
:103A8000097801EE101AB8EE411A81EE812AB0EEE3
:103A9000420A13E001EE100AB8EE411A21EE201A94
:103AA0009FED0B2AC1EE021A0849097801EE101A9F
:103AB000B8EE411A81EE812AB0EE420A704700004A
:103AC00000000000000000200000004B010000206A
:103AD0000000804B2DE9FC4107460C4615460020AE
:103AE000009001908046002607F00700402141EA3F
:103AF000C0008DF80000611CCAB2E8B26946FFF749
:103B00002DFA012605E01DF8060000EB0828701CC0
:103B1000C6B2601C8642F6DB4046BDE8FC8170B54B
:103B20000024002500F03CF80120FCF79DFC012258
:103B300011460420FFF7CEFFC5B205F00F000228A2
:103B400000D0012400F02CF80120FCF78DFC204669
:103B500070BD00002DE9F04104460D460026002707
:103B6000012203210220FFF7B5FF064626F00F06CB
:103B700046EAC40005F0070140EA010701230322D9
:103B80003946022000F023F8034804700120A840C1
:103B900002490870BDE8F08100000020010000200B
:103BA0001CB5002000900190FF208DF800008DF8DA
:103BB00001008DF802008DF803008DF804008DF8E7
:103BC0000500062269460120FFF7CEFA1CBD2DE94B
:103BD000FF4182B0074614461D4600200090019028
:103BE0000DF10C08264607F00700002141EAC0004D
:103BF0008DF8000007E098F800000DF8060008F1C5
:103C00000108701EC6B2002EF5DC611CCAB2E8B213
:103C10006946FFF7A9FA06B0BDE8F08170B5002447
:103C200000250F4C00224FF400414FF09040FCF76C
:103C300029FD0023032221460120FFF7C8FF00F0E1
:103C400029F8002203210846FFF744FF0546012218
:103C5000D1034FF09040FCF715FD284670BD0000E1
:103C60006000280070B50025002400210120FFF726
:103C700071FF0820FFF7A0FEFFF7D0FF0546A5F56E
:103C8000000540F6FF20B5FBF0F4A4F21114204625
:103C900070BD000010B500BF20210348FCF7E0FC18
:103CA0000028F9D110BD00000004004870B504469A
:103CB000682060700020A0700648E061064820621D
:103CC000064860620025204600F04EF80546E8B23E
:103CD00070BD0000E53D0008F53E000869040008DD
:103CE0002DE9FC5F0746894615461C464FF0000B40
:103CF00094F82A00284480B200900098019001981E
:103D000000F010FB804600260CB1E06910B94FF0BE
:103D1000FF3B1FE015B96FF00B0B1BE0A0780128EB
:103D200001D147F080076078D4F81CC0424639467C
:103D3000009BE0478346BBF1000F09D105E018F86E
:103D4000060009F80600701C86B2AE42F7DB01E0FF
:103D50006FF0010BDA46404600F0BCF9504600F027
:103D600000B83CBCBDE8C09FF8B504460326204619
:103D700000F00EFB0546A078012802D184F82A0045
:103D800002E0002084F82A004DB9A078012806D16D
:103D90002346012269467F20FFF7A2FF0546F5B9B9
:103DA0000020207006E02346012221460020FFF774
:103DB00097FF0546301EA6F10101CEB202D0207851
:103DC000D128F0D14DB92078D12806D1FF20E0705C
:103DD000204600F06AF8054601E06FF0020528462B
:103DE000F8BD00007FB582B0044615461E4641F27C
:103DF0008830012303AA214600900748FCF762FDA2
:103E000041F2883033462A46214600900248FCF7AA
:103E1000A7FC002006B070BD740000202DE9F0471B
:103E200005460F4616461C464FF00009C8460CB121
:103E3000206A10B94FF0FF3934E016B96FF00B0962
:103E400030E0A078012801D105F07F05207A112803
:103E500002D0207C15280BD1607833463A4629469B
:103E6000D4F820C0E04781460120616A884714E009
:103E700011E007EB0802607801232946D4F820C03E
:103E8000E0478146681CC5B20120616A884708F195
:103E9000010000F0FF08B045EBDBB9F1000F01D0E5
:103EA0006FF001094846BDE8F08738B50446B620F2
:103EB00000900CB1606A10B94FF0FF3518E023464E
:103EC000012269467E20FFF7A9FF05460120616AAD
:103ED00088474DB9A078012806D1234601226946BA
:103EE0007F20FFF7FDFE054615B9204600F028F8B3
:103EF000284638BDF0B591B005460E4617461C461B
:103F0000402101A8FCF7ADF9402C03DD4FF0FF3054
:103F100011B0F0BD8DF80460224639460DF1050060
:103F2000FCF786F94FF47A700090601C83B201AA06
:103F300029460248FCF7C6FC0020E9E7740000208F
:103F40000222C27108224271102101710322827182
:103F50000222C27308224273142101730022827369
:103F600041688160C16801617047000010B500219F
:103F70000120FFF7EFFD0020FFF71EFD0120FFF7F6
:103F80001BFD0220FFF718FD0320FFF715FD0A2097
:103F9000FFF72EFD0446B1EE040AFFF759FD044871
:103FA00080ED000AFFF75EFE0249086010BD0000C8
:103FB000240000202000002010B54FF400411F48CD
:103FC000FCF74EFB18B901201D49087006E00020DF
:103FD0001B490870084600781A490870194800788B
:103FE00017490978884227D017A0FFF70FFC14481B
:103FF000007808B31B480078022803DD0120194926
:10400000087004E017480078401C164908701549EC
:10401000087800EBD0714910A0EB410131B1124892
:10402000007848B901201049087005E00E48007872
:1040300010B100200C49087010BD000000080048B5
:104040002900002028000020546865204B65792055
:1040500068617320547269676765642E2E2E0D0A9D
:10406000000000002A0000201D00002010B51148AB
:10407000007830B101280BD0022811D0032817D1C5
:1040800015E04FF480714FF09040FCF7F1FA0FE02B
:1040900000224FF480714FF09040FCF7F3FA07E0F4
:1040A000012211024FF09040FCF7ECFA00E000BF53
:1040B00000BF10BD1D00002013B50C464FF6FF7366
:1040C000012269460248FEF7A1FA00981CBD0000D3
:1040D0003401002010B5002821D0114B0022001F10
:1040E000196803E0814203D80A4649680029F9D1DA
:1040F00052B11368841A9C4204D1006818441060BD
:10410000104602E0506000E0186039B102680B1AF6
:10411000934203D10B681A4402604968416010BDA4
:1041200040000020FCF7C6FCFFF743F8FEF752FC06
:10413000FEF72EFCFEF7FEFCFEF71AFDFEF742FD31
:10414000FEF760FD3348FFF7B1FD68B132A0FFF71D
:104150005DFB08E04FF480714FF09040FCF788FA67
:104160009620FCF781F9F5E7FFF7D9FC68B130A09C
:10417000FFF74CFB08E04FF480714FF09040FCF7E4
:1041800077FA6420FCF770F9F5E700210420FFF7C7
:10419000E6FB00210520FFF7E2FB01210420FFF7E9
:1041A000DEFB01210520FFF7DAFB02210420FFF7E7
:1041B000D6FB02210520FFF7D2FB03210420FFF7E5
:1041C000CEFB03210520FFF7CAFB1FA0FFF71EFB54
:1041D0002CA22FA131A0FFF719FB3FA0FFF716FB80
:1041E00016E04C480078012810D001224FF4FA71F3
:1041F000494800F0DBF803220A21484800F0D6F8CD
:1042000004221421464800F0D1F801E000BFFEE787
:10421000E7E7000048000020424D49313630204990
:104220006E6974206661696C65642E2E2E0D0A001D
:1042300041443731393320496E6974206661696CB5
:1042400065642E2E2E0D0A000D0A2D2D2D2D2D2DDF
:104250002D4775616E67646F6E672054656B2053E0
:104260006D6172742053656E736F72204C74642C90
:104270002E436F6D70616E792D2D2D2D2D2D2D0DF1
:104280000A000000466562202037203230323100BB
:1042900031363A35313A3132000000000D0A2D2D09
:1042A0002D2D2D2D2D2D2D2D2D2D2D2D4D616B6574
:1042B00020446174613A2025732D25732D2D2D2DF9
:1042C0002D2D2D2D2D2D2D2D2D2D2D2D2D2D2D2D1E
:1042D0002D2D2D0D0A0000000D0A2D2D2D2D2D2D1B
:1042E0002D2D2D2D2D2D2D2D2D2D2D2D416C6C2079
:1042F000496E6974204F4B2D2D2D2D2D2D2D2D2DDB
:104300002D2D2D2D2D2D2D2D2D2D2D2D2D2D2D0DFD
:104310000A0000001C0000206D4000086D3F0008EE
:10432000B93F0008F0B50B30154D20F0070100240F
:10433000144A0FE003688B420BD38B4205D95E1AF7
:1043400043184768C3E9006700E04368136002C090
:1043500004E0021D10680028ECD12046002802D19C
:10436000286808B10020F0BD064A07481060074AD7
:10437000121A22F00702C0E9002401202860D7E7C2
:104380004400002040000020CC020020C80400208F
:10439000014629B1CA691AB10A6A0AB14A6A12B950
:1043A0004FF0FF3000E000207047000070B5044679
:1043B0000D461646072E54D2DFE806F00405121FFC
:1043C0002C3946004DE0FCF763F927490968294478
:1043D000884204D3FCF75CF923490860A04740E019
:1043E000FCF756F9214909682944884204D3FCF7AF
:1043F0004FF91E490860A04733E0FCF749F91C4912
:1044000009682944884204D3FCF742F91849086036
:10441000A04726E0FCF73CF9164909682944884280
:1044200004D3FCF735F913490860A04719E0FCF7FD
:104430002FF9114909682944884204D3FCF728F967
:104440000D490860A0470CE0FCF722F90B49096808
:104450002944884204D3FCF71BF908490860A047A7
:1044600000BF00BF70BD0000040000200800002055
:104470000C00002010000020140000201800002074
:104480000000000000000000010203040607080904
:104490000000000001020304A0860100400D03009B
:1044A000801A060000350C0040420F0080841E0078
:1044B00000093D0000127A000024F40000366E016D
:1044C0000048E801006CDC02E8440008000000201D
:1044D000480000006438000830450008480000200B
:1044E000800800007438000800010000000000008F
:1044F00000000000000000000000000000000000BC
:1045000000000000000000000000000000000000AB
:10451000000000000000000010000000010000008A
:1045200000093D0000000000000000000000000045
:04000005080001A549
:00000001FF
