:020000040800F2
:1000000060160020A5010008213E0008AF3A000854
:100010001D3E000859080008714C0008000000004F
:10002000000000000000000000000000EB4300089A
:100030008D08000800000000253E0008ED43000880
:10004000BF010008BF010008BF010008F940000817
:10005000BF010008BF0100088F080008BF010008A9
:10006000BF010008BF010008BF010008BF01000870
:10007000BF010008BF010008BF010008BF01000860
:10008000BF010008BF010008BF010008BF01000850
:10009000BF010008BF010008BF010008BF01000840
:1000A000BF010008BF010008BF010008BF01000830
:1000B000054600080000000000000000BF01000825
:1000C000BF0100080000000000000000BF010008A0
:1000D00000000000114C0008414C00080000000026
:1000E00099080008BF01000800000000000000009F
:1000F0000000000000000000000000000000000000
:10010000000000000000000000000000BF01000827
:100110000000000000000000BF010008BF0100084F
:10012000BF010008BF010008BF010008BF010008AF
:10013000BF010008000000000000000000000000F7
:10014000BF010008BF010008BF010008BF0100088F
:10015000BF010008BF010008BF010008BF0100087F
:10016000BF010008BF010008BF0100080000000037
:10017000BF010008BF0100080000000000000000EF
:10018000BF010008BF010008BF010008DFF810D060
:1001900000F03EFB0048004709630008AFF3008011
:1001A000601600200648804706480047FEE7FEE745
:1001B000FEE7FEE7FEE7FEE7FEE7FEE7FEE7FEE717
:1001C000B94400088D0100082DE9F05F05460020C4
:1001D00092469B4688460646814640241BE02846B8
:1001E00041464746224600F090F953465A46C01A07
:1001F000914110D311461846224600F077F92D1A86
:1002000067EB01084F4622460120002100F06EF9FD
:1002100017EB00094E41201EA4F10104DFDC484623
:1002200031462A46434600F000B830BCBDE8C09FC6
:1002300040EA01039B0703D009E008C9121F08C068
:10024000042AFAD203E011F8013B00F8013B521EE8
:10025000F9D27047D2B201E000F8012B491EFBD25F
:1002600070470022F6E710B513460A4604461946C1
:10027000FFF7F0FF204610BD2DE9FE4F81EA030491
:1002800004F0004421F0004100944FF0000B23F0F3
:10029000004350EA01045ED052EA03045BD0C3F38A
:1002A0000A54C1F30A552C44A4F2F3340194A0FB80
:1002B0000254C1F3130141F48011C3F3130343F457
:1002C000801301FB024400FB034E840A970A44EAB0
:1002D000815447EA8357A4FB076802958D0A05FB02
:1002E00007854FEA932C04FB0C542705029D4FEA27
:1002F000065847EA1637B5EB08056EEB070C870E74
:10030000920E47EA811742EA8312A7FB0201B6EB7D
:100310000B0164EB00042B0D43EA0C335E1844EB35
:100320001C50DA465146E7FB0201C5F313044FEABD
:100330000B3343EA14534FEA0432019C43EA0603A9
:10034000A4F10C040294009CCDE900B400F033F950
:1003500003B000F003B800200146F9E730BCBDE867
:10036000C08F2DE9F04D81EA030404F0004B21F029
:10037000004514464FF0000A23F0004150EA050200
:1003800020D054EA01021DD0C5F30A570246C5F336
:100390001303C1F31300C1F30A5640F4801543F46C
:1003A0008013A7EB0608101BD64608F2FD3873EB46
:1003B000050002D308F1010801E092185B41B8F191
:1003C000000F03DA00200146BDE8F08D00204FF455
:1003D0008011064684460EE0171B73EB050705D314
:1003E000121B63EB050306434CEA010C49084FEA74
:1003F000300092185B4150EA0107EDD152EA030048
:1004000012D082EA040083EA0501084305D0101BDC
:10041000AB4106D20122002306E000224FF0004348
:1004200002E06FF0010253101AEB06004CEB08518A
:1004300010EB0A0041EB0B01BDE8F04D00F0ACB849
:100440000EB5C10F80EAE0700844CA07002140F2EF
:1004500033438DE80E000A460B4600F0ACF803B0BB
:1004600000BD00F0004230F000400AD0C10D01F59F
:100470006071C0F3160042EA0151C20840071143FF
:10048000704700200146704701F0004330B421F06E
:10049000004150EA010206D00A0DA2F56072C1F3D4
:1004A0001301002A02DC30BC00207047440F44EAEC
:1004B000C104C100E01830BC00EBC25000F035B8F8
:1004C00030B50B46014600202022012409E021FA24
:1004D00002F59D4205D303FA02F5491B04FA02F521
:1004E0002844151EA2F10102F1DC30BD202A04DBF4
:1004F000203A00FA02F1002070479140C2F1200337
:1005000020FA03F3194390407047202A04DB203A75
:1005100021FA02F00021704721FA02F3D040C2F123
:10052000200291400843194670470029A8BF704730
:10053000401C490008BF20F00100704710B4B0FA19
:1005400080FC00FA0CF050EA010404BF10BC7047B4
:1005500049B1CCF1200421FA04F411FA0CF118BFCE
:10056000012121430843A3EB0C01CB1D4FEA00619D
:100570004FEA102042BF002010BC704700EBC35070
:1005800010440029A4BF10BC7047401C490008BF9C
:1005900020F0010010BC704710B5141E73F1000468
:1005A00008DA401C41F1000192185B411A4301D165
:1005B00020F0010010BD2DE9F04D92469B4611B18F
:1005C000B1FA81F202E0B0FA80F220329046FFF7F1
:1005D0008DFF04460F4640EA0A0041EA0B015346EC
:1005E0005A46084313D0114653EA010019D0C8F106
:1005F00040025046FFF789FF05460E4650465946D1
:100600004246FFF773FF084305D0012004E020466F
:100610003946BDE8F08D0020054346EAE0762C43DC
:1006200037430A986305E40AA0EB08000022FD0A9C
:1006300044EA47540A3002D500200146E9E70105A3
:1006400010196941DDE9084500196941BDE8F04D1F
:10065000A2E72DE9FE4F804681EA0300C00F0C4659
:10066000009021F0004123F00045B8EB0200A941C1
:1006700005D24046214690461C460B46024623F0D2
:100680000040104347D0270DC7F30A00C3F30A51B7
:100690000290401A019040286BDAC3F3130040F433
:1006A000801B0098924620B10023D2EB030A63EB33
:1006B0000B0B01985946C0F140025046FFF716FF58
:1006C00006460D4650465946019A00F0B3F810EB25
:1006D00008006141002487EA115284EAE7731A4353
:1006E00040D0009A62B3019A012A4FEA075215DC02
:1006F000001B61EB02014FF0004202EA0752CDE914
:100700000042001C41F5801132462B46FFF753FF93
:1007100003B000F045B840462146F9E7001B61EB05
:100720000201001C41F5801300185B412018A2F55E
:10073000001747EB030140EAD570B6196D4111E08F
:100740006D084FEA360645EAC0754FEA0752001BAE
:1007500061EB0201001C41F5801149084FEA3000AD
:100760000019514132462B4603B000F01CB8FFF788
:1007700013BF0098012240000023D0EB020263EB7C
:10078000E073009821464FEAE074B8EB000061EB9B
:100790000401E9E783F000435BE781F0004158E79B
:1007A00030BCBDE8C08F30BCBDE8C04FFFF7DFBF35
:1007B000C1F30A52C1F3130140F2FF3341F4801137
:1007C0009A4202DA00200146704740F233439A42CF
:1007D000A2F2334202DC5242FFF797BEFFF786BE19
:1007E00030B5041E71F1000404DB4FF000444042B8
:1007F00064EB0101141E73F1000405DB1C464FF08D
:100800000043524263EB0403994208BF904230BD5B
:10081000064C074D06E0E06840F0010394E807004D
:1008200098471034AC42F6D3FFF7B4FCB867000821
:10083000D8670008202A06DBCB17203A41FA02F0DD
:1008400043EAE07306E041FA02F3D040C2F120022D
:10085000914008431946704700BFFEE730B590F855
:10086000444004F01C050124AC40056C6C60046835
:1008700063608468102C04D10468A2600468E1609D
:1008800003E00468A1600468E26030BD704710B501
:10089000012000F0F7FC10BD10B54FF4004000F04F
:1008A000F1FC10BD72B600BFFEE7000010B586B0C7
:1008B00004460020059000BF4FF400400B4908613A
:1008C00000BF0120029000200190204605F022FA8E
:1008D00003900120049005A901A800F047FB10B186
:1008E000012006B010BD0020FBE700000020024000
:1008F0001849087F012801D0032811D100BF1649EB
:10090000096841F40061144A11601146096821F434
:100910000061116000BF1146096841F40071116067
:10092000022801D0032811D100BF0B49096841F406
:100930008051094A11601146096821F48051116003
:1009400000BF1146096841F4806111600021014A2D
:1009500011777047E00000200020024000F0010104
:1009600029B10649496941F00401044A516103492A
:10097000496941F48031014A5161704700200240C9
:10098000094A526922F47E72C3B242EAC302064B9C
:100990005A611A46526942F002025A611A46526975
:1009A00042F480325A6170470020024010B5084975
:1009B000496941F00101064C6161026000BF00BF5E
:1009C00000BFBFF36F8F00BF00BF00BF436010BD0B
:1009D00000200240F0B50246402314460D460C4E5E
:1009E000766946F480260A4F7E6100BFEFF31086D9
:1009F000304672B600BF2E682660241D2D1D5E1E77
:100A0000F3B2002BF7D100BF80F3108800BFF0BD18
:100A100000200240014608787047000070B5054686
:100A200000F02CFD064608E0681C30B100F026FD01
:100A3000801BA84201D3032070BD1948006900F44F
:100A400080300028F0D116480069164900EA0104F8
:100A5000CCB11548406820431349486000BF04F0FA
:100A6000404030B10E48806904F0404108430C49D1
:100A7000886124F0404018B124F0404008490861E2
:100A800000BF0120D8E70648006900F0010020B14E
:100A900000BF01200249086100BF0020CCE7000030
:100AA00000200240FAC30200E00000202DE9FC47CC
:100AB00081460F46904600BF002000900190002420
:100AC00008F00700002848D100BF42E017F8345072
:100AD0000026012000EBC400395C0020000240EA3F
:100AE000116045EA01250643022000EBC400385C92
:100AF0000021090441EA104145EA00450E43032064
:100B000000EBC400385C0021090641EA102145EAE7
:100B100000650E43042000EBC400385C064305204A
:100B200000EBC400385C46EA0026062000EBC40057
:100B3000385C46EA0046072000EBC400385C46EA11
:100B4000006609EBC4012A463346002000F09EFAF5
:100B5000641CB4EBD80FB9D38AE0B8F1080F47D9B9
:100B6000002442E017F834500026012000EBC400B6
:100B7000395C0020000240EA116045EA0125064385
:100B8000022000EBC400385C0021090441EA104156
:100B900045EA00450E43032000EBC400385C002109
:100BA000090641EA102145EA00650E43042000EBE6
:100BB000C400385C0643052000EBC400385C46EAFC
:100BC0000026062000EBC400385C46EA00460720F9
:100BD00000EBC400385C46EA006609EBC4012A4613
:100BE0003346002000F052FA641CB4EBD80FB9D39E
:100BF000FF2208216846FFF72DFB08F0070207EBEC
:100C0000C4016846FFF714FB9DF8005000269DF8CC
:100C100001100020000240EA116045EA0125064368
:100C20009DF802000021090441EA104145EA00450F
:100C30000E439DF803100020000640EA112045EA0B
:100C4000016506439DF8040006439DF8050046EA49
:100C500000269DF8060046EA00469DF8070046EA91
:100C6000006609EBC4012A463346002000F00EFA64
:100C700000F000B80CBCBDE8F08770B50446002554
:100C800094F82500022803D00420E063012520E029
:100C90002068006820F00E00216808602068006865
:100CA00020F001002168086094F8440000F01C0165
:100CB00001208840216C4860012084F8250000BF95
:100CC000002084F8240000BFA06B10B12046A16B67
:100CD0008847284670BD0000014609B901207047C9
:100CE0000868006820F001000A681060294A086856
:100CF00090420BD2284A0868801A1422B0FBF2F006
:100D0000800048642448083808640AE0214A0868DA
:100D1000801A1422B0FBF2F0800048641D480838A5
:100D2000086400200A68106091F8440000F01C027A
:100D3000012090400A6C5060174A083A086C9042B3
:100D40000DD1D0F8A80091F8442002F01C030F2226
:100D50009A409043104A083AC2F8A8000CE00D48A7
:100D6000A030006891F8442002F01C030F229A4042
:100D70009043084AA03210600020C86208634863AC
:100D80008863C86381F8250000BF81F8240000BF94
:100D900000BFA4E7080402400800024010B5014665
:100DA00009B9012010BD3E4B086898420BD23D4B5B
:100DB0000868C01A1423B0FBF3F080004864394877
:100DC000083808640AE0364B0868C01A1423B0FBE0
:100DD000F3F080004864324808380864022081F843
:100DE00025000868026847F6F0708243D1E90203E3
:100DF00018430B6918434B6918438B691843CB6937
:100E000018430B6A18430243086802608868B0F50B
:100E1000804F3AD0234B083B086C98421BD1D0F846
:100E2000A80091F8443003F01C040F23A34098431A
:100E30001C4BA033186091F8443003F01C03486841
:100E40009840184B083BD3F8A8301843154B083B83
:100E5000C3F8A80019E01248A030006891F84430A7
:100E600003F01C040F23A34098430D4BA0331860DC
:100E700091F8443003F01C0348689840084BA033B5
:100E80001B681843064BA03318600020C86301207C
:100E900081F82500002081F8240000BF82E70000CF
:100EA00008040240080002402DE9F04104460D46C6
:100EB00016461F464FF0000800BF94F82400012892
:100EC00002D10220BDE8F081012084F8240000BF97
:100ED00094F8250001282CD1022084F82500002058
:100EE000E0632068006820F00100216808603B464C
:100EF000324629462046FFF7B1FC206B30B120680E
:100F0000006840F00E00216808600BE0206800686F
:100F100020F00400216808602068006840F00A00A2
:100F2000216808602068006840F0010021680860BE
:100F300006E000BF002084F8240000BF4FF0020844
:100F40004046BFE770B5044600F098FA06462546CD
:100F5000681C10B104480078054400BF00F08EFA08
:100F6000801BA842FAD370BDDC0000202DE9F041BF
:100F700004460F4600BF3E480078012802D10220F7
:100F8000BDE8F08101203A49087000BF4CF25030B2
:100F9000FFF744FD0646002E63D1354948603548C9
:100FA000006800F40070B8B13248006820F40070A6
:100FB000304908600846006800F4806040B1084687
:100FC000006820F48060086003202949087715E054
:100FD00001202749087711E02648006800F4806066
:100FE00048B12448006820F480602249086002204B
:100FF0001F49087702E000201D4908772068012872
:101000000ED16068FFF7AAFC4CF25030FFF706FDE6
:1010100006461848406920F00400164948611EE061
:101020004FF0FF303860A56813E028466168FFF78D
:10103000A7FC4CF25030FFF7F1FC06460D48406922
:1010400040F2FA3188430B4948610EB13D6005E03A
:101050006D1CD4E902010844A842E6D800BFFFF79E
:1010600047FC00BF00200249087000BF304687E7F8
:10107000E0000020002002400348406940F00040AA
:101080000149486100207047002002402DE9F047E7
:101090000446884615461E464FF0000900BF294801
:1010A0000078012802D10220BDE8F08701202549FF
:1010B000087000BF4CF25030FFF7B0FC0746002F1D
:1010C00038D1204948602048006800F4806048B169
:1010D0001D48006820F480601B49086002201949FF
:1010E000087702E00020174908773CB92A463346C2
:1010F0004046FFF75BFC4FF001090BE0012C01D0EB
:10110000022C07D129464046FFF764FC022C01D18E
:101110004FF480294CF25030FFF780FC0746B9F1BC
:10112000000F05D00848406920EA090006494861D7
:10113000FFF7DEFB00BF00200249087000BF384601
:10114000B2E70000E0000020002002400020084933
:10115000496901F0004151B10649054A91600649CB
:1011600091601146496901F0004101B101207047C9
:101170000020024023016745AB89EFCDF0B5024660
:101180000B4600206CE00125854005EA030100299B
:1011900065D0364D860855F8264085072E0F0F2559
:1011A000B5402C40B2F1904F01D100250AE0304DFE
:1011B000AA4201D1012505E02E4DAA4201D1022506
:1011C00000E007258607360FB540A54221D12A4DFC
:1011D0002D688D43284E3560351D2D688D43361D95
:1011E0003560351D2D688D43361D3560351D2D68E4
:1011F0008D43361D356085072E0F0F2505FA06F441
:101200001A4D860855F82650A543184E870846F80B
:101210002750156847000326BE4035431560C608B1
:1012200002F1200555F826504607F70E0F26BE405E
:10123000B543C70802F1200646F8275095684700D5
:101240000326BE40B5439560556801268640B543E8
:101250005560D56847000326BE40B543D560401CA5
:1012600023FA00F5002D8ED1F0BD000008000140EA
:10127000000400480008004800040140012800D094
:1012800000BF704710B5044604480068204020B1F4
:10129000024804602046FFF7F1FF10BD140401402E
:1012A00078B503460022C1E0012696400D6805EAA4
:1012B0000604002C72D04D68012D08D04D68022D17
:1012C00005D04D68112D02D04D68122D13D19868AC
:1012D00056000325B540A8435600CD68B5402843C5
:1012E0009860586801259540A8430D79C5F300150D
:1012F000954028435860D86856000325B540A84358
:1013000056008D68B5402843D8604D68022D02D044
:101310004D68122D13D1D60803F1200555F826008B
:101320005507EE0E0F25B540A8435607F60E0D697A
:10133000B5402843D60803F1200545F82600186873
:1013400056000325B540A8430D7905F00305560066
:10135000B540284318604D6805F08055B5F1805FB1
:1013600063D100BF344D2D6E45F00105324E356618
:1013700035462D6E05F00105009500BF00BF4FEA10
:10138000B635960855F8260095072E0F0F25B5405F
:10139000A843B3F1904F02D100250BE045E0274D63
:1013A000AB4201D1012505E0254DAB4201D102251B
:1013B00000E007259607360FB5402843214D9608D3
:1013C00045F82600204D2868A0434D6805F4803577
:1013D000B5F5803F00D120431B4D28602D1D2868A6
:1013E000A0434D6805F40035B5F5003F00D120431A
:1013F000154D2D1D28602D1D2868A0434D6805F44E
:101400008015B5F5801F00D120430F4D08352860A9
:101410002D1D2868A0434D6805F40015B5F5001F83
:1014200000D12043084D0C352860521C0D68D54072
:10143000002D7FF439AF78BD001002400004004851
:1014400000080048080001400004014002461369FA
:101450000B400BB1012000E00020704710B542693D
:1014600021EA020302EA010443EA0443836110BD56
:101470000AB1816100E081627047000001480068A4
:1014800070470000D4000020024692F84100202856
:101490002DD100BF92F84000012801D102207047F1
:1014A000012082F8400000BF242082F8410010682B
:1014B000006820F00100136818601068006820F4CC
:1014C000805013681860106800680843136818603B
:1014D0001068006840F0010013681860202082F84E
:1014E000410000BF002082F8400000BFD7E7022083
:1014F000D5E710B502460B4692F8410020282AD1C4
:1015000000BF92F84000012801D1022010BD012047
:1015100082F8400000BF242082F841001068006873
:1015200020F00100146820601068016821F47061E7
:1015300041EA0321106801601068006840F0010072
:1015400014682060202082F8410000BF002082F84B
:10155000400000BFDAE70220D8E7000010B50446DB
:101560000CB9012010BD94F8410028B9002084F87E
:101570004000204600F080F8242084F841002068D4
:10158000006820F0010021680860606820F0706049
:10159000216808612068806820F400402168886024
:1015A000E068012805D1A06840F400402168886007
:1015B00004E0A06840F4044021688860E0680228E4
:1015C00002D18002216848602068406813490843BE
:1015D000216848602068C06820F400402168C86025
:1015E000D4E904010843A16940EA01202168C860E8
:1015F000D4E907010843216808602068006840F0CA
:1016000001002168086000206064202084F8410007
:101610000020206384F8420000BFA3E7008000029E
:1016200038B504461149206888421DD11048806DA4
:1016300020F400100E49886500BF0846C06C40F0D9
:101640000200C8640846C06C00F00200009000BFB1
:1016500000BF40210748FFF791FD80210548FFF7B3
:101660008DFD002084F8410038BD0000005400408A
:10167000001002400004004810B586B00446142152
:1016800001A8FEF7EEFD18492068884229D100BF65
:101690001648C06C40F002001449C8640846C06C8B
:1016A00000F00200009000BF00BFC0200190122097
:1016B000029001200390002004900420059001A9CD
:1016C0000B48FFF7EDFD00BF0848806D40F40010A7
:1016D000064988650846806D00F40010009000BF40
:1016E00000BF06B010BD00000054004000100240D2
:1016F0000004004801464AF6AA200A68106000204B
:10170000704700000348006803490978084401490C
:1017100008607047D4000020DC00002010B50024D1
:10172000032000F0D1F8002000F008F808B10124EF
:1017300001E000F02FF8204610BD000070B504460F
:10174000002511480078D8B10F4800784FF47A711D
:10175000B1FBF0F00D490968B1FBF0F6304601F03D
:1017600093FD58B9102C07D200222146501E00F0DC
:1017700069F80748046004E0012502E0012500E063
:101780000125284670BD0000DC000020000100207B
:10179000D800002008B500BF0E48006E40F00100E0
:1017A0000C4908660846006E00F00100009000BF7A
:1017B00000BF00BF0846806D40F080508865084635
:1017C000806D00F08050009000BF00BF052000F049
:1017D0007BF808BD0010024010B5014608460028FD
:1017E00017DB00F01F0301229A400B4B440943F81A
:1017F000242000BF00BF00BFBFF34F8F00BF00BF5A
:1018000000BF00BF00BF00BFBFF36F8F00BF00BFAE
:1018100000BF00BF10BD000080E100E001460846A7
:1018200000280DDB00BF00BF00F01F0301229A401B
:1018300043099B0003F1E023C3F8002100BF00BF70
:1018400000BF70472DE9F05F80460D461646002721
:1018500003F020FA074639462A46334601F00700CE
:10186000C0F1070ABAF1040F02D94FF0040A01E0EF
:10187000C0F1070AD14600F1040ABAF1070F02D2FB
:101880004FF0000A01E0A0F1030AD4464FF0010A2C
:101890000AFA09FAAAF1010A0AEA020A0AFA0CFA91
:1018A0004FF0010B0BFA0CFBABF1010B0BEA030B36
:1018B0004AEA0B042146404603F0F4F900F000B870
:1018C00030BCBDE8C09F000000BF00F00702064B1F
:1018D00019684FF6FF031940044B0B4343EA0221FA
:1018E000014B196000BF70470CED00E00000FA05E5
:1018F0000246B2F5007F2AD11D48006800F4C0609E
:10190000B0F5007F32D01A48006820F4C06040F47F
:101910000070174B18601748006832235843164B65
:10192000B0FBF3F0411C00E0491E1148406900F48F
:101930008060B0F5806F01D10029F5D10C48406975
:1019400000F48060B0F5806F10D103207047084824
:10195000006800F4C060B0F5806F07D004480068EC
:1019600020F4C06040F48060014B18600020EDE777
:10197000007000400001002040420F000D4909683E
:1019800021F00701891C0B4A11600B49096841F0DD
:101990000401094A1160012801D130BF02E040BFB3
:1019A00020BF20BF0449096821F00401024A1160E8
:1019B000704700000070004010ED00E00248006831
:1019C00000F4C06070470000007000402DE9F8434B
:1019D00004460025A846208800F40060B0F5006F9A
:1019E00026D1E06B68B1B0F5000F03D0B0F5400F21
:1019F0000ED10CE0C648C06840F48030C449C860CD
:101A000008E00021201D02F00FFA054602E001E087
:101A1000012500BF00BF55B9BD488830006820F4DB
:101A20004000E16B0843BA49C1F8880000E0A846CD
:101A3000206800F40030B0F5003F75D14FF0000988
:101A4000B348806D012121EA107078B100BFB04821
:101A5000806D40F08050AE4988650846806D00F08A
:101A60008050009000BF00BF4FF00109A9480068F6
:101A700040F48070A7490860FFF700FD074606E0C4
:101A8000FFF7FCFCC01B022801D9032505E0A14893
:101A9000006800F480700028F2D000BF7DBB9C4835
:101AA0009030006800F44076CEB1206DB04216D080
:101AB00097489030006820F440769548D0F8900020
:101AC00040F480309249C1F890000846D0F8900068
:101AD00020F48030C1F890000846C0F8906006F00D
:101AE0000100A8B1FFF7CAFC074609E0FFF7C6FCF2
:101AF000C01B41F28831884202D9032507E016E075
:101B000083489030006800F002000028EED000BF4B
:101B10005DB97F489030006820F44070216D084323
:101B20007B49C1F8900003E00CE0A84600E0A8461D
:101B3000B9F1010F05D17648806D20F080507449CD
:101B4000886500BF207800F0010048B170488830F7
:101B5000006820F00300216A08436D49C1F888003D
:101B6000207800F00200022809D169488830006816
:101B700020F00C00616A08436549C1F888002078AC
:101B800000F02000202809D161488830006820F446
:101B90004060A16A08435E49C1F88800208800F4CB
:101BA0000070B0F5007F09D159488830006820F4F2
:101BB0004020616B08435649C1F88800208800F432
:101BC0008060B0F5806F09D151488830006820F4FA
:101BD0004010A16B08434E49C1F88800207800F0FE
:101BE0004000402809D14A488830006820F440501D
:101BF000E16A08434649C1F88800208800F48070F3
:101C0000B0F5807F09D142488830006820F4403028
:101C1000216B08433E49C1F88800208800F4005039
:101C2000B0F5005F1FD13A488830006820F040606E
:101C3000216C0843364988310860206CB0F1006F90
:101C400006D13348C06840F480103149C8600AE0CA
:101C5000206CB0F1806F06D10121201D02F0E4F864
:101C6000054605B1A846206800F48020B0F5802F15
:101C70001FD127488830006820F04060616C08431D
:101C8000234988310860606CB0F1006F06D12048AC
:101C9000C06840F480101E49C8600AE0606CB0F172
:101CA000806F06D10121201D02F0BEF8054605B166
:101CB000A846208800F48040B0F5804F14D1144825
:101CC0008830006820F04050A16C084310498831EA
:101CD0000860A06CB0F1805F06D10221201D02F0E7
:101CE000A3F8054605B1A846208800F40040B0F5E9
:101CF000004F09D106488830006820F08040E16C30
:101D000008430349C1F888004046BDE8F883000055
:101D100000100240007000402DE9F04104460D46DD
:101D200014B90120BDE8F0815548006800F00700B3
:101D3000A8420ED25248006820F0070028435049BC
:101D400008600846006800F00700A84201D00120A2
:101D5000E8E7207800F00100002840D06068032800
:101D600006D14848006800F00070D8B90120D9E7D2
:101D70006068022806D14348006800F4003088B942
:101D80000120CFE7606830B93E48006800F00200EB
:101D900040B90120C6E73B48006800F4806008B9FC
:101DA0000120BFE73748806820F0030061680843DE
:101DB00034498860FFF762FB064608E0FFF75EFBE8
:101DC000801B41F28831884201D90320AAE72D48BF
:101DD000806800F00C006168B0EB810FEED12078D4
:101DE00000F00200022807D12648806820F0F000A9
:101DF000A1680843234988602148006800F0070073
:101E0000A8420ED91E48006820F0070028431C494C
:101E100008600846006800F00700A84201D00120D1
:101E200080E7207800F00400042807D11548806876
:101E300020F4E060E168084312498860207800F0EF
:101E40000800082808D10F48806820F460502169F4
:101E500040EAC1000B49886000F046F809498968EA
:101E6000C1F30311084A515C01F01F01C840074942
:101E7000086007480068FFF761FC0746384651E7ED
:101E8000002002400010024070670008000100209E
:101E9000D8000020014800687047000000010020C1
:101EA00000B5FFF7F7FF05498968C1F30221044A2D
:101EB000515C01F01F01C84000BD0000001002404D
:101EC0008067000800B5FFF7E5FF05498968C1F3A1
:101ED000C221044A515C01F01F01C84000BD00004E
:101EE0000010024080670008F0B500230020DFF8F2
:101EF000D4C0DCF808C00CF00C01DFF8C8C0DCF876
:101F00000CC00CF0030719B10C291ED1012F1CD1F4
:101F1000DFF8B0C0DCF800C00CF0080CBCF1000F1A
:101F200006D1DFF8A0C0DCF894C0CCF3032305E0B1
:101F3000DFF890C0DCF800C0CCF30313DFF888C0F2
:101F40005CF8233041B9184606E0042901D11F4846
:101F500002E0082900D11E480C2932D1DFF864C004
:101F6000DCF80CC00CF00304012C09D0022C02D0C8
:101F7000032C04D101E0154A04E0154A02E000BF39
:101F80001A4600BF00BFDFF83CC0DCF80CC0CCF341
:101F9000021C0CF10106DFF82CC0DCF80CC0CCF3FD
:101FA000062C0CFB02FCBCFBF6F2DFF818C0DCF8D8
:101FB0000CC0CCF3416C0CF1010C4FEA4C05B2FBA8
:101FC000F5F0F0BD00100240886700080024F4001E
:101FD00000127A002DE9F843044614B90120BDE847
:101FE000F883F948806800F00C06F748C06800F0F4
:101FF0000307207800F01000102877D11EB10C2EB6
:1020000076D1012F74D1F048006800F0020018B1B9
:10201000A06908B90120E2E7EB48216A006800F0F6
:10202000080020B1E848006800F0F00005E0E6484C
:102030009430006800F47060000981421FD9206A62
:1020400001F0B6FF08B10120C9E700BFDE48006813
:1020500040F00800DC4908600846006820F0F00005
:10206000216A0843D849086000BF0846406820F448
:102070007F40E16940EA0120D34948601FE000BF8A
:10208000D148006840F00800CF4908600846006861
:1020900020F0F000216A0843CB49086000BF0846E1
:1020A000406820F47F40E16940EA0120C649486069
:1020B0002EB9206A01F07CFF08B101208FE7FFF7FD
:1020C00013FFC1498968C1F30311C04A515C01F093
:1020D0001F01C840BE490860BE480068FFF72EFBDC
:1020E0008046B8F1000F4ED0404678E74BE0FFE75E
:1020F000A06980B3B448006840F00100B2490860AC
:10210000FFF7BCF9054606E0FFF7B8F9401B0228C7
:1021100001D9032063E7AC48006800F00200002802
:10212000F2D000BFA848006840F00800A649086047
:102130000846006820F0F000216A0843A2490860C0
:1021400000BF0846406820F47F40E16940EA012072
:102150009D49486017E0FFE79B48006820F00100B8
:1021600099490860FFF78AF9054606E0FFF786F906
:10217000401B022801D9032031E79348006800F092
:1021800002000028F2D1207800F0010000285CD085
:10219000082E03D00C2E0AD1032F08D18A480068DC
:1021A00000F4003088B3606878BB012017E700BFF7
:1021B0006068B0F5803F06D18348006840F4803005
:1021C000814908601AE06068B0F5A02F0BD17E4805
:1021D000006840F480207C4908600846006840F4AC
:1021E000803008600AE07848006820F48030764942
:1021F00008600846006820F48020086000BF60681E
:1022000090B1FFF73BF9054607E01EE0FFF736F90E
:10221000401B642801D90320E1E66B48006800F404
:1022200000300028F2D010E0FFF728F9054606E05C
:10223000FFF724F9401B642801D90320CFE6624848
:10224000006800F400300028F2D1207800F002008D
:10225000022852D1042E03D00C2E14D1022F12D1F9
:102260005948006800F4806018B1E06808B901209E
:10227000B5E65548406820F0FE40217C40EA016008
:102280005149486039E0E06800B34F48006840F4C5
:1022900080704D490860FFF7F1F8054606E0FFF74A
:1022A000EDF8401B022801D9032098E64648006853
:1022B00000F480600028F2D04348406820F0FE40DF
:1022C000217C40EA01604049486016E03E480068D1
:1022D00020F480703C490860FFF7D0F8054606E01E
:1022E000FFF7CCF8401B022801D9032077E63648D7
:1022F000006800F480600028F2D1207800F0080027
:10230000082836D16069D0B12F489430006840F079
:1023100001002D49C1F89400FFF7B0F8054606E02A
:10232000FFF7ACF8401B022801D9032057E62648E6
:102330009430006800F002000028F1D019E0224833
:102340009430006820F001001F49C1F89400FFF7A5
:1023500095F8054606E0FFF791F8401B022801D9E1
:1023600003203CE618489430006800F00200002882
:10237000F1D1207800F00400042872D14FF0000958
:102380001148806D00F0805078B900BF0E48806D14
:1023900040F080500C4988650846806D00F0805000
:1023A000009000BF00BF4FF001090B48006800F427
:1023B000807000BB0848006840F4807006490860DF
:1023C000FFF75CF8054610E0001002407067000857
:1023D00000010020D800002000700040FFF74EF8F8
:1023E000401B022801D90320F9E5D048006800F419
:1023F00080700028F2D000BFA068012808D1CC4826
:10240000006840F00100CA499039C1F8900021E00D
:10241000A06805280FD1C648006840F00400C449F0
:102420009039C1F890000846D0F8900040F00100C3
:10243000C1F890000EE0BE48006820F00100BC49E1
:102440009039C1F890000846D0F8900020F00400C0
:10245000C1F8900000BFA068A0B1FFF70FF80546D3
:1024600009E02EE0FFF70AF8401B41F2883188426C
:1024700001D90320B3E5AE48006800F0020000284F
:10248000F0D012E0FEF7FAFF054608E0FEF7F6FF8F
:10249000401B41F28831884201D903209FE5A448BE
:1024A000006800F002000028F0D1B9F1010F07D157
:1024B0009F489038806D20F080509D499039886504
:1024C00000BF207800F02000202838D1606AD8B101
:1024D00097480830006840F0010095499039C1F8EC
:1024E0009800FEF7CBFF054606E0FEF7C7FF401B4E
:1024F000022801D9032072E58D480830006800F0F9
:1025000002000028F1D01AE089480830006820F065
:10251000010087499039C1F89800FEF7AFFF0546E2
:1025200006E0FEF7ABFF401B022801D9032056E569
:102530007F480830006800F002000028F1D1A06A4E
:1025400000287DD0A06A02287BD179489038C768DE
:1025500007F00301E06A814225D107F07001206B8A
:10256000401EB1EB001F1ED107F4FE41606BB1EBC2
:10257000002F18D107F078413820005DB1EBC06F13
:1025800011D107F4C001A08F0122C2EB5000B1EBC2
:10259000405F08D107F0C0614020005DC2EB5000F1
:1025A000B1EB406F66D00C2E62D061489038006865
:1025B00000F0806008B1012011E55D4890380068A6
:1025C00020F080705A4990390860FEF757FF0546A1
:1025D00006E0FEF753FF401B022801D90320FEE46A
:1025E00053489038006800F000700028F1D1D4E919
:1025F0000B10401E41EA0011606B41EA0021A08FE0
:102600000122C2EB500041EA40514020005DC2EB84
:10261000500041EA40613820005D41EAC060444911
:102620009039C968434A1140084341499039C8600C
:102630000846006840F0807008600846C06801E005
:102640005BE03DE040F08070C860FEF717FF054694
:1026500006E0FEF713FF401B022801D90320BEE469
:1026600033489038006800F000700028F1D05AE03C
:102670000120B4E42E489038006800F00070E0BB00
:102680002B489038006840F08070294990390860E4
:102690000846C06840F08070C860FEF7EFFE05464F
:1026A00006E0FEF7EBFE401B022801D9032096E46A
:1026B0001F489038006800F000700028F1D032E028
:1026C0000C2E2ED01A489038006820F080701849DF
:1026D000903908600846006800F0006020B908469C
:1026E000C06820F00300C86011489038C0681249E3
:1026F00008400F499039C86000E014E0FEF7BEFEC4
:10270000054606E0FEF7BAFE401B022801D9032069
:1027100065E407489038006800F000700028F1D1A7
:1027200001E001205BE4002059E40000007000405B
:10273000901002408C809D01FFFFEEFE70B50446B4
:1027400000BF94F82000012801D1022070BD0120B3
:1027500084F8200000BF022084F8210000BFCA20B6
:102760002168486253202168486200BF2068806861
:1027700020F48060216888602068806820F48040B0
:1027800021688860FEF77AFE054614E0FEF776FEC3
:10279000401BB0F57A7F0ED900BFFF202168486248
:1027A00000BF032084F8210000BF002084F820002F
:1027B00000BF0320CAE72068C068C0F3800000287B
:1027C000E4D000BFFF202168486200BF012084F8E8
:1027D000210000BF002084F8200000BF00BFB5E743
:1027E0002DE9F04104460E46174600BF94F820003C
:1027F000012802D10220BDE8F081012084F82000E8
:1028000000BF022084F8210000BFCA20216848626E
:1028100053202168486200BF2068806820F48060EF
:10282000216888602068C06800F0800060F49060D3
:102830002168C8602068C06800F04000F0B9FEF769
:102840001DFE054614E0FEF719FE401BB0F57A7F29
:102850000ED900BFFF202168486200BF032084F822
:10286000210000BF002084F8200000BF0320C2E741
:102870002068C06800F004000028E4D020684661A9
:102880002068806820F00700384321688860144879
:10289000006840F480101249086011480830006850
:1028A00040F480100E49083108602068806840F4C8
:1028B0008040216888602068806840F480602168DA
:1028C000886000BFFF202168486200BF012084F8B3
:1028D000210000BF002084F8200000BF00BF8AE76D
:1028E0000004014010B5044601F0E4F810BD0000FA
:1028F00010B504464FF480100A4908602068C0688B
:10290000C0F3802050B12068C06800F0800060F4FF
:1029100090602168C8602046FFF7E4FF012084F83A
:10292000210010BD1404014070B504460125002C9F
:102930004DD094F8210028B9002084F820002046CA
:1029400000F04AF8022084F8210000BFCA20216864
:10295000486253202168486200BF204601F076FBA0
:102960000546A5BB206880681A4908402168886030
:10297000216960680843A1690843216889680843A0
:10298000216888602168E068086120680169208901
:1029900041EA004021680861204601F079FB0546C4
:1029A000ADB92068C06C20F003002168C86461697B
:1029B000E06908432168C96C08432168C86400BF06
:1029C000FF202168486200BF012084F821002846CA
:1029D00070BD0000BFFF8FFF10B5A6B004460820F1
:1029E000159000201F9001201A9015A8FFF7F2FA09
:1029F00008B100BFFEE74FF40030009000121490C1
:102A00006846FEF7E3FF08B100BFFEE7084800682C
:102A100040F4004006499039C1F890000022114668
:102A20000320FEF70FFF0320FEF7F8FE26B010BDCF
:102A30009010024070B504462068C06820F0A000E5
:102A40002168C860FEF71AFD054607E0FEF716FD8F
:102A5000401BB0F57A7F01D9032070BD2068C068A3
:102A600000F020000028F1D00020F6E770B5044601
:102A70000CB9012070BD606A38B96068B0F5827F1A
:102A800000D105E00021E16102E0002121616161E6
:102A90000021A16294F85D0028B9002084F85C0050
:102AA000204600F075F8022084F85D002068006878
:102AB00020F0400021680860E068B0F5E06F01D9BF
:102AC000002501E04FF48055E068B0F5706F05D047
:102AD000E068B0F5E06F01D00021A162A08800F4A9
:102AE0008270218901F404410843217C01F0020134
:102AF0000843217D01F001010843218B01F400719D
:102B00000843217F01F0380108432021095D01F0CD
:102B100080010843218D01F40051084321680860B9
:102B20000421A06901EA104094F8241001F010017A
:102B3000084394F8341001F008010843A18901F416
:102B40007061084305F48051084321684860002003
:102B50002066012084F85D0000208BE710B5044654
:102B60000849206888420CD10748806D20F4004055
:102B70000549886538210548FEF700FB002084F8E8
:102B80005D0010BD003C0040001002400004004801
:102B900010B586B00446142101A8FDF762FB174961
:102BA0002068884228D100BF1548806D40F400405D
:102BB000134988650846806D00F40040009000BF0E
:102BC00000BF00BF0846C06C40F00200C864084661
:102BD000C06C00F00200009000BF00BF38200190E0
:102BE000022002900120039002200490062005900C
:102BF00001A90448FEF754FB06B010BD003C00409C
:102C000000100240000400482DE9F84304468846BD
:102C100016461D464FF000096068B0F5827F0DD161
:102C2000A06858B9042084F85D0033464246414606
:102C30002046009500F0B3F9BDE8F88300BF94F892
:102C40005C00012801D10220F6E7012084F85C0035
:102C500000BFFEF713FC074694F85D00012802D080
:102C60004FF0020999E0B8F1000F00D016B94FF00B
:102C7000010992E0042084F85D0000202066C4F879
:102C80004080A4F84460A4F84660A063A087E08771
:102C9000E0642065E068B0F5E06F06D92068406820
:102CA00020F480502168486005E02068406840F4C6
:102CB000805021684860A068B0F5004F0BD12068B3
:102CC000006820F04000216808602068006820F457
:102CD0008040216808602068006800F040004028BB
:102CE00005D02068006840F0400021680860E06876
:102CF000B0F5E06F22D81CE02068806800F0010089
:102D000060B12068007B216C0870206C401C20643E
:102D1000B4F84600401EA4F846000AE0FEF7AEFBF9
:102D2000C01BA84201D3681C00B915B94FF00309B4
:102D300033E0B4F846000028DED121E01CE0206832
:102D4000806800F0010060B12068C068216C0880D4
:102D5000206C801C2064B4F84600401EA4F8460095
:102D60000AE0FEF78BFBC01BA84201D3681C00B928
:102D700015B94FF0030910E0B4F846000028DED181
:102D80003A462946204601F0BFF908B120202066C6
:102D9000206E08B14FF0010900BF012084F85D00EA
:102DA00000BF002084F85C0000BF484644E72DE9DE
:102DB000F84F0446884616461D464FF0000A00BFED
:102DC00094F85C00012802D1022000F0E5B801204F
:102DD00084F85C0000BFFEF751FB0746B14694F84B
:102DE0005D00012802D04FF0020ACBE0B8F1000FDD
:102DF00000D016B94FF0010AC4E0032084F85D004A
:102E000000202066C4F83880A687E6872064A4F8EE
:102E10004400A4F846002065E064A068B0F5004FC7
:102E20000BD12068006820F040002168086020680D
:102E3000006840F48040216808602068006800F065
:102E40004000402805D02068006840F0400021681C
:102E50000860E068B0F5E06F2FD9606810B1B9F193
:102E6000010F09D1A06B00882168C860A06B801C8D
:102E7000A063E08F401EE0871BE02068806800F0C0
:102E8000020002280AD1A06B00882168C860A06BEC
:102E9000801CA063E08F401EE0870AE0FEF7EEFA98
:102EA000C01BA84201D3681C00B915B94FF0030A32
:102EB00068E0E08F0028E0D14AE0606810B1B9F125
:102EC000010F17D1E08F01280AD9A06B0088216873
:102ED000C860A06B801CA063E08F801EE08709E0C3
:102EE000A06B007821680873A06B401CA063E08F82
:102EF000401EE08729E02068806800F00200022878
:102F000018D1E08F01280AD9A06B00882168C86019
:102F1000A06B801CA063E08F801EE08715E0A06B93
:102F2000007821680873A06B401CA063E08F401EEE
:102F3000E0870AE0FEF7A2FAC01BA84201D3681C92
:102F400000B915B94FF0030A1CE0E08F0028D2D178
:102F50003A462946204601F018F908B1202020669B
:102F6000A06850B900BF002000902068C0680090A1
:102F700020688068009000BF00BF206E08B14FF04D
:102F8000010A00BF012084F85D0000BF002084F822
:102F90005C0000BF504618E718BCBDE8E08F2DE983
:102FA000FF5F0446894692461D460E9E0120019011
:102FB0000020009000BF94F85C00012803D102209B
:102FC00004B000F04AB9012084F85C0000BFFEF7AD
:102FD00055FA074694F85D00029060680390A84691
:102FE000AB46029801280BD00398B0F5827F04D13C
:102FF000A06810B90298042802D00220009022E1B3
:10300000B9F1000F03D0BAF1000F00D015B90120BB
:10301000009018E194F85D00042802D0052084F89F
:103020005D0000202066C4F840A0A4F84650A4F833
:103030004450C4F83890E587A587E0642065E068CF
:10304000B0F5E06F02D8BBF1010F06D920684068E7
:1030500020F480502168486005E02068406840F412
:103060008050216848602068006800F040004028D7
:1030700005D02068006840F0400021680860E068E2
:10308000B0F5E06F4ED9606810B1B8F1010F09D109
:10309000A06B00882168C860A06B801CA063E08FD3
:1030A000401EE08736E02068806800F002000228B9
:1030B00010D1E08F70B1019801280BD1A06B00886E
:1030C0002168C860A06B801CA063E08F401EE08771
:1030D000002001902068806800F0010080B1B4F801
:1030E000460068B12068C068216C0880206C801C94
:1030F0002064B4F84600401EA4F846000120019068
:10310000FEF7BCF9C01BB04204D3701C10B1032001
:10311000009098E0E08F0028C5D1B4F84600002860
:10312000C1D185E0606810B1B8F1010F17D1E08F0F
:1031300001280AD9A06B00882168C860A06B801C98
:10314000A063E08F801EE08709E0A06B0078216813
:103150000873A06B401CA063E08F401EE08760E016
:103160002068806800F0020002281ED1E08FE0B1E4
:103170000198012819D1E08F01280AD9A06B008895
:103180002168C860A06B801CA063E08F801EE08770
:1031900009E0A06B007821680873A06B401CA06355
:1031A000E08F401EE087002001902068806800F0DA
:1031B000010058B3B4F8460040B3B4F84600012803
:1031C00016D92068C068216C0880206C801C20649F
:1031D000B4F84600801EA4F84600B4F84600012862
:1031E00012D82068406840F48050216848600BE0A5
:1031F0002068007B216C0870206C401C2064B4F8AF
:103200004600401EA4F8460001200190FEF736F962
:10321000C01BB04201D3701C00B916B90320009046
:1032200011E0E08F00289BD1B4F84600002897D128
:103230003A463146204600F0A8FF18B10120009020
:103240002020206600BF012084F85D0000BF002020
:1032500084F85C0000BF0098B2E630BCBDE8C09FB7
:10326000042808D14FF0E021096941F004014FF032
:10327000E022116107E04FF0E021096921F004012B
:103280004FF0E0221161704770B504462546681E74
:10329000B0F1807F01D301200FE0681E4FF0E021E4
:1032A00048610F214FF0FF3001F0FCFC00204FF08F
:1032B000E021886107200861002070BD70477047D9
:1032C0007047704710B5044620680069C0F340009D
:1032D000D8B12068C068C0F34000B0B16FF0020000
:1032E00021680861012020772068806900F00300D0
:1032F00018B12046FFF7E5FF05E0204600F0BEF8D4
:10330000204600F0BCF80020207720680069C0F358
:103310008000D8B12068C068C0F38000B0B16FF001
:10332000040021680861022020772068806900F489
:10333000407018B12046FFF7C4FF05E0204600F0BA
:103340009DF8204600F09BF8002020772068006957
:10335000C0F3C000D8B12068C068C0F3C000B0B1ED
:103360006FF0080021680861042020772068C06998
:1033700000F0030018B12046FFF7A3FF05E0204648
:1033800000F07CF8204600F07AF8002020772068D2
:103390000069C0F30010D8B12068C068C0F3001005
:1033A000B0B16FF010002168086108202077206814
:1033B000C06900F4407018B12046FFF782FF05E0B5
:1033C000204600F05BF8204600F059F800202077F6
:1033D0002068006900F0010058B12068C06800F062
:1033E000010030B16FF0010021680861204600F053
:1033F00047F820680069C0F3C01058B12068C06861
:10340000C0F3C01030B16FF0800021680861204621
:10341000FFF755FF20680069C0F3002058B120680D
:10342000C068C0F3C01030B16FF4807021680861CB
:103430002046FFF743FF20680069C0F3801058B1B1
:103440002068C068C0F3801030B16FF04000216880
:103450000861204600F034F820680069C0F340108D
:1034600058B12068C068C0F3401030B16FF0200040
:10347000216808612046FFF723FF10BD70477047A1
:1034800010B504460C48844215D10C480068401C15
:103490000A490860084600683221B0FBF1F201FBDE
:1034A000120040B90020054908604FF480714FF0C8
:1034B0009040FDF7D3FF10BDEC0F0020200000204E
:1034C00070477047704700002DE9F04704462068B8
:1034D000C569206806682068876840F60F0005EA1D
:1034E0000008B8F1000F0CD105F0200048B106F03B
:1034F000200030B1206E10B12046216E8847BDE813
:10350000F087B8F1000F7DD007F0010018B95A48D4
:1035100030400028F7D005F0010048B106F4807073
:1035200030B1012021680862E06F40F00100E067DF
:1035300005F0020048B107F0010030B10220216817
:103540000862E06F40F00400E06705F0040048B155
:1035500007F0010030B1042021680862E06F40F0FC
:103560000200E06705F0080060B106F0200010B925
:1035700007F0010030B1082021680862E06F40F0D8
:103580000800E06705F4006050B106F0806038B1D3
:103590004FF4006021680862E06F40F02000E067AF
:1035A000E06F80B305F0200038B106F0200020B1B4
:1035B000206E10B12046216E8847D4F87C90206898
:1035C000806800F04000402802D009F0280030B3A5
:1035D000204601F033F92068806800F04000402860
:1035E00019D12068806820F0400021688860E06E72
:1035F00068B12248E16E8863E06EFDF73EFB10B1D2
:10360000E06E01E011E00FE0816B88470CE020469E
:10361000FFF758FF08E02046FFF754FF04E020467C
:10362000FFF750FF0020E06769E705F4801050B114
:1036300007F4800038B14FF48010216808622046FA
:10364000FFF73FFF5BE705F0800040B106F0800028
:1036500028B1606E10B12046616E88474FE705F0D3
:10366000400030B106F0400018B1204601F0F7F8F4
:1036700045E700BF43E70000200100047B47000846
:1036800010B504460CB9012010BDA06900B100E0DE
:1036900000BF606F28B9002084F87000204600F059
:1036A00061F8242060672068006820F0010021682C
:1036B0000860204601F0ECF8012800D1E4E7606AD8
:1036C00010B1204600F0A6FF2068406820F490402A
:1036D000216848602068806820F02A00216888609E
:1036E0002068006840F0010021680860204601F071
:1036F0000DF8C9E710B5044616492068884212D172
:103700001548006E20F4804013490866C021134814
:10371000FDF734FD00206067E06EFDF7DDFA25203F
:10372000FEF75AF814E00E492068884210D10A4882
:10373000806D20F40030084988650C214FF09040DE
:10374000FDF71CFDE06EFDF7C7FA2620FEF744F8F2
:1037500010BD000000380140001002400004004885
:103760000044004010B586B00446142101A8FCF7BF
:1037700078FD6149206888425CD100BF5F48006ED7
:1037800040F480405D4908660846006E00F48040C1
:10379000009000BF00BF00BF0846C06C40F00100B1
:1037A000C8640846C06C00F00100009000BF00BF74
:1037B000081501900220029001200390022004903D
:1037C0000720059001A94FF09040FDF769FD4FF4E7
:1037D00000700190022002900020039002200490CB
:1037E0000720059001A94FF09040FDF759FD44488E
:1037F0004449086002204860002142488160C1605D
:1038000080210161002141618161C1610162FDF797
:10381000C5FA08B1FDF746F800BF3A48E066846291
:1038200000BF002211462520FEF70CF82520FDF7E9
:10383000F5FF5FE03449206888425BD100BF2F4824
:10384000806D40F400302D4988650846806D00F495
:103850000030009000BF00BF00BF0846C06C40F0C1
:103860000100C8640846C06C00F00100009000BF71
:1038700000BF082001900220029001200390022046
:1038800004900720059001A94FF09040FDF708FD36
:103890000420019002200290002003900220049056
:1038A0000720059001A94FF09040FDF7F9FC14485E
:1038B00014301649086002204860002113488160D6
:1038C000C16080210161002141618161C1610162AA
:1038D000FDF764FA08B1FCF7E5FF00BF0B48E066AE
:1038E000846200BF002211462620FDF7ABFF262090
:1038F000FDF794FF06B010BD0038014000100240F3
:10390000580002408C02002000440040D4020020F5
:1039100070B504460E461546A06F202850D106B15A
:103920000DB9012070BD00BF94F87000012801D1CD
:103930000220F7E7012084F8700000BF6665A4F854
:1039400058500020E0672220A067E06EF8B11D48C3
:10395000E16EC8621C48E16E08631C48E16E486372
:103960000020E16E8863236803F124012B46626D19
:10397000E06EFDF799FA50B11020E06700BF00201B
:1039800084F8700000BF202060670120CAE700BFF4
:10399000002084F8700000BF2068006840F4807048
:1039A000216808602068806840F001002168886014
:1039B0002068806840F04000216888600020B1E7FE
:1039C0000220AFE7E94700082F48000893470008A6
:1039D000704770472DE9F84F04460E461746994642
:1039E000606F20285DD106B117B9012000F05BB8E7
:1039F00000BF94F87000012801D10220F6E70120F1
:103A000084F8700000BF0020E06721206067FDF7A8
:103A100035FD8246A4F85070A4F85270A068B0F545
:103A2000805F04D1206910B90025B04602E0354618
:103A30004FF0000800BF002084F8700000BF1DE0B8
:103A40005346002280212046CDF8009001F085F8F1
:103A500008B10320CAE745B9B8F80000C0F3080070
:103A60002168088508F1020803E0287821680885A4
:103A70006D1CB4F85200401EA4F85200B4F8520075
:103A80000028DDD15346002240212046CDF8009089
:103A900001F063F808B10320A8E720206067002048
:103AA000A4E70220A2E718BCBDE8E08F704700BF82
:103AB000FEE7000010B50248FDF71CFE10BD000037
:103AC000DC07002008B500BF0E48806C40F0010004
:103AD0000C4988640846806C00F00100009000BF2B
:103AE00000BF032201210F20FDF7ACFE0F20FDF7E0
:103AF00095FE022201211020FDF7A4FE1020FDF703
:103B00008DFE08BD0010024000B587B0142102A848
:103B1000FCF7A7FB00BF5E48C06C40F001005C49A9
:103B2000C8640846C06C00F00100019000BF00BFEF
:103B300000BF0846C06C40F00200C8640846C06C74
:103B400000F00200019000BF00BF00BF0846C06C3B
:103B500040F00400C8640846C06C00F00400019006
:103B600000BF00BF022002900320039000200490B9
:103B700002A94848FDF794FB4FF4804002900320CF
:103B800003900020049002A94348FDF789FB4FF4FD
:103B900000400290414803900020049002A93E4852
:103BA000FDF77EFB1320029001200390002004907B
:103BB000059002A94FF09040FDF772FB4FF487503B
:103BC00002900120039000200490059002A94FF07C
:103BD0009040FDF765FB4FF41060029001200390C8
:103BE00000200490059002A94FF09040FDF758FB8B
:103BF0004FF40040029001200390049000200590B3
:103C000002A94FF09040FDF74BFB012002902348A2
:103C100003900120049002A91E48FDF741FB0022F9
:103C200011460620FDF70EFE0620FDF7F7FD0022E7
:103C300011462820FDF706FE2820FDF7EFFD0022A3
:103C400040F613014FF09040FDF712FC01224FF4B3
:103C5000A0714FF09040FDF70BFC012211034FF0D3
:103C60009040FDF705FC012220214FF09040FDF728
:103C7000FFFB012280214FF09040FDF7F9FB01226C
:103C8000D1034FF09040FDF7F3FB07B000BD0000FB
:103C90000010024000040048000800480000211005
:103CA00010B51248124908601248486000211048B7
:103CB00081600121C1600021016141618161C161B7
:103CC0000162FDF74BFC08B1FCF7ECFD0021084850
:103CD000FDF7DAFB08B1FCF7E5FD00210448FDF72C
:103CE00008FC08B1FCF7DEFD10BD000000540040E8
:103CF0002C070020825ED01010B5124812490860CF
:103D00004FF48270486000210F4881604FF4E061F9
:103D1000C1600021016141614FF40071816138216E
:103D2000C16100210162416281620721C1620021FB
:103D3000016308214163FEF799FE08B1FCF7B2FD6B
:103D400010BD0000003C00407807002010B5164868
:103D5000164908604FF4E130486000211348816043
:103D6000C16001610C21416100218161C161016279
:103D700000200E4948620846FFF782FC08B1FCF7B4
:103D800091FD0A480068006840F010000749096882
:103D900008604FF4007206490448FFF7B9FD10208F
:103DA00002490968086210BD003801408C010020FA
:103DB0001C03002010B51648164908604FF4E13086
:103DC0004860002113488160C16001610C2141619C
:103DD00000218161C161016200200E4948620846EC
:103DE000FFF74EFC08B1FCF75DFD0A48006800686B
:103DF00040F010000749096808604FF40072064956
:103E00000448FFF785FD102002490968086210BDCB
:103E1000004400400C0200202405002000BFFEE703
:103E200000BFFEE7704700002DE9F04104460F4651
:103E300000255B48C06800F0030090B15848C06896
:103E400000F003002168884209D1206838B1544845
:103E5000C068C0F30210401C6168884233D001255D
:103E600031E02068012804D0022809D003281AD1A3
:103E70000DE04B48006800F0020000B9012514E095
:103E80004748006800F4806000B901250DE044480F
:103E9000006800F4003028B94148006800F4802030
:103EA00000B9012501E0012500BF00BF5DB9D4E9DB
:103EB0000010401E41EA00103949C96821F0730121
:103EC00008433749C860002D67D13548006820F0A5
:103ED000806033490860FDF7D1FA064606E0FDF739
:103EE000CDFA801B022801D9032505E02C48006883
:103EF00000F000600028F2D100BFC5BB67B9A06820
:103F00000002217B40EAC16025490969254A114028
:103F100008432349086120E0012F0FD1A068000267
:103F2000218A0122C2EB510140EA41501C49096932
:103F30001D4A114008431A4908610EE0A0680002BA
:103F4000217D0122C2EB510140EA41601449096917
:103F5000164A11400843124908611148006840F0B0
:103F600080600F490860FDF789FA064607E014E013
:103F7000FDF784FA801B022801D9032505E00848D3
:103F8000006800F000600028F2D000BF2DB904489E
:103F90000069A1690843024908612846BDE8F0812B
:103FA00000100240FF80FF07FF809FFFFF80FFF9A6
:103FB000F8B5044600262348806D00F0805018B103
:103FC000FDF7FCFC054616E000BF1E48806D40F082
:103FD00080501C4988650846806D00F08050009034
:103FE00000BF00BFFDF7EAFC05461648806D20F0D3
:103FF000805014498865B5F5007F07D1802C10D911
:10400000A02C01D902260CE001260AE0802C01D95F
:10401000032606E0802C01D1022602E0702C00D19C
:1040200001260948006820F007003043064908606F
:104030000846006800F00700B04201D00120F8BD3A
:104040000020FCE7001002400020024070B504464A
:1040500000262068C06800F04000B8B9701E2168D2
:10406000C860FDF70BFA054609E0FDF707FA401BAB
:10407000B0F57A7F03D90326032084F82100206855
:10408000C06800F0400008B9032EEED1304670BD84
:1040900070B5044600251748006820F080001549D7
:1040A0000860081F006800F0200040B92046FEF7B5
:1040B000C1FCE0B1032084F82100032517E00D487E
:1040C000001F006820F020000A49091F08602046F0
:1040D000FEF7B0FC18B1032084F821000325054841
:1040E000001F006840F020000249091F08602846B0
:1040F00070BD00000C28004010B50248FEF7F8FB28
:1041000010BD000038100020F8B504460E461546D4
:104110006068B0F5827F0DD1A068B0F5004F03D084
:10412000A068B0F5806F05D12068006820F04000DD
:10413000216808603346002280212046009500F067
:10414000E5F828B1206E40F0200020660320F8BD7D
:104150006068B0F5827F16D1A068B0F5004F03D03B
:10416000A068B0F5806F0ED1334600224FF4C061D5
:104170002046009500F054F828B1206E40F0200051
:1041800020660320E3E70020E1E7F8B504460E4689
:104190001546334600224FF4C0512046009500F0EA
:1041A0003FF828B1206E40F0200020660320F8BDC3
:1041B0003346002280212046009500F0A7F828B160
:1041C000206E40F0200020660320F0E733460022F6
:1041D0004FF4C0612046009500F022F828B1206E0F
:1041E00040F0200020660320E1E70020DFE7000028
:1041F000F8B506460D461446012000904FF47A7338
:10420000012269460548FEF7D2FD4FF47A73224633
:1042100029460248FEF7F8FC2046F8BD7807002042
:104220002DE9F84F04460D4616469846DDF82890CD
:10423000FDF724F9A0EB0900A8EB0007FDF71EF934
:1042400082462F480068C0EBC00000EB8000000DE4
:10425000784300904CE0B5F5C06F02D10EB92068EC
:10426000007B08F10100002842D0FDF707F9A0EB20
:104270000A00B84200D2A7BB2068406820F0E000E6
:10428000216848606068B0F5827F0DD1A068B0F504
:10429000004F03D0A068B0F5806F05D1206800689A
:1042A00020F0400021680860A06AB0F5005F0DD1E1
:1042B00000BF2068006820F4005021680860206872
:1042C000006840F400502168086000BF012084F8B5
:1042D0005D0000BF002084F85C0000BF032000F0F8
:1042E00011B8FFE7009800B900270098401E009021
:1042F000206880682840B042ADD10020EFE7000080
:104300000001002018BCBDE8E08F00002DE9F84F47
:1043100004460D4690461E46DDF82890FDF7AEF89F
:10432000A0EB0900371AFDF7A9F882462C4800686F
:10433000C0F3CB307843009045E0701C002842D099
:10434000FDF79CF8A0EB0A00B84200D2A7BB20689A
:10435000406820F0E000216848606068B0F5827F26
:104360000DD1A068B0F5004F03D0A068B0F5806F04
:1043700005D12068006820F0400021680860A06A2C
:10438000B0F5005F0DD100BF2068006820F4005038
:10439000216808602068006840F4005021680860C7
:1043A00000BF012084F85D0000BF002084F85C009D
:1043B00000BF032000F016B8FFE7009800B90027FF
:1043C0000098401E0090206880682840A84201D1D3
:1043D000012000E000204045AFD10020EAE70000C6
:1043E0000001002018BCBDE8E08F704710B5FDF754
:1043F00089F910BD10B5ACB044211BA8FBF731FF03
:10440000142116A8FBF72DFF542101A8FBF729FF63
:1044100018201B9001202090219000202290B02095
:104420002390002025901BA8FDF7D4FD08B1FCF7D0
:1044300039FA0F20169000201790189019901A90B2
:10444000042116A8FDF768FC08B1FCF72BFA184800
:104450000190002009900A900C904FF40070159084
:1044600001A8FDF7B3FA08B1FCF71CFA4FF400708D
:10447000FDF73EFA08B1FCF715FA0E48006840F463
:1044800000400C499039C1F89000FDF703FD4FF44E
:104490007A71B0FBF1F42046FEF7F6FE0420FEF739
:1044A000DFFE00221146501EFDF7CCF92CB010BDE6
:1044B00043000200901002401048006840F4700071
:1044C0000E4908600E48006840F001000C49086081
:1044D00000208860084600680A49084008490860CA
:1044E0008814C8600846006820F480200860002016
:1044F0008861C803014980390860704788ED00E091
:1045000000100240FFFFF6EA08B500BF1248806DB8
:1045100040F08050104988650846806D00F080505A
:10452000009000BF00BF0846806820F4004088600B
:104530000A480B490860002048607F2108488160D4
:10454000F921C160002101618161C161FEF7ECF9CF
:1045500008B1FCF7A7F908BD001002400028004090
:104560003810002008B51F48FEF7F8FA1E48FDF77E
:1045700057F81E48FFF7BEF81D48FFF7BBF840F696
:1045800013114FF09040FCF7F9FD4FF487514FF0B5
:104590009040FCF7F3FD4FF4C0414FF09040FCF722
:1045A000EDFD02211348FCF7E9FD4FF4804112486C
:1045B000FCF7E4FD00BF1148806D40F080500F49CA
:1045C00088650846806D00F08050009000BF00BFF5
:1045D00000224FF6FF710A48FEF702F90120FDF7AD
:1045E000CDF908BD780700202C0700208C010020A1
:1045F0000C0200200004004800080048001002409F
:104600003810002010B50248FEF75CFE10BD000017
:10461000EC0F002090F8241001F0010139B101687D
:10462000496821F40031826A11430268516090F8B0
:10463000241001F00201022907D10168496821F420
:104640008031C26A11430268516090F8241001F071
:104650000401042907D10168496821F48021026B13
:1046600011430268516090F8241001F008010829F4
:1046700007D10168496821F40041426B1143026887
:10468000516090F8241001F01001102907D1016841
:10469000896821F48051826B11430268916090F81F
:1046A000241001F02001202907D10168896821F434
:1046B0000051C26B11430268916090F8241001F020
:1046C0004001402913D10168496821F48011026C2E
:1046D000114302685160016CB1F5801F07D1016878
:1046E000496821F4C001426C11430268516090F89E
:1046F000241001F08001802907D10168496821F464
:104700000021826C114302685160704738B504463D
:104710000020E067FCF7B2FE05462068006800F064
:10472000080008280CD16FF07E402B4600224FF481
:1047300000110090204600F010FA08B1032038BDA7
:104740002068006800F0040004280CD16FF07E405F
:104750002B4600224FF480010090204600F0FDF926
:1047600008B10320EBE720206067A06700BF0020AE
:1047700084F8700000BF00BFE1E770B50546AC6A81
:104780000020A4F85A00A4F852002046FEF79AFE32
:1047900070BD2DE9F0410546AC6A666FA76F2068D1
:1047A000806800F08000802807D1212E05D10020EC
:1047B000A4F85200204600F062F82068806800F0FB
:1047C0004000402807D1222F05D10020A4F85A002C
:1047D000204600F033F8E06F40F01000E06720461C
:1047E000FEF770FEBDE8F08170B50546AC6A28683A
:1047F000006800F02000B0B90020A4F85A0020683A
:10480000006820F48070216808602068806820F0CB
:104810000100216888602068806820F040002168DD
:1048200088602020A0672046FFF7D2F870BD70B5E1
:104830000446A56A2846FFF7CCF870BD01680968F0
:1048400021F49071026811600168896821F001010A
:10485000026891602021816700210166704710B5D0
:1048600004462068006820F040002168086020208D
:104870006067002060662046FFF718F910BD0168E8
:10488000096821F0C001026811602021416770476A
:104890002DE9F84F044600200090A849206888427E
:1048A00000D100E000BF2169A068084361690843A6
:1048B000E16940EA010A20680068A149084040EA2D
:1048C0000A00216808602068406820F44050E168D0
:1048D000084321684860D4F818A0984920688842A5
:1048E00002D0206A40EA0A0A2068806820F430601A
:1048F00040EA0A002168886000BF92492068884227
:1049000016D19148006800F0030030B1012808D0AA
:10491000022804D0032808D105E0012607E002267A
:1049200005E0042603E0082601E0102600BF39E078
:1049300086492068884216D18348006800F00C0040
:1049400030B1042808D0082804D00C2808D105E08C
:10495000002607E0022605E0042603E0082601E021
:10496000102600BF1EE075492068884219D176489C
:10497000006800F4406048B1B0F5806F0AD0B0F52F
:10498000006F05D0B0F5406F08D105E0002607E0C4
:10499000022605E0042603E0082601E0102600BFF9
:1049A00000E0102600BF6549206888424AD136B130
:1049B000022E08D0042E08D0082E0DD109E0FDF7F4
:1049C0006FFA05460CE0624D0AE0FDF78DFA0546E8
:1049D00006E04FF4004503E000250120009000BFF1
:1049E00000BF002D0AD0606800EB4000A84203D849
:1049F00060680003A84202D20120009098E00222E1
:104A00000023D4F804C060461946FBF7DDFB4FF4E1
:104A10008072A5FB022387185941D4F804C062466E
:104A200000233846FBF7D0FB8146B9F5407F06D31B
:104A3000B9F5801F03D22068C0F80C9078E00120FF
:104A4000009075E0E069B0F5004F3CD1092E17D217
:104A5000DFE806F005090D160F1616161300FDF710
:104A60001FFA054610E0FDF72DFA05460CE0384D1B
:104A70000AE0FDF739FA054606E04FF4004503E089
:104A800000250120009000BF00BF7DB36800616871
:104A900000EB5100B0FBF1F01FFA80F9B9F1100FF3
:104AA0000ED3B9F5803F0BD24FF6F07009EA000B38
:104AB000C9F342004BEA000B2068C0F80CB037E0A5
:104AC0000120009034E0092E18D2DFE806F0050935
:104AD0000D17101717171400FDF7E2F9054611E03E
:104AE000FDF7F0F905460DE0194D0BE020E0FDF76C
:104AF000FBF9054606E04FF4004503E000250120E0
:104B0000009000BF00BF9DB1606805EB5000616878
:104B1000B0FBF1F01FFA80F9B9F1100F06D3B9F527
:104B2000803F03D22068C0F80C9001E00120009083
:104B3000002020666066009800F00CB800800040FD
:104B4000F369FFEF00380140881002400044004044
:104B50000024F40018BCBDE8E08F2DE9F0410446C4
:104B60000D4617469846069E45E0701C002842D028
:104B7000FCF784FCA0EB0800B04200D8B6B920686E
:104B8000006820F4D070216808602068806820F0F8
:104B900001002168886020206067A06700BF0020B6
:104BA00084F8700000BF0320BDE8F0812068006831
:104BB00000F00400F8B12068C069C0F3C020D0B193
:104BC0004FF40060216808622068006820F4D0700B
:104BD000216808602068806820F0010021688860F2
:104BE00020206067A067E06700BF002084F87000A5
:104BF00000BF0320D8E72068C0692840A84201D13F
:104C0000012000E00020B842AFD00020CCE7000037
:104C100010B509480068C069C0F3001038B1012020
:104C2000064981F804021020034909680862024815
:104C3000FEF74AFC10BD00008C0100201C03002080
:104C400010B509480068C069C0F3001038B10120F0
:104C5000064981F8040210200349096808620248E5
:104C6000FEF732FC10BD00000C02002024050020DD
:104C700000BFFEE70FB4054B10B503A9044A029824
:104C800000F0FAF810BC5DF814FB0000715E00083B
:104C90000401002002480068C0F3022070470000B1
:104CA0000CED00E010B5002804DB0A07130E054ADE
:104CB000135406E00A07140E034A00F00F031B1FEB
:104CC000D45410BD00E400E018ED00E002E008C894
:104CD000121F08C1002AFAD170477047002001E076
:104CE00001C1121F002AFBD1704700002DE9FF5FB0
:104CF00082B00021DDE90430020DDDF840B003434D
:104D000018D044F61050A2F2FF3242431514119805
:104D100001281FD0A5EB0B00401C5FEA000A4FF0F2
:104D200000064E4FDFF83891B046504615D5CAF10F
:104D3000000413E0119801244AA3012801D16FEA6D
:104D40000B010298119AC0E90031C0E9024206B095
:104D500000F08EB8CBF10000DFE704460021404AA6
:104D6000491842EB0450CDE9001012E0E00707D0EB
:104D700032463B4640464946FBF77EFA8046894626
:104D800032463B4610461946FBF776FA06460F4672
:104D90006410002CEAD1DDE90401DDE90023BAF159
:104DA000000F06DAFBF768FA42464B46FBF764FA57
:104DB00005E0FBF7D6FA42464B46FBF7D2FA04462B
:104DC0000E460022284BFBF70BFD03D84FF0FF30B7
:104DD000014607E00022254B20463146FBF739FC0F
:104DE000FBF7E6FC102409E0002C0ADB0A22002372
:104DF000FBF7EAF9039B30321A55641E50EA0102B0
:104E0000F2D1641C039AC4F111031444119A012ACB
:104E100003D0012208430DD10AE0084304D000204A
:104E20004FF0110B119072E7A3EB0B056D1E0DE017
:104E30005B4504DD4FF0000205F1010504E003DAF3
:104E40004FF00002A5F10105002AECD0029811995B
:104E5000C0E90231C0E9004579E7000000001440D4
:104E60000000F03F300000000000F0430000E03F91
:104E700030BCBDE8C09F00002DE9FF4F95B09A46B9
:104E8000884606460025EEE1252877D100242746EE
:104E9000F94A0121039400E0044316F8013F203B46
:104EA00001FA03F01042F7D130782A2811D06FF0C0
:104EB0002F033078A0F13002092A16D8039A44F063
:104EC000020402EB820203EB42021044761C0390C0
:104ED000EFE758F8042B0392002A03DA504244F417
:104EE0000054039044F00204761C30782E2816D12A
:104EF00016F8010F44F004042A280DD06FF02F0299
:104F00003078A0F13003092B09D807EB870302EBB7
:104F10004303C718761CF3E758F8047B761C3078F7
:104F20006C280FD006DC4C2817D068280DD06A28D2
:104F300014D104E0742810D07A280FD10DE044F485
:104F400000140AE044F4801401E044F44014727840
:104F5000824202D104F58014761C761C30786628D3
:104F60000BD013DC582877D009DC002875D04528F1
:104F7000F6D04628F4D047281AD193E118E06328E8
:104F800035D0642879D0652812D18BE1702873D090
:104F900008DC6728F1D069286FD06E280DD06F2803
:104FA00006D1ACE073282CD0752874D0782853D063
:104FB0005246179990476D1C54E1C4F302500228E1
:104FC00009D003280DD0D8F8001004280DD00D60AA
:104FD00008F1040846E1D8F80010EA17C1E90052C8
:104FE000F6E7D8F800100D80F2E70D70F0E718F83A
:104FF000041B8DF8001000208DF80100EB46012005
:1050000003E058F804BB4FF0FF3061074FF0000198
:1050100002D40DE009F101018946B9420FDA814558
:10502000F8DB1BF809100029F4D108E009F10101AF
:1050300089468142FADB1BF809100029F6D1039852
:105040005346A0EB090721463846179A00F083FA29
:10505000284400EB090507E044E008E10DE01BF8F7
:10506000010B524617999047B9F10109F7D25346FF
:1050700021463846179AF2E039E00A21C4F3025279
:105080004FF0000B0091022A06D058F8040BC1170C
:10509000032A09D00AE023E008F1070020F0070204
:1050A000F2E80201904605E000B2C117042A01D1DE
:1050B00040B2C117002906DA0A460021404261EBDE
:1050C00002012D2202E0220504D52B228DF80420B6
:1050D000012203E0E20701D02022F7E7914657E0E2
:1050E0000A2100E010214FF0000B00910BE010218D
:1050F0004FF0000B44F004040827009103E008205F
:105100004FF0000B0090C4F30252022A05D058F869
:10511000040B0021032A08D008E008F1070020F062
:105120000702F2E80201904603E080B2042A00D1AF
:10513000C0B24FF0000922072AD53278702A07D072
:10514000DDF800C08CF0100C5CEA0B0C05D00EE012
:1051500040228DF80420012208E050EA010306D025
:1051600030238DF804308DF8052002229146009BF3
:1051700083F0080353EA0B030AD150EA010201D17C
:10518000620705D530228DF804204FF001097F1EFB
:105190003278582A04D039A20C920CAA02920BE061
:1051A0003BA2F9E75B46009AFBF70EF80C9B9B5C71
:1051B000029A521E0292137050EA0102F2D1029832
:1051C00004A9081A00F1200B600702D524F48034EA
:1051D00000E001275F4502DDA7EB0B0000E00020A7
:1051E00000EB0B01009003984944401A0390E00340
:1051F00006D453462146179A039800F0ACF90544AB
:10520000002706E001A85246C05D179990476D1C23
:105210007F1C4F45F6DBE0030CD553462146179A19
:10522000039800F098F9054404E03020524617999D
:1052300090476D1C0099481E00900029F5DC08E09D
:105240000298029952460078491C0291179990479A
:105250006D1CBBF10001ABF1010BF1DC5BE100F077
:1052600068F90544761C307800287FF40DAE19B03B
:10527000284600F05BB900000928010030313233C4
:105280003435363738396162636465660000000082
:10529000303132333435363738394142434445466C
:1052A00000000000600700D4062708F1070020F086
:1052B0000700F0E80223804603F0004C5FEA0C0090
:1052C00001D097A009E0200501D596A005E0E007F0
:1052D00001D095A001E0AFF24C001390307823F09C
:1052E000004365280CD006DC452809D046281DD08F
:1052F00047287FD13BE0662818D067287AD136E06E
:105300000021112F01DB112000E0781CCDE9000104
:1053100004A90CA8FFF7EAFCDDE90D010C9A4FF097
:10532000000B07F10109109200914EE04FF0004090
:105330000097CDE9011004A90CA8FFF7D7FCDDE91F
:105340000D020C9B0F994FF0000B914610930092A9
:1053500011B9791C00EB0109B7EB090003D4C0F1C6
:10536000FF3B07F10109A9EB0700019042E0012F83
:1053700000DA01270021112F01DD112000E038465D
:10538000CDE9000104A90CA8FFF7B0FCDDE90D018F
:105390000C9A00914FF0000BB946109221070FD4E0
:1053A000009A4A4503DA914601E0A9F10109B9F1F1
:1053B000010F05DD109AA9F10101515C3029F4D0EB
:1053C000B84202DA10F1040F03DA0121CDE901102D
:1053D00010E0002803DC8344A9EB000102E0411C3B
:1053E000494500DD8946A0EB0B00401C01904FF0C1
:1053F00000400290200705D40198484502DB4FF099
:10540000FF30019000208DF84B0002980DF14B0702
:10541000B0F1004F25D002200C902B200D90029867
:1054200000280CDA404202902D200D9007E00A215E
:105430000298FBF745F83031029007F8011D0C99EE
:10544000481E0C900029F2DC02980028EFD1791E4A
:105450000D980870307800F0200040F0450007F803
:10546000020D11A8C01BC01D02901398007800B156
:10547000012000EB0901019801EBE0710298014461
:105480000398401A401E0390E00306D45346214679
:10549000179A039800F05FF805441398007818B144
:1054A0005246179990476D1CE00323D55346214679
:1054B000179A039800F04FF805441BE0BBF1000F6A
:1054C00007DB0098584504DD1098179910F80B0079
:1054D00001E0179930205246904701980BF1010BDB
:1054E000401E05F10105019004D12E205246179966
:1054F00090476D1CB9F10001A9F10109DEDC05E05E
:1055000017F8010B5246179990476D1C0299481ED7
:1055100002900029F4DC53462146179A03989EE630
:105520002D0000002B0000002000000030BCBDE872
:10553000C08F2DE9F041044600251E461746880419
:1055400004D405E039462020B0476D1C641EF9D50F
:105550002846BDE8F0812DE9F041044600251E46AD
:105560009046C80301D5302700E02027880404D5E1
:1055700005E041463846B0476D1C641EF9D5284603
:10558000BDE8F08110B52DED048B04462046FAF7F6
:1055900057FF41EC190B9FED0A0B53EC102BFAF758
:1055A0006BFE41EC180BFAF76FFF00EE100A9FED4F
:1055B000061AC0EE010AB0EE600ABDEC048B10BD05
:1055C0009A999999999923400000804670B50446AC
:1055D0000025002600224FF400414FF09040FBF7D9
:1055E00047FF00BF07E000220321084600F052F801
:1055F0000544701CC6B2A642F5DB0122D1034FF070
:105600009040FBF735FFB5FBF4F5284670BD000070
:10561000F0EE400A9FED1A1AB0EE410A19490978D6
:10562000C1B901EE100AB8EE411A9FED172AC1EE7A
:10563000021AB7EE001A31EEC11A61EE201A1349B0
:10564000097801EE101AB8EE411A81EE812AB0EE07
:10565000420A13E001EE100AB8EE411A21EE201AB8
:105660009FED0B2AC1EE021A0849097801EE101AC3
:10567000B8EE411A81EE812AB0EE420A704700006E
:1056800000000000180000200000004B190000205E
:105690000000804B2DE9FC4107460D4614460020D2
:1056A000009001908046002607F00700402141EA63
:1056B000C0008DF800002CB1002249024FF090404C
:1056C000FBF7D6FE691CCAB2E0B26946FEF790FD50
:1056D0002CB10122D1034FF09040FBF7C9FE012607
:1056E00005E01DF8060000EB0828701CC6B2681C17
:1056F0008642F6DB4046BDE8FC810000DFED0B0A88
:10570000B0EE600AA0F5000000EE900AF8EE600A24
:105710009FED071AC0EE811AB0EE610ADFED050AAF
:1057200070EE600AB0EE600A7047000000000000F2
:1057300000F02F45008088432DE9FC5F074689462D
:1057400015461C464FF0000B94F82A00284480B2FE
:10575000009000980190019800F0E0FE804600263D
:105760000CB1E06910B94FF0FF3B1FE015B96FF0C5
:105770000B0B1BE0A078012801D147F0800760786F
:10578000D4F81CC042463946009BE0478346BBF133
:10579000000F09D105E018F8060009F80600701C92
:1057A00086B2AE42F7DB01E06FF0010BDA4640460D
:1057B00000F06CFB504600F000B83CBCBDE8C09F58
:1057C0002DE9F05F80460D4614461E464FF0000955
:1057D000CB4608F007074FEA970A07F00307BAF12C
:1057E000000F01D04FF0030B6EB3012F04D0022F36
:1057F0000DD0032F23D115E015B94FF0FF3905E087
:1058000032462946584600F069FB81461AE014B931
:105810004FF0FF3905E032462146584600F086FC3D
:1058200081460FE004B115B94FF0FF3906E0334669
:1058300022462946584600F0C5FB814602E06FF03B
:10584000040900BF01E04FF0FF39484600F000B8FE
:1058500030BCBDE8C09F000070B5CCB00546002646
:10586000002426E02B4643AA49A90720FFF7A8FFFA
:10587000BDF8240120A921F81400BDF826110DF16E
:10588000AA0020F81410BDF8281135A820F814102B
:10589000BDF80C012DF81400BDF80E110DF12A0011
:1058A00020F81410BDF8101115A820F81410601C71
:1058B000C4B2152CD6DB152120A800F065FE00B27D
:1058C000ADF8180115210DF1AA0000F05DFE00B23F
:1058D000ADF81A01152135A800F056FE00B2ADF85A
:1058E0001C011521684600F04FFE00B2ADF8000122
:1058F00015210DF12A0000F047FE00B2ADF80201BB
:10590000152115A800F040FE00B2ADF80401BDF964
:105910001801FFF737FE144880ED000ABDF91A019F
:10592000FFF730FE114880ED000ABDF91C01FFF7BA
:1059300029FE0F4880ED000ABDF9000100F0AAFC25
:105940000C4880ED000ABDF9020100F0A3FC0A48F2
:1059500080ED000ABDF9040100F09CFC074880EDD1
:10596000000A4CB070BD00000000002004000020C0
:10597000080000200C00002010000020140000206F
:1059800070B52DED028B0025012211460020FFF796
:1059900081FEC5B205F00F05092D59D2DFE805F0EB
:1059A0000516273858585858490057A0FFF762F98C
:1059B0000A20FFF70BFE5A490860B1EE040A086896
:1059C000FFF726FE564880ED010A46E055A0FFF796
:1059D00051F90A20FFF7FAFD51498860B1EE040A37
:1059E0008868FFF715FE4E4880ED030A35E053A0A6
:1059F000FFF740F90A20FFF7E9FD49490861B1EED8
:105A0000040A0869FFF704FE454880ED050A24E012
:105A100050A0FFF72FF90A20FFF7D8FD4049886111
:105A2000B1EE040A8869FFF7F3FD3D4880ED070AEF
:105A300013E04EA0FFF71EF90A20FFF7C7FD384913
:105A40000862086AFFF75AFE354880ED090A04E04B
:105A500029464DA0FFF70EF900BF00BF002430E03B
:105A6000504800EBC40090ED010A2D4800EBC40043
:105A7000D0ED010AB4EE600AF1EE10FA1FD028480A
:105A800000EBC40090ED010A464800EBC40080ED35
:105A9000010A444800EBC40090ED010ADFED420A20
:105AA00020EE200A10EE101A0846FAF7DAFC41EC54
:105AB000180B53EC182B21463CA0FFF7DBF8601CB9
:105AC000C4B2042CCCDB374890ED090A1448D0ED61
:105AD000090AB4EE600AF1EE10FA12D090ED090A4C
