:020000040800F2
:1000000000090020A5010008C1340008472F00089E
:10001000BD3400086F0700084541000800000000DB
:10002000000000000000000000000000013A00088D
:100030007307000800000000C5340008033A0008F8
:10004000BF010008BF010008BF010008BF01000890
:10005000BF010008BF01000875070008BF010008C4
:10006000BF010008BF010008BF010008BF01000870
:10007000BF010008BF010008BF010008BF01000860
:10008000BF010008BF010008BF010008BF01000850
:10009000BF010008BF010008BF010008BF01000840
:1000A000BF010008BF010008BF010008BF01000830
:1000B000BF0100080000000000000000BF010008B0
:1000C000BF0100080000000000000000BF010008A0
:1000D0000000000025410008354100080000000034
:1000E0007F070008BF0100080000000000000000BA
:1000F0000000000000000000000000000000000000
:10010000000000000000000000000000BF01000827
:100110000000000000000000BF010008BF0100084F
:10012000BF010008BF010008BF010008BF010008AF
:10013000BF010008000000000000000000000000F7
:10014000BF010008BF010008BF010008BF0100088F
:10015000BF010008BF010008BF010008BF0100087F
:10016000BF010008BF010008BF0100080000000037
:10017000BF010008BF0100080000000000000000EF
:10018000BF010008BF010008BF010008DFF810D060
:1001900000F06CFA00480047815A0008AFF3008075
:1001A000000900200648804706480047FEE7FEE7B2
:1001B000FEE7FEE7FEE7FEE7FEE7FEE7FEE7FEE717
:1001C000B13A00088D0100082DE9F05F05460020D6
:1001D00092469B4688460646814640241BE02846B8
:1001E00041464746224600F06DF853465A46C01A2B
:1001F000914110D311461846224600F054F82D1AAA
:1002000067EB01084F4622460120002100F04BF821
:1002100017EB00094E41201EA4F10104DFDC484623
:1002200031462A46434600F000B830BCBDE8C09FC6
:10023000D2B201E000F8012B491EFBD27047002228
:10024000F6E710B513460A4604461946FFF7F0FFD5
:10025000204610BD00F0004230F000400AD0C10D31
:1002600001F56071C0F3160042EA0151C20840076F
:100270001143704700200146704730B50B460146D8
:1002800000202022012409E021FA02F59D4205D335
:1002900003FA02F5491B04FA02F52844151EA2F1DF
:1002A0000102F1DC30BD202A04DB203A00FA02F121
:1002B000002070479140C2F1200320FA03F3194354
:1002C00090407047202A04DB203A21FA02F00021F6
:1002D000704721FA02F3D040C2F120029140084356
:1002E000194670472DE9FE4F804681EA0300C00F92
:1002F0000C46009021F0004123F00045B8EB0200CD
:10030000A94105D24046214690461C460B4602466E
:1003100023F00040104347D0270DC7F30A00C3F372
:100320000A510290401A019040286BDAC3F313007F
:1003300040F4801B0098924620B10023D2EB030AC0
:1003400063EB0B0B01985946C0F140025046FFF792
:10035000AAFF06460D4650465946019A00F098F904
:1003600010EB08006141002487EA115284EAE77328
:100370001A4340D0009A62B3019A012A4FEA075209
:1003800015DC001B61EB02014FF0004202EA07524C
:10039000CDE90042001C41F5801132462B4600F0A9
:1003A00098F903B000F045B840462146F9E7001B34
:1003B00061EB0201001C41F5801300185B4120181D
:1003C000A2F5001747EB030140EAD570B6196D415D
:1003D00011E06D084FEA360645EAC0754FEA07524C
:1003E000001B61EB0201001C41F5801149084FEA36
:1003F00030000019514132462B4603B000F01CB8C2
:1004000000F058B90098012240000023D0EB02020E
:1004100063EBE073009821464FEAE074B8EB00000C
:1004200061EB0401E9E783F000435BE781F0004101
:1004300058E730BCBDE8C08F30BCBDE8C04FFFF707
:10044000DFBF2DE9FE4F81EA030404F0004421F0F0
:10045000004100944FF0000B23F0004350EA0104E8
:100460005ED052EA03045BD0C3F30A54C1F30A55C9
:100470002C44A4F2F3340194A0FB0254C1F3130101
:1004800041F48011C3F3130343F4801301FB0244CE
:1004900000FB034E840A970A44EA815447EA8357D3
:1004A000A4FB076802958D0A05FB07854FEA932C8C
:1004B00004FB0C542705029D4FEA065847EA1637FD
:1004C000B5EB08056EEB070C870E920E47EA811715
:1004D00042EA8312A7FB0201B6EB0B0164EB0004B6
:1004E0002B0D43EA0C335E1844EB1C50DA465146A0
:1004F000E7FB0201C5F313044FEA0B3343EA14533D
:100500004FEA0432019C43EA0603A4F10C0402946E
:10051000009CCDE900B400F0DCF803B000F003B8B3
:1005200000200146F9E730BCBDE8C08F2DE9F04D51
:1005300081EA030404F0004B21F0004514464FF01B
:10054000000A23F0004150EA050220D054EA0102DB
:100550001DD0C5F30A570246C5F31303C1F31300B8
:10056000C1F30A5640F4801543F48013A7EB060844
:10057000101BD64608F2FD3873EB050002D308F1D4
:10058000010801E092185B41B8F1000F03DA002086
:100590000146BDE8F08D00204FF4801106468446E8
:1005A0000EE0171B73EB050705D3121B63EB050366
:1005B00006434CEA010C49084FEA300092185B41AF
:1005C00050EA0107EDD152EA030012D082EA04009A
:1005D00083EA0501084305D0101BAB4106D2012276
:1005E000002306E000224FF0004302E06FF001021A
:1005F00053101AEB06004CEB085110EB0A0041EBCC
:100600000B01BDE8F04D00F055B8C1F30A52C1F33B
:10061000130140F2FF3341F480119A4202DA0020C4
:100620000146704740F233439A42A2F2334202DC61
:100630005242FFF747BEFFF736BE000030B5041E3A
:1006400071F1000404DB4FF00044404264EB01010F
:10065000141E73F1000405DB1C464FF000435242A8
:1006600063EB0403994208BF904230BD064C074D2E
:1006700006E0E06840F0010394E807009847103472
:10068000AC42F6D3FFF786FD186100083861000818
:10069000202A06DBCB17203A41FA02F043EAE07346
:1006A00006E041FA02F3D040C2F120029140084333
:1006B0001946704710B5141E73F1000408DA401C87
:1006C00041F1000192185B411A4301D120F0010071
:1006D00010BD2DE9F04D92469B4611B1B1FA81F261
:1006E00002E0B0FA80F220329046FFF7DCFD0446CB
:1006F0000F4640EA0A0041EA0B0153465A460843B6
:1007000013D0114653EA010019D0C8F140025046F7
:10071000FFF7D8FD05460E46504659464246FFF7BC
:10072000C2FD084305D0012004E020463946BDE85B
:10073000F08D0020054346EAE0762C4337430A98C3
:100740006305E40AA0EB08000022FD0A44EA4754CE
:100750000A3002D500200146E9E701051019694178
:10076000DDE9084500196941BDE8F04DA2E700BF89
:10077000FEE7704710B5012000F0B8F910BD10B5C4
:100780004FF4004000F0B2F910BD72B600BFFEE7B2
:1007900070B50446002594F82500022803D00420F3
:1007A000E063012520E02068006820F00E00216849
:1007B00008602068006820F001002168086094F853
:1007C000440000F01C0101208840216C4860012099
:1007D00084F8250000BF002084F8240000BFA06B2F
:1007E00010B12046A16B8847284670BD014609B963
:1007F000012070470868006820F001000A68106056
:10080000294A086890420BD2284A0868801A1422A4
:10081000B0FBF2F0800048642448083808640AE01D
:10082000214A0868801A1422B0FBF2F08000486464
:100830001D480838086400200A68106091F84400D8
:1008400000F01C02012090400A6C5060174A083AE0
:10085000086C90420DD1D0F8A80091F8442002F025
:100860001C030F229A409043104A083AC2F8A8008D
:100870000CE00D48A030006891F8442002F01C0301
:100880000F229A409043084AA03210600020C862AC
:10089000086348638863C86381F8250000BF81F856
:1008A000240000BF00BFA4E7080402400800024083
:1008B00010B5014609B9012010BD3E4B08689842A9
:1008C0000BD23D4B0868C01A1423B0FBF3F0800034
:1008D00048643948083808640AE0364B0868C01A8A
:1008E0001423B0FBF3F080004864324808380864F1
:1008F000022081F825000868026847F6F0708243FC
:10090000D1E9020318430B6918434B6918438B69FB
:100910001843CB6918430B6A184302430868026006
:100920008868B0F5804F3AD0234B083B086C98425A
:100930001BD1D0F8A80091F8443003F01C040F2319
:10094000A34098431C4BA033186091F8443003F047
:100950001C0348689840184B083BD3F8A83018434C
:10096000154B083BC3F8A80019E01248A0300068F6
:1009700091F8443003F01C040F23A34098430D4B1F
:10098000A033186091F8443003F01C034868984085
:10099000084BA0331B681843064BA0331860002097
:1009A000C863012081F82500002081F8240000BFE1
:1009B00082E70000080402400800024070B50446C7
:1009C00000F090F906462546681C10B104480078EE
:1009D000054400BF00F086F9801BA842FAD370BD21
:1009E0003C000020F0B502460B4600206CE00125DB
:1009F000854005EA0301002965D0364D860855F883
:100A0000264085072E0F0F25B5402C40B2F1904FA0
:100A100001D100250AE0304DAA4201D1012505E0AF
:100A20002E4DAA4201D1022500E007258607360F88
:100A3000B540A54221D12A4D2D688D43284E356001
:100A4000351D2D688D43361D3560351D2D688D4350
:100A5000361D3560351D2D688D43361D3560850783
:100A60002E0F0F2505FA06F41A4D860855F8265064
:100A7000A543184E870846F82750156847000326F7
:100A8000BE4035431560C60802F1200555F82650D2
:100A90004607F70E0F26BE40B543C70802F12006F1
:100AA00046F82750956847000326BE40B543956039
:100AB000556801268640B5435560D5684700032632
:100AC000BE40B543D560401C23FA00F5002D8ED101
:100AD000F0BD000008000140000400480008004884
:100AE00000040140012800D000BF704710B5044643
:100AF00004480068204020B1024804602046FFF707
:100B0000F1FF10BD1404014078B503460022C1E096
:100B1000012696400D6805EA0604002C72D04D6847
:100B2000012D08D04D68022D05D04D68112D02D041
:100B30004D68122D13D1986856000325B540A8437F
:100B40005600CD68B5402843986058680125954007
:100B5000A8430D79C5F30015954028435860D8681F
:100B600056000325B540A84356008D68B54028437C
:100B7000D8604D68022D02D04D68122D13D1D608D1
:100B800003F1200555F826005507EE0E0F25B54058
:100B9000A8435607F60E0D69B5402843D60803F161
:100BA000200545F82600186856000325B540A843DF
:100BB0000D7905F003055600B540284318604D68CF
:100BC00005F08055B5F1805F63D100BF344D2D6EC7
:100BD00045F00105324E356635462D6E05F00105AE
:100BE000009500BF00BF4FEAB635960855F82600BD
:100BF00095072E0F0F25B540A843B3F1904F02D1B2
:100C000000250BE045E0274DAB4201D1012505E071
:100C1000254DAB4201D1022500E007259607360F8E
:100C2000B5402843214D960845F82600204D2868F8
:100C3000A0434D6805F48035B5F5803F00D12043D1
:100C40001B4D28602D1D2868A0434D6805F4003514
:100C5000B5F5003F00D12043154D2D1D28602D1DF9
:100C60002868A0434D6805F48015B5F5801F00D1B4
:100C700020430F4D083528602D1D2868A0434D687E
:100C800005F40015B5F5001F00D12043084D0C35C3
:100C90002860521C0D68D540002D7FF439AF78BD17
:100CA000001002400004004800080048080001400D
:100CB00000040140024613690B400BB1012000E023
:100CC0000020704710B5426921EA020302EA0104DC
:100CD00043EA0443836110BD0AB1816100E081628F
:100CE0007047000001480068704700003400002091
:100CF00010B504460CB9012010BD94F8410028B984
:100D0000002084F84000204600F020FA242084F8D7
:100D100041002068006820F00100216808606068D8
:100D200020F07060216808612068806820F400402D
:100D300021688860E068012805D1A06840F400407F
:100D40002168886004E0A06840F40440216888605D
:100D5000E068022802D1800221684860206840686B
:100D600013490843216848602068C06820F40040A7
:100D70002168C860D4E904010843A16940EA012060
:100D80002168C860D4E90701084321680860206829
:100D9000006840F0010021680860002060642020A5
:100DA00084F841000020206384F8420000BFA3E7DC
:100DB000008000022DE9FC5F0446894692469B466E
:100DC000DDE90C780E9E94F8410020287ED117B101
:100DD000B8F1000F05D14FF400706064012000F0FD
:100DE000B9B800BF94F84000012801D10220F6E70D
:100DF000012084F8400000BFFFF774FF0546192367
:100E00000122D1032046009502F096F908B1012095
:100E1000E5E7222084F84100402084F842000020C9
:100E200060646762A4F82A8060635B465246494664
:100E30002046CDE9006502F0E9F830B100BF00209E
:100E400084F8400000BF0120C9E7608DFF280CD95D
:100E5000FF2020853D48009094F828204FF08073B3
:100E60004946204602F04EF90BE0608D2085374858
:100E7000009094F828204FF000734946204602F075
:100E800041F900BF3346002204212046009502F0BC
:100E900053F908B10120A2E72068406A616A08702E
:100EA000606A401C6062208D401E2085608D401E5F
:100EB0006085608D48B3208D38BB33460022802189
:100EC0002046009502F038F918B100E03CE001201E
:100ED00085E7608DFF280CD9FF2020850020009039
:100EE00094F828204FF080734946204602F00AF912
:100EF0000BE0608D20850020009094F828204FF0B2
:100F000000734946204602F0FDF8608D0028B9D1F3
:100F10002A463146204602F03EF908B101205EE73C
:100F200020202168C861206840680949084021687C
:100F30004860202084F84100002084F8420000BF6F
:100F400084F8400000BF4AE7022048E70024008000
:100F500000E800FE3CBCBDE8C09F00002DE9FC5F3E
:100F60000446894692469B46DDE90C780E9E94F82D
:100F7000410020287DD117B1B8F1000F05D14FF401
:100F800000706064012000F0B5B800BF94F8400024
:100F9000012801D10220F6E7012084F8400000BFBB
:100FA000FFF7A0FE054619230122D1032046009534
:100FB00002F0C2F808B10120E5E7212084F84100E1
:100FC000402084F84200002060646762A4F82A8010
:100FD00060635B46524649462046CDE9006502F013
:100FE00053F830B100BF002084F8400000BF01205A
:100FF000C9E7608DFF280CD9FF20208500200090D4
:1010000094F828204FF080734946204602F07AF881
:101010000BE0608D20850020009094F828204FF090
:1010200000734946204602F06DF800BF2A4631465B
:10103000204602F0DBF808B10120A4E7606A0078DE
:1010400021688862606A401C6062608D401E608515
:10105000208D401E2085608D40B3208D30BB3346EF
:10106000002280212046009502F066F810B1012090
:1010700089E73AE0608DFF280CD9FF202085002009
:10108000009094F828204FF080734946204602F0E3
:1010900039F80BE0608D20850020009094F828201E
:1010A0004FF000734946204602F02CF8608D00286E
:1010B000BCD12A463146204602F06DF808B1012025
:1010C00061E720202168C86120684068084908401D
:1010D00021684860202084F84100002084F8420004
:1010E00000BF84F8400000BF4DE702204BE700003E
:1010F00000E800FE3CBCBDE8C09F000038B50446D7
:101100000F49206888421AD10E48806D20F40010E3
:101110000C49886500BF0846C06C40F00200C864F6
:101120000846C06C00F00200009000BF00BF4021E4
:101130000548FFF757FC80210348FFF753FC38BDF3
:1011400000540040001002400004004810B586B072
:101150000446142101A8FFF772F818492068884254
:1011600029D100BF1648C06C40F002001449C86481
:101170000846C06C00F00200009000BF00BFC02015
:10118000019012200290012003900020049004207E
:10119000059001A90B48FFF7B7FC00BF0848806D18
:1011A00040F40010064988650846806D00F4001080
:1011B000009000BF00BF06B010BD0000005400400A
:1011C0000010024000040048034800680349097801
:1011D0000844014908607047340000203C000020AA
:1011E00010B50024032000F0D1F8002000F008F82A
:1011F00008B1012401E000F02FF8204610BD0000E6
:1012000070B50446002511480078D8B10F48007821
:101210004FF47A71B1FBF0F00D490968B1FBF0F6BB
:10122000304601F003FC58B9102C07D200222146A9
:10123000501E00F069F80748046004E0012502E050
:10124000012500E00125284670BD00003C0000207B
:10125000400000203800002008B500BF0E48006E96
:1012600040F001000C4908660846006E00F00100DD
:10127000009000BF00BF00BF0846806D40F0805066
:1012800088650846806D00F08050009000BF00BF68
:10129000052000F07BF808BD0010024010B50146A3
:1012A0000846002817DB00F01F0301229A400B4B71
:1012B000440943F8242000BF00BF00BFBFF34F8F95
:1012C00000BF00BF00BF00BF00BF00BFBFF36F8FF4
:1012D00000BF00BF00BF00BF10BD000080E100E004
:1012E0000146084600280DDB00BF00BF00F01F03C9
:1012F00001229A4043099B0003F1E023C3F8002137
:1013000000BF00BF00BF70472DE9F05F80460D466B
:101310001646002702F028FF074639462A4633467C
:1013200001F00700C0F1070ABAF1040F02D94FF02B
:10133000040A01E0C0F1070AD14600F1040ABAF13B
:10134000070F02D24FF0000A01E0A0F1030AD446D1
:101350004FF0010A0AFA09FAAAF1010A0AEA020A96
:101360000AFA0CFA4FF0010B0BFA0CFBABF1010B74
:101370000BEA030B4AEA0B042146404602F0FCFE4E
:1013800000F000B830BCBDE8C09F000000BF00F016
:101390000702064B19684FF6FF031940044B0B4335
:1013A00043EA0221014B196000BF70470CED00E0D9
:1013B0000000FA050246B2F5007F2AD11D480068F8
:1013C00000F4C060B0F5007F32D01A48006820F405
:1013D000C06040F40070174B186017480068322353
:1013E0005843164BB0FBF3F0411C00E0491E114876
:1013F000406900F48060B0F5806F01D10029F5D11B
:101400000C48406900F48060B0F5806F10D1032073
:1014100070470848006800F4C060B0F5806F07D0DE
:101420000448006820F4C06040F48060014B1860FC
:101430000020EDE7007000404000002040420F0017
:101440000D49096821F00701891C0B4A11600B49FD
:10145000096841F00401094A1160012801D130BF37
:1014600002E040BF20BF20BF0449096821F0040109
:10147000024A1160704700000070004010ED00E06B
:101480000248006800F4C06070470000007000402F
:101490000348006840F4807001490860704700000C
:1014A000007000402DE9F84304460025A846208836
:1014B00000F40060B0F5006F26D1E06B68B1B0F5C4
:1014C000000F03D0B0F5400F0ED10CE0C648C06845
:1014D00040F48030C449C86008E00021201D01F0BC
:1014E000F3FF054602E001E0012500BF00BF55B94A
:1014F000BD488830006820F44000E16B0843BA49D9
:10150000C1F8880000E0A846206800F40030B0F57B
:10151000003F75D14FF00009B348806D012121EAE9
:10152000107078B100BFB048806D40F08050AE4977
:1015300088650846806D00F08050009000BF00BFB5
:101540004FF00109A948006840F48070A74908607D
:10155000FFF7C8FB074606E0FFF7C4FBC01B0228E5
:1015600001D9032505E0A148006800F48070002837
:10157000F2D000BF7DBB9C489030006800F44076FC
:10158000CEB1206DB04216D097489030006820F45C
:1015900040769548D0F8900040F480309249C1F8E8
:1015A00090000846D0F8900020F48030C1F89000F8
:1015B0000846C0F8906006F00100A8B1FFF792FB62
:1015C000074609E0FFF78EFBC01B41F288318842D5
:1015D00002D9032507E016E083489030006800F048
:1015E00002000028EED000BF5DB97F48903000684F
:1015F00020F44070216D08437B49C1F8900003E05E
:101600000CE0A84600E0A846B9F1010F05D17648E4
:10161000806D20F080507449886500BF207800F00C
:10162000010048B170488830006820F00300216A4A
:1016300008436D49C1F88800207800F002000228B4
:1016400009D169488830006820F00C00616A0843BD
:101650006549C1F88800207800F02000202809D1D1
:1016600061488830006820F44060A16A08435E4900
:10167000C1F88800208800F40070B0F5007F09D11F
:1016800059488830006820F44020616B084356496F
:10169000C1F88800208800F48060B0F5806F09D11F
:1016A00051488830006820F44010A16B08434E492F
:1016B000C1F88800207800F04000402809D14A484D
:1016C0008830006820F44050E16A08434649C1F878
:1016D0008800208800F48070B0F5807F09D14248EE
:1016E0008830006820F44030216B08433E49C1F83F
:1016F0008800208800F40050B0F5005F1FD13A4800
:101700008830006820F04060216C084336498831F9
:101710000860206CB0F1006F06D13348C06840F417
:1017200080103149C8600AE0206CB0F1806F06D1AA
:101730000121201D01F0C8FE054605B1A84620681C
:1017400000F48020B0F5802F1FD127488830006832
:1017500020F04060616C0843234988310860606C68
:10176000B0F1006F06D12048C06840F480101E49D7
:10177000C8600AE0606CB0F1806F06D10121201DC5
:1017800001F0A2FE054605B1A846208800F480407D
:10179000B0F5804F14D114488830006820F04050D4
:1017A000A16C0843104988310860A06CB0F1805FDB
:1017B00006D10221201D01F087FE054605B1A8468D
:1017C000208800F40040B0F5004F09D10648883069
:1017D000006820F08040E16C08430349C1F88800AC
:1017E0004046BDE8F8830000001002400070004051
:1017F0002DE9F04104460D4614B90120BDE8F08101
:101800005548006800F00700A8420ED25248006810
:1018100020F007002843504908600846006800F09F
:101820000700A84201D00120E8E7207800F001007D
:10183000002840D06068032806D14848006800F0BE
:101840000070D8B90120D9E76068022806D1434862
:10185000006800F4003088B90120CFE7606830B933
:101860003E48006800F0020040B90120C6E73B484E
:10187000006800F4806008B90120BFE7374880683D
:1018800020F003006168084334498860FFF72AFAB2
:10189000064608E0FFF726FA801B41F288318842AD
:1018A00001D90320AAE72D48806800F00C00616888
:1018B000B0EB810FEED1207800F00200022807D1B2
:1018C0002648806820F0F000A1680843234988601A
:1018D0002148006800F00700A8420ED91E480068A1
:1018E00020F0070028431C4908600846006800F003
:1018F0000700A84201D0012080E7207800F0040012
:10190000042807D11548806820F4E060E1680843A6
:1019100012498860207800F00800082808D10F4894
:10192000806820F46050216940EAC1000B4988605A
:1019300000F046F809498968C1F30311084A515C6F
:1019400001F01F01C8400749086007480068FFF719
:1019500057FC0746384651E700200240001002407D
:10196000D0600008400000203800002001480068D6
:10197000704700004000002000B5FFF7F7FF054961
:101980008968C1F30221044A515C01F01F01C8407B
:1019900000BD000000100240E060000800B5FFF745
:1019A000E5FF05498968C1F3C221044A515C01F091
:1019B0001F01C84000BD000000100240E0600008A8
:1019C000F0B500230020DFF8D4C0DCF808C00CF02C
:1019D0000C01DFF8C8C0DCF80CC00CF0030719B12B
:1019E0000C291ED1012F1CD1DFF8B0C0DCF800C0DB
:1019F0000CF0080CBCF1000F06D1DFF8A0C0DCF839
:101A000094C0CCF3032305E0DFF890C0DCF800C0FD
:101A1000CCF30313DFF888C05CF8233041B91846D3
:101A200006E0042901D11F4802E0082900D11E4820
:101A30000C2932D1DFF864C0DCF80CC00CF00304D0
:101A4000012C09D0022C02D0032C04D101E0154A4C
:101A500004E0154A02E000BF1A4600BF00BFDFF8ED
:101A60003CC0DCF80CC0CCF3021C0CF10106DFF822
:101A70002CC0DCF80CC0CCF3062C0CFB02FCBCFB2D
:101A8000F6F2DFF818C0DCF80CC0CCF3416C0CF1B6
:101A9000010C4FEA4C05B2FBF5F0F0BD001002401E
:101AA000E86000080024F40000127A002DE9F843F1
:101AB000044614B90120BDE8F883F948806800F0B5
:101AC0000C06F748C06800F00307207800F010000B
:101AD000102877D11EB10C2E76D1012F74D1F04889
:101AE000006800F0020018B1A06908B90120E2E71F
:101AF000EB48216A006800F0080020B1E84800685F
:101B000000F0F00005E0E6489430006800F47060F2
:101B1000000981421FD9206A01F09AFD08B1012015
:101B2000C9E700BFDE48006840F00800DC490860F3
:101B30000846006820F0F000216A0843D849086090
:101B400000BF0846406820F47F40E16940EA012078
:101B5000D34948601FE000BFD148006840F008004A
:101B6000CF4908600846006820F0F000216A084369
:101B7000CB49086000BF0846406820F47F40E16917
:101B800040EA0120C64948602EB9206A01F060FD94
:101B900008B101208FE7FFF713FFC1498968C1F33E
:101BA0000311C04A515C01F01F01C840BE490860E2
:101BB000BE480068FFF724FB8046B8F1000F4ED006
:101BC000404678E74BE0FFE7A06980B3B44800687F
:101BD00040F00100B2490860FFF784F8054606E0CE
:101BE000FFF780F8401B022801D9032063E7AC48C7
:101BF000006800F002000028F2D000BFA84800688A
:101C000040F00800A64908600846006820F0F0008F
:101C1000216A0843A249086000BF0846406820F4D2
:101C20007F40E16940EA01209D49486017E0FFE7F5
:101C30009B48006820F0010099490860FFF752F8BE
:101C4000054606E0FFF74EF8401B022801D90320A5
:101C500031E79348006800F002000028F2D12078B4
:101C600000F0010000285CD0082E03D00C2E0AD111
:101C7000032F08D18A48006800F4003088B36068F8
:101C800078BB012017E700BF6068B0F5803F06D140
:101C90008348006840F48030814908601AE0606839
:101CA000B0F5A02F0BD17E48006840F480207C491D
:101CB00008600846006840F4803008600AE0784810
:101CC000006820F48030764908600846006820F4F7
:101CD0008020086000BF606890B1FFF703F80546F8
:101CE00007E01EE0FEF7FEFF401B642801D9032039
:101CF000E1E66B48006800F400300028F2D010E004
:101D0000FEF7F0FF054606E0FEF7ECFF401B6428F7
:101D100001D90320CFE66248006800F400300028B3
:101D2000F2D1207800F00200022852D1042E03D014
:101D30000C2E14D1022F12D15948006800F4806093
:101D400018B1E06808B90120B5E65548406820F0B0
:101D5000FE40217C40EA01605149486039E0E0687A
:101D600000B34F48006840F480704D490860FEF7AA
:101D7000B9FF054606E0FEF7B5FF401B022801D972
:101D8000032098E64648006800F480600028F2D0FE
:101D90004348406820F0FE40217C40EA0160404911
:101DA000486016E03E48006820F480703C490860B6
:101DB000FEF798FF054606E0FEF794FF401B022859
:101DC00001D9032077E63648006800F480600028D7
:101DD000F2D1207800F00800082836D16069D0B12F
:101DE0002F489430006840F001002D49C1F894005C
:101DF000FEF778FF054606E0FEF774FF401B022859
:101E000001D9032057E626489430006800F002000C
:101E10000028F1D019E022489430006820F0010039
:101E20001F49C1F89400FEF75DFF054606E0FEF786
:101E300059FF401B022801D903203CE61848943082
:101E4000006800F002000028F1D1207800F00400C2
:101E5000042872D14FF000091148806D00F08050C5
:101E600078B900BF0E48806D40F080500C498865FD
:101E70000846806D00F08050009000BF00BF4FF01A
:101E800001090B48006800F4807000BB0848006836
:101E900040F4807006490860FEF724FF054610E014
:101EA00000100240D06000084000002038000020F0
:101EB00000700040FEF716FF401B022801D90320E6
:101EC000F9E5D048006800F480700028F2D000BF27
:101ED000A068012808D1CC48006840F00100CA4938
:101EE0009039C1F8900021E0A06805280FD1C648BC
:101EF000006840F00400C4499039C1F890000846D9
:101F0000D0F8900040F00100C1F890000EE0BE480B
:101F1000006820F00100BC499039C1F890000846E3
:101F2000D0F8900020F00400C1F8900000BFA06835
:101F3000A0B1FEF7D7FE054609E02EE0FEF7D2FE7F
:101F4000401B41F28831884201D90320B3E5AE48F5
:101F5000006800F002000028F0D012E0FEF7C2FE98
:101F6000054608E0FEF7BEFE401B41F2883188427C
:101F700001D903209FE5A448006800F00200002872
:101F8000F0D1B9F1010F07D19F489038806D20F052
:101F900080509D499039886500BF207800F020006E
:101FA000202838D1606AD8B197480830006840F0DE
:101FB000010095499039C1F89800FEF793FE054657
:101FC00006E0FEF78FFE401B022801D9032072E5D0
:101FD0008D480830006800F002000028F1D01AE0B7
:101FE00089480830006820F0010087499039C1F81D
:101FF0009800FEF777FE054606E0FEF773FE401BED
:10200000022801D9032056E57F480830006800F017
:1020100002000028F1D1A06A00287DD0A06A022821
:102020007BD179489038C76807F00301E06A8142A4
:1020300025D107F07001206B401EB1EB001F1ED1AF
:1020400007F4FE41606BB1EB002F18D107F0784127
:102050003820005DB1EBC06F11D107F4C001A08F33
:102060000122C2EB5000B1EB405F08D107F0C06124
:102070004020005DC2EB5000B1EB406F66D00C2EEB
:1020800062D061489038006800F0806008B101209B
:1020900011E55D489038006820F080705A49903909
:1020A0000860FEF71FFE054606E0FEF71BFE401B1C
:1020B000022801D90320FEE453489038006800F05C
:1020C00000700028F1D1D4E90B10401E41EA001144
:1020D000606B41EA0021A08F0122C2EB500041EA6F
:1020E00040514020005DC2EB500041EA4061382081
:1020F000005D41EAC06044499039C968434A1140D3
:10210000084341499039C8600846006840F0807033
:1021100008600846C06801E05BE03DE040F0807088
:10212000C860FEF7DFFD054606E0FEF7DBFD401B5D
:10213000022801D90320BEE433489038006800F03B
:1021400000700028F1D05AE00120B4E42E48903805
:10215000006800F00070E0BB2B489038006840F049
:1021600080702949903908600846C06840F0807046
:10217000C860FEF7B7FD054606E0FEF7B3FD401B5D
:10218000022801D9032096E41F489038006800F027
:1021900000700028F1D032E00C2E2ED01A48903872
:1021A000006820F08070184990390860084600687F
:1021B00000F0006020B90846C06820F00300C86045
:1021C00011489038C068124908400F499039C860DA
:1021D00000E014E0FEF786FD054606E0FEF782FD0E
:1021E000401B022801D9032065E4074890380068A5
:1021F00000F000700028F1D101E001205BE4002034
:1022000059E4000000700040901002408C809D0155
:10221000FFFFEEFE70B504460CB9012070BD606A88
:1022200038B96068B0F5827F00D105E00021E16136
:1022300002E00021216161610021A16294F85D004A
:1022400028B9002084F85C00204600F073F80220D2
:1022500084F85D002068006820F040002168086074
:10226000E068B0F5E06F01D9002501E04FF480553A
:10227000E068B0F5706F05D0E068B0F5E06F01D0B0
:102280000021A162A08800F48270218901F4044138
:102290000843217C01F002010843217D01F0010186
:1022A0000843218B01F400710843217F01F03801BC
:1022B00008432021095D01F080010843218D01F4CC
:1022C00000510843216808600421A06901EA104018
:1022D00094F8241001F01001084394F8341001F030
:1022E00008010843A18901F47061084305F4805195
:1022F00008432168486000202066012084F85D00C2
:1023000000208BE710B5044607492068884209D1B0
:102310000648806D20F4004004498865382104484F
:10232000FEF760FB10BD0000003C004000100240C2
:102330000004004810B586B00446142101A8FDF73A
:102340007EFF17492068884228D100BF1548806D5C
:1023500040F40040134988650846806D00F4004051
:10236000009000BF00BF00BF0846C06C40F00200F4
:10237000C8640846C06C00F00200009000BF00BFB7
:102380003820019002200290012003900220049046
:102390000620059001A90448FEF7B6FB06B010BD63
:1023A000003C004000100240000400482DE9F843C2
:1023B0000446884616461D464FF000096068B0F591
:1023C000827F0DD1A06858B9042084F85D0033469F
:1023D000424641462046009500F0B3F9BDE8F88337
:1023E00000BF94F85C00012801D10220F6E701202B
:1023F00084F85C0000BFFEF775FC074694F85D00AA
:10240000012802D04FF0020999E0B8F1000F00D086
:1024100016B94FF0010992E0042084F85D00002015
:102420002066C4F84080A4F84460A4F84660A06325
:10243000A087E087E0642065E068B0F5E06F06D92A
:102440002068406820F480502168486005E02068DA
:10245000406840F4805021684860A068B0F5004FA3
:102460000BD12068006820F04000216808602068D7
:10247000006820F48040216808602068006800F04F
:102480004000402805D02068006840F040002168E6
:102490000860E068B0F5E06F22D81CE02068806832
:1024A00000F0010060B12068007B216C0870206C96
:1024B000401C2064B4F84600401EA4F846000AE020
:1024C000FEF710FCC01BA84201D3681C00B915B967
:1024D0004FF0030933E0B4F846000028DED121E0D4
:1024E0001CE02068806800F0010060B12068C068CE
:1024F000216C0880206C801C2064B4F84600401ECB
:10250000A4F846000AE0FEF7EDFBC01BA84201D389
:10251000681C00B915B94FF0030910E0B4F8460083
:102520000028DED13A462946204601F0DFF808B1FE
:1025300020202066206E08B14FF0010900BF012065
:1025400084F85D0000BF002084F85C0000BF4846AE
:1025500044E72DE9F84F0446884616461D464FF0DD
:10256000000A00BF94F85C00012802D1022000F0AC
:10257000E5B8012084F85C0000BFFEF7B3FB074616
:10258000B14694F85D00012802D04FF0020ACBE07A
:10259000B8F1000F00D016B94FF0010AC4E00320D3
:1025A00084F85D0000202066C4F83880A687E6879E
:1025B0002064A4F84400A4F846002065E064A06804
:1025C000B0F5004F0BD12068006820F04000216872
:1025D00008602068006840F4804021680860206836
:1025E000006800F04000402805D02068006840F0F6
:1025F000400021680860E068B0F5E06F2FD960689E
:1026000010B1B9F1010F09D1A06B00882168C86031
:10261000A06B801CA063E08F401EE0871BE0206859
:10262000806800F0020002280AD1A06B00882168AF
:10263000C860A06B801CA063E08F401EE0870AE0AA
:10264000FEF750FBC01BA84201D3681C00B915B9A6
:102650004FF0030A68E0E08F0028E0D14AE06068AC
:1026600010B1B9F1010F17D1E08F01280AD9A06B81
:1026700000882168C860A06B801CA063E08F801E6A
:10268000E08709E0A06B007821680873A06B401C0C
:10269000A063E08F401EE08729E02068806800F09A
:1026A0000200022818D1E08F01280AD9A06B008807
:1026B0002168C860A06B801CA063E08F801EE0874B
:1026C00015E0A06B007821680873A06B401CA06324
:1026D000E08F401EE0870AE0FEF704FBC01BA84223
:1026E00001D3681C00B915B94FF0030A1CE0E08F54
:1026F0000028D2D13A462946204601F038F808B1E0
:1027000020202066A06850B900BF002000902068FB
:10271000C068009020688068009000BF00BF206EF5
:1027200008B14FF0010A00BF012084F85D0000BF2E
:10273000002084F85C0000BF504618E718BCBDE8D4
:10274000E08F2DE9FF5F0446894692461D460E9EA6
:10275000012001900020009000BF94F85C00012847
:1027600003D1022004B000F04AB9012084F85C00D3
:1027700000BFFEF7B7FA074694F85D000290606864
:102780000390A846AB46029801280BD00398B0F5F9
:10279000827F04D1A06810B90298042802D00220D8
:1027A000009022E1B9F1000F03D0BAF1000F00D080
:1027B00015B90120009018E194F85D00042802D0BA
:1027C000052084F85D0000202066C4F840A0A4F82D
:1027D0004650A4F84450C4F83890E587A587E064D3
:1027E0002065E068B0F5E06F02D8BBF1010F06D9B3
:1027F0002068406820F480502168486005E0206827
:10280000406840F48050216848602068006800F00B
:102810004000402805D02068006840F04000216852
:102820000860E068B0F5E06F4ED9606810B1B8F1AB
:10283000010F09D1A06B00882168C860A06B801CC3
:10284000A063E08F401EE08736E02068806800F0DB
:102850000200022810D1E08F70B1019801280BD13D
:10286000A06B00882168C860A06B801CA063E08F0B
:10287000401EE087002001902068806800F0010081
:1028800080B1B4F8460068B12068C068216C088047
:10289000206C801C2064B4F84600401EA4F846005A
:1028A00001200190FEF71EFAC01BB04204D3701C39
:1028B00010B10320009098E0E08F0028C5D1B4F853
:1028C00046000028C1D185E0606810B1B8F1010F61
:1028D00017D1E08F01280AD9A06B00882168C86051
:1028E000A06B801CA063E08F801EE08709E0A06BD6
:1028F000007821680873A06B401CA063E08F401E25
:10290000E08760E02068806800F0020002281ED1A5
:10291000E08FE0B10198012819D1E08F01280AD990
:10292000A06B00882168C860A06B801CA063E08F4A
:10293000801EE08709E0A06B007821680873A06B17
:10294000401CA063E08F401EE087002001902068BB
:10295000806800F0010058B3B4F8460040B3B4F802
:102960004600012816D92068C068216C0880206CB8
:10297000801C2064B4F84600801EA4F84600B4F819
:102980004600012812D82068406840F48050216831
:1029900048600BE02068007B216C0870206C401CB4
:1029A0002064B4F84600401EA4F8460001200190BF
:1029B000FEF798F9C01BB04201D3701C00B916B9DC
:1029C0000320009011E0E08F00289BD1B4F846006E
:1029D000002897D13A463146204600F0C8FE18B18B
:1029E000012000902020206600BF012084F85D00B7
:1029F00000BF002084F85C0000BF0098B2E630BC45
:102A0000BDE8C09F042808D14FF0E021096941F0DA
:102A100004014FF0E022116107E04FF0E021096965
:102A200021F004014FF0E0221161704770B50446B7
:102A30002546681EB0F1807F01D301200FE0681E9B
:102A40004FF0E02148610F214FF0FF3001F094FB7F
:102A500000204FF0E021886107200861002070BD50
:102A6000704770472DE9F04704462068C569206823
:102A700006682068876840F60F0005EA0008B8F18C
:102A8000000F0CD105F0200048B106F0200030B155
:102A9000206E10B12046216E8847BDE8F087B8F15E
:102AA000000F7DD007F0010018B95A4830400028C7
:102AB000F7D005F0010048B106F4807030B1012074
:102AC00021680862E06F40F00100E06705F0020055
:102AD00048B107F0010030B1022021680862E06FC0
:102AE00040F00400E06705F0040048B107F0010081
:102AF00030B1042021680862E06F40F00200E06716
:102B000005F0080060B106F0200010B907F00100E0
:102B100030B1082021680862E06F40F00800E067EB
:102B200005F4006050B106F0806038B14FF40060E9
:102B300021680862E06F40F02000E067E06F80B33A
:102B400005F0200038B106F0200020B1206E10B151
:102B50002046216E8847D4F87C902068806800F079
:102B60004000402802D009F0280030B3204601F090
:102B7000F8F82068806800F04000402819D12068EB
:102B8000806820F0400021688860E06E68B12248CB
:102B9000E16E8863E06EFDF7FBFD10B1E06E01E0D1
:102BA00011E00FE0816B88470CE02046FFF759FFEA
:102BB00008E02046FFF755FF04E02046FFF751FFED
:102BC0000020E06769E705F4801050B107F4800049
:102BD00038B14FF48010216808622046FFF740FFAB
:102BE0005BE705F0800040B106F0800028B1606E20
:102BF00010B12046616E88474FE705F0400030B1C4
:102C000006F0400018B1204601F0BCF845E700BFCF
:102C100043E70000200100044B3D000810B50446C6
:102C20000CB9012010BDA06900B100E000BF606FC9
:102C300028B9002084F87000204600F05FF82420B6
:102C400060672068006820F0010021680860204665
:102C500001F0A8F8012800D1E4E7606A10B120462D
:102C600000F0C0FF2068406820F490402168486070
:102C70002068806820F02A00216888602068006849
:102C800040F0010021680860204601F027F8C9E7FC
:102C900010B5044615492068884210D11448006ECA
:102CA00020F4804012490866C0211248FDF79AFEC0
:102CB000E06EFDF79BFD2520FEF7F0FA14E00E49CB
:102CC0002068884210D10A48806D20F400300849FD
:102CD00088650C214FF09040FDF784FEE06EFDF713
:102CE00085FD2620FEF7DAFA10BD0000003801400D
:102CF00000100240000400480044004010B586B0B7
:102D00000446142101A8FDF79AFA52492068884226
:102D10004DD100BF5048006E40F480404E490866D7
:102D20000846006E00F48040009000BF00BF00BF66
:102D30000846C06C40F00100C8640846C06C00F052
:102D40000100009000BF00BF4FF4C060019002205E
:102D5000029000200390022004900720059001A912
:102D60004FF09040FDF7D0FE3C483D4908600220FE
:102D7000486000213A488160C160802101610021E2
:102D800041618161C1610162FDF792FD08B1FDF70A
:102D9000FCFC00BF3248E066846200BF002211469E
:102DA0002520FEF7B1FA2520FEF79AFA50E02D49CA
:102DB000206888424CD100BF2748806D40F4003025
:102DC000254988650846806D00F40030009000BFFA
:102DD00000BF00BF0846C06C40F00100C864084650
:102DE000C06C00F00100009000BF00BF0C200190FB
:102DF00002200290002003900220049007200590FA
:102E000001A94FF09040FDF77FFE14481430164999
:102E1000086002204860002113488160C160802161
:102E20000161002141618161C1610162FDF740FDE5
:102E300008B1FDF7AAFC00BF0B48E066846200BF42
:102E4000002211462620FEF75FFA2620FEF748FAF8
:102E500006B010BD0038014000100240580002408A
:102E60003C02002000440040840200202DE9F84F7D
:102E700004460E4617469946606F20285DD106B17C
:102E800017B9012000F05BB800BF94F8700001286A
:102E900001D10220F6E7012084F8700000BF002075
:102EA000E06721206067FDF71DFF8246A4F850709F
:102EB000A4F85270A068B0F5805F04D1206910B901
:102EC0000025B04602E035464FF0000800BF002064
:102ED00084F8700000BF1DE0534600228021204688
:102EE000CDF8009001F0C3F808B10320CAE745B956
:102EF000B8F80000C0F308002168088508F102084E
:102F000003E02878216808856D1CB4F85200401E43
:102F1000A4F85200B4F852000028DDD15346002234
:102F200040212046CDF8009001F0A1F808B103201F
:102F3000A8E7202060670020A4E70220A2E718BCD1
:102F4000BDE8E08F704700BFFEE701688969C1F303
:102F5000400111B10021026891620168896901F0A4
:102F6000010129B90168896941F001010268916193
:102F70007047000070B504460D461646206880690B
:102F8000C0F3001000283DD017E0681CA8B1FDF781
:102F9000A9FE801BA84200D87DB9606C40F02000DB
:102FA0006064202084F84100002084F8420000BFC3
:102FB00084F8400000BF012070BD20688069C0F324
:102FC00040100028E1D010202168C861202021682D
:102FD000C8612046FFF7B9FF206840680A490840E9
:102FE00021684860606C40F004006064202084F830
:102FF0004100002084F8420000BF84F8400000BF78
:103000000120D9E70020D7E700E800FE2DE9F843CA
:103010000446894615461E46DDE908781948F2B28D
:10302000002349460090204600F06CF8424639469D
:10303000204600F0DBF810B10120BDE8F883012E36
:1030400003D1E8B2216888620EE0C5F30720216849
:10305000886242463946204600F0C8F808B101208F
:10306000EBE7E8B2216888623B4600224021204617
:10307000CDF8008000F060F808B10120DDE7002005
:10308000DBE70000002000802DE9F8430446894674
:1030900015461E46DDE908781948F2B2C3024946D2
:1030A0000090204600F02EF842463946204600F0B7
:1030B0009DF810B10120BDE8F883012E03D1E8B2DC
:1030C000216888620EE0C5F30720216888624246C5
:1030D0003946204600F08AF808B10120EBE7E8B253
:1030E000216888623B46002280212046CDF800807E
:1030F00000F022F808B10120DDE70020DBE7000046
:1031000000200080F0B5059C05686D684FF480666E
:1031100006EA545666F0FC2646F4C046B543C1F3B1
:1031200009064FF47F0707EA02473E431E43264342
:10313000354306687560F0BD2DE9F04104460E4642
:1031400017461D46DDF8188019E0681CB8B1FDF778
:10315000C9FDA0EB0800A84200D885B9606C40F01A
:1031600020006064202084F84100002084F84200A0
:1031700000BF84F8400000BF0120BDE8F081206856
:1031800080693040B04201D1012000E00020B84207
:10319000DBD00020F1E770B504460D4616461DE071
:1031A000324629462046FFF7E5FE08B1012070BDF2
:1031B000FDF798FD801BA84200D87DB9606C40F0F7
:1031C00020006064202084F84100002084F8420040
:1031D00000BF84F8400000BF0120E8E72068806954
:1031E000C0F340100028DBD00020E0E770B50446B3
:1031F0000D4616461FE0324629462046FFF7BAFE26
:1032000008B1012070BD681CA8B1FDF76BFD801BE3
:10321000A84200D87DB9606C40F020006064202096
:1032200084F84100002084F8420000BF84F8400088
:1032300000BF0120E6E720688069C0F34000002855
:10324000D9D00020DEE7000008B500BF0E48806C32
:1032500040F001000C4988640846806C00F00100D1
:10326000009000BF00BF002211460F20FEF74CF86F
:103270000F20FEF735F8002211461020FEF744F823
:103280001020FEF72DF808BD0010024000B587B0F1
:10329000142102A8FCF7D3FF00BF5048C06C40F0D7
:1032A00001004E49C8640846C06C00F0010001905E
:1032B00000BF00BF00BF0846C06C40F00200C864F9
:1032C0000846C06C00F00200019000BF00BF00BFC4
:1032D0000846C06C40F00400C8640846C06C00F0AA
:1032E0000400019000BF00BF022002900020039064
:1032F000049002A93A48FDF707FC4FF48040029081
:1033000000200390049002A93648FDF7FDFB4FF41E
:1033100000400290344803900020049002A93148F4
:10332000FDF7F2FB7320029001200390002004902F
:10333000059002A94FF09040FDF7E6FB4FF48D5049
:1033400002900120039000200490059002A94FF004
:103350009040FDF7D9FB4FF400400290012003900C
:1033600004900020059002A94FF09040FDF7CCFB9F
:10337000012002901C4803900120049002A91848E3
:10338000FDF7C2FB002211460620FDF7BDFF062017
:10339000FDF7A6FF002211462820FDF7B5FF2820E3
:1033A000FDF79EFF002241F2B3014FF09040FDF780
:1033B00093FC01224FF4A0714FF09040FDF78CFC7C
:1033C0000122D1034FF09040FDF786FC012220211D
:1033D0004FF09040FDF780FC07B000BD00100240A8
:1033E00000040048000800480000211010B50B48F8
:1033F0000B4908600B4848600021094881600121A1
:10340000C1600021016141618161C1610162FDF71B
:103410006FFC08B1FDF7B9F910BD00000054004081
:103420007C000020825ED01010B51248124908605E
:103430004FF48270486000210F4881604FF4E061D2
:10344000C1600021016141614FF400718161382147
:10345000C16100210162416281620721C1620021D4
:10346000016308214163FEF7D5FE08B1FDF78DF930
:1034700010BD0000003C0040C800002010B50D4801
:103480000D4908604FF4E130486000210A4881602E
:10349000C16001610C21416100218161C161016252
:1034A0000020054948620846FFF7B8FB08B1FDF760
:1034B0006CF910BD003801403C01002000BFFEE760
:1034C00000BFFEE7704700002DE9F04104460F46BB
:1034D00000255B48C06800F0030090B15848C06800
:1034E00000F003002168884209D1206838B15448AF
:1034F000C068C0F30210401C6168884233D00125C7
:1035000031E02068012804D0022809D003281AD10C
:103510000DE04B48006800F0020000B9012514E0FE
:103520004748006800F4806000B901250DE0444878
:10353000006800F4003028B94148006800F4802099
:1035400000B9012501E0012500BF00BF5DB9D4E944
:103550000010401E41EA00103949C96821F073018A
:1035600008433749C860002D67D13548006820F00E
:10357000806033490860FDF7B5FB064606E0FDF7BD
:10358000B1FB801B022801D9032505E02C48006807
:1035900000F000600028F2D100BFC5BB67B9A06889
:1035A0000002217B40EAC16025490969254A114092
:1035B00008432349086120E0012F0FD1A0680002D1
:1035C000218A0122C2EB510140EA41501C4909699C
:1035D0001D4A114008431A4908610EE0A068000224
:1035E000217D0122C2EB510140EA41601449096981
:1035F000164A11400843124908611148006840F01A
:1036000080600F490860FDF76DFB064607E014E097
:10361000FDF768FB801B022801D9032505E0084857
:10362000006800F000600028F2D000BF2DB9044807
:103630000069A1690843024908612846BDE8F08194
:1036400000100240FF80FF07FF809FFFFF80FFF90F
:10365000F8B5044600262348806D00F0805018B16C
:10366000FDF70EFF054616E000BF1E48806D40F0D6
:1036700080501C4988650846806D00F0805000909D
:1036800000BF00BFFDF7FCFE05461648806D20F028
:10369000805014498865B5F5007F07D1802C10D97A
:1036A000A02C01D902260CE001260AE0802C01D9C9
:1036B000032606E0802C01D1022602E0702C00D106
:1036C00001260948006820F00700304306490860D9
:1036D0000846006800F00700B04201D00120F8BDA4
:1036E0000020FCE70010024000200240F8B504462C
:1036F0000E4615466068B0F5827F0DD1A068B0F522
:10370000004F03D0A068B0F5806F05D12068006835
:1037100020F04000216808603346002280212046C6
:10372000009500F0E5F828B1206E40F020002066FA
:103730000320F8BD6068B0F5827F16D1A068B0F5AF
:10374000004F03D0A068B0F5806F0ED13346002241
:103750004FF4C0612046009500F054F828B1206E67
:1037600040F0200020660320E3E70020E1E7F8B501
:1037700004460E461546334600224FF4C0512046FB
:10378000009500F03FF828B1206E40F02000206640
:103790000320F8BD3346002280212046009500F02A
:1037A000A7F828B1206E40F0200020660320F0E743
:1037B000334600224FF4C0612046009500F022F805
:1037C00028B1206E40F0200020660320E1E70020B1
:1037D000DFE70000F8B506460D46144601200090CC
:1037E0004FF47A73012269460548FEF7B2FE4FF4A2
:1037F0007A73224629460248FEF7D8FD2046F8BDD6
:10380000C80000202DE9F84F04460D46164698469C
:10381000DDF82890FDF766FAA0EB0900A8EB000799
:10382000FDF760FA82462F480068C0EBC00000EB4D
:103830008000000D784300904CE0B5F5C06F02D1D8
:103840000EB92068007B08F10100002842D0FDF786
:1038500049FAA0EB0A00B84200D2A7BB2068406832
:1038600020F0E000216848606068B0F5827F0DD1EB
:10387000A068B0F5004F03D0A068B0F5806F05D107
:103880002068006820F0400021680860A06AB0F558
:10389000005F0DD100BF2068006820F4005021684F
:1038A00008602068006840F400502168086000BF8C
:1038B000012084F85D0000BF002084F85C0000BF98
:1038C000032000F011B8FFE7009800B90027009826
:1038D000401E0090206880682840B042ADD1002092
:1038E000EFE700004000002018BCBDE8E08F0000BA
:1038F0002DE9F84F04460D4690461E46DDF8289007
:10390000FDF7F0F9A0EB0900371AFDF7EBF9824655
:103910002C480068C0F3CB307843009045E0701C21
:10392000002842D0FDF7DEF9A0EB0A00B84200D231
:10393000A7BB2068406820F0E0002168486060680C
:10394000B0F5827F0DD1A068B0F5004F03D0A0681C
:10395000B0F5806F05D12068006820F04000216834
:103960000860A06AB0F5005F0DD100BF2068006854
:1039700020F40050216808602068006840F400507E
:103980002168086000BF012084F85D0000BF0020AE
:1039900084F85C0000BF032000F016B8FFE7009831
:1039A00000B900270098401E0090206880682840D9
:1039B000A84201D1012000E000204045AFD1002005
:1039C000EAE700004000002018BCBDE8E08F0000DE
:1039D000F8B506460D461446012000904FF47A7360
:1039E000012269460548FEF7B4FD4FF47A7322467A
:1039F00029460248FEF7ADFD2046F8BDC80000206C
:103A0000704710B5FDF7E0FB10BD10B5ACB0442118
:103A10001BA8FCF714FC142116A8FCF710FC542179
:103A200001A8FCF70CFC18201B900120209021908D
:103A300000202290B0202390002025901BA8FEF7A4
:103A400035F808B1FCF7A1FE0F2016900020179062
:103A5000189019901A90012116A8FDF7C9FE08B117
:103A6000FCF793FE43200190002009900A900C90EF
:103A700001A8FDF717FD08B1FCF787FE4FF40070B1
:103A8000FDF798FC08B1FCF780FEFDF76FFF4FF4DF
:103A90007A71B0FBF1F42046FEF7C8FF0420FEF770
:103AA000B1FF00221146501EFDF72EFC2CB010BDB8
:103AB0001048006840F470000E4908600E48006825
:103AC00040F001000C49086000208860084600684A
:103AD0000A490840084908608814C8600846006818
:103AE00020F48020086000208861C80301498039E3
:103AF0000860704788ED00E000100240FFFFF6EA22
:103B000000B587B03048FEF7FDFB3048FDF7F6FA08
:103B10002F48FFF7BDF82F48FFF7BAF800BF2E482F
:103B2000006E40F480402C4908660846006E00F4A0
:103B30008040019000BF00BF00BF0846806D40F488
:103B4000003088650846806D00F40030019000BFA9
:103B500000BF41F2F3100290032003900020049074
:103B600002A94FF09040FCF7CFFF3A2002900320CB
:103B700003900020049002A91848FCF7C5FF4FF4F9
:103B800080400290032003900020049002A9144872
:103B9000FCF7BAFF1048C06C20F001000E49C86461
:103BA00000BF0846806D40F0805088650846806DF3
:103BB00000F08050019000BF00BFFDF769FC0120BC
:103BC000FDF73EFC07B000BDC80000207C000020CF
:103BD0003C010020BC01002000100240000400480D
:103BE0000008004890F8241001F0010139B1016883
:103BF000496821F40031826A11430268516090F8EB
:103C0000241001F00201022907D10168496821F45A
:103C10008031C26A11430268516090F8241001F0AB
:103C20000401042907D10168496821F48021026B4D
:103C300011430268516090F8241001F0080108292E
:103C400007D10168496821F40041426B11430268C1
:103C5000516090F8241001F01001102907D101687B
:103C6000896821F48051826B11430268916090F859
:103C7000241001F02001202907D10168896821F46E
:103C80000051C26B11430268916090F8241001F05A
:103C90004001402913D10168496821F48011026C68
:103CA000114302685160016CB1F5801F07D10168B2
:103CB000496821F4C001426C11430268516090F8D8
:103CC000241001F08001802907D10168496821F49E
:103CD0000021826C114302685160704738B5044678
:103CE0000020E067FCF7FEFF05462068006800F052
:103CF000080008280CD16FF07E402B4600224FF4BC
:103D000000110090204600F0B2F908B1032038BD40
:103D10002068006800F0040004280CD16FF07E4099
:103D20002B4600224FF480010090204600F09FF9BE
:103D300008B10320EBE720206067A06700BF0020E8
:103D400084F8700000BF00BFE1E770B50546AC6ABB
:103D50000020A4F85A00A4F852002046FEF781FE85
:103D600070BD0168096821F49071026811600168F2
:103D7000896821F00101026891602021816700219A
:103D80000166704710B504462068006820F04000C6
:103D90002168086020206067002060662046FFF7E9
:103DA000D1F810BD2DE9F84F044600200090A84935
:103DB0002068884200D100E000BF2169A068084364
:103DC00061690843E16940EA010A20680068A14985
:103DD000084040EA0A00216808602068406820F432
:103DE0004050E168084321684860D4F818A0984919
:103DF0002068884202D0206A40EA0A0A2068806867
:103E000020F4306040EA0A002168886000BF9249CF
:103E10002068884216D19148006800F0030030B154
:103E2000012808D0022804D0032808D105E0012683
:103E300007E0022605E0042603E0082601E010263C
:103E400000BF39E086492068884216D1834800685F
:103E500000F00C0030B1042808D0082804D00C2849
:103E600008D105E0002607E0022605E0042603E06D
:103E7000082601E0102600BF1EE075492068884230
:103E800019D17648006800F4406048B1B0F5806F01
:103E90000AD0B0F5006F05D0B0F5406F08D105E04D
:103EA000002607E0022605E0042603E0082601E0DC
:103EB000102600BF00E0102600BF65492068884238
:103EC0004AD136B1022E08D0042E08D0082E0DD1CA
:103ED00009E0FDF751FD05460CE0624D0AE0FDF7F3
:103EE0006FFD054606E04FF4004503E00025012084
:103EF000009000BF00BF002D0AD0606800EB4000BA
:103F0000A84203D860680003A84202D201200090B2
:103F100098E002220023D4F804C060461946FCF75A
:103F200053F94FF48072A5FB022387185941D4F846
:103F300004C0624600233846FCF746F98146B9F5CD
:103F4000407F06D3B9F5801F03D22068C0F80C90DB
:103F500078E00120009075E0E069B0F5004F3CD1B9
:103F6000092E17D2DFE806F005090D160F161616F2
:103F70001300FDF701FD054610E0FDF70FFD0546B6
:103F80000CE0384D0AE0FDF71BFD054606E04FF456
:103F9000004503E000250120009000BF00BF7DB375
:103FA0006800616800EB5100B0FBF1F01FFA80F986
:103FB000B9F1100F0ED3B9F5803F0BD24FF6F07068
:103FC00009EA000BC9F342004BEA000B2068C0F875
:103FD0000CB037E00120009034E0092E18D2DFE861
:103FE00006F005090D17101717171400FDF7C4FC8C
:103FF000054611E0FDF7D2FC05460DE0194D0BE03A
:1040000020E0FDF7DDFC054606E04FF4004503E047
:1040100000250120009000BF00BF9DB1606805EB46
:1040200050006168B0FBF1F01FFA80F9B9F1100F90
:1040300006D3B9F5803F03D22068C0F80C9001E0A8
:1040400001200090002020666066009800F00CB807
:1040500000800040F369FFEF003801408810024003
:10406000004400400024F40018BCBDE8E08F2DE9B6
:10407000F04104460D4617469846069E45E0701CE2
:10408000002842D0FCF72EFEA0EB0800B04200D87A
:10409000B6B92068006820F4D070216808602068F4
:1040A000806820F001002168886020206067A06798
:1040B00000BF002084F8700000BF0320BDE8F0813D
:1040C0002068006800F00400F8B12068C069C0F3FF
:1040D000C020D0B14FF400602168086220680068F9
:1040E00020F4D070216808602068806820F001000A
:1040F0002168886020206067A067E06700BF00201B
:1041000084F8700000BF0320D8E72068C069284009
:10411000A84201D1012000E00020B842AFD0002029
:10412000CCE7000010B50248FEF79CFC10BD000073
:104130003C01002010B50248FEF794FC10BD0000C1
:10414000BC01002000BFFEE70FB4054B10B503A96A
:10415000044A029800F0FAF810BC5DF814FB000065
:104160005D5600084400002002480068C0F30220A9
:10417000704700000CED00E010B5002804DB0A07D2
:10418000130E054A135406E00A07140E034A00F002
:104190000F031B1FD45410BD00E400E018ED00E035
:1041A00002E008C8121F08C1002AFAD17047704700
:1041B000002001E001C1121F002AFBD1704700005E
:1041C0002DE9FF5F82B00021DDE90430020DDDF84A
:1041D00040B0034318D044F61050A2F2FF324243DD
:1041E0001514119801281FD0A5EB0B00401C5FEAA5
:1041F000000A4FF000064E4FDFF83891B0465046A7
:1042000015D5CAF1000413E0119801244AA301282E
:1042100001D16FEA0B010298119AC0E90031C0E99F
:10422000024206B000F08EB8CBF10000DFE7044692
:104230000021404A491842EB0450CDE9001012E039
:10424000E00707D032463B4640464946FCF7F9F8BE
:104250008046894632463B4610461946FCF7F1F83F
:1042600006460F466410002CEAD1DDE90401DDE9C1
:104270000023BAF1000F06DAFCF7E3F842464B469A
:10428000FCF7DFF805E0FCF751F942464B46FCF736
:104290004DF904460E460022284BFCF7CFF903D80F
:1042A0004FF0FF30014607E00022254B2046314603
:1042B000FCF718F8FCF7A9F9102409E0002C0ADB38
:1042C0000A220023FBF780FF039B30321A55641E3D
:1042D00050EA0102F2D1641C039AC4F111031444A0
:1042E000119A012A03D0012208430DD10AE00843A4
:1042F00004D000204FF0110B119072E7A3EB0B05D7
:104300006D1E0DE05B4504DD4FF0000205F1010577
:1043100004E003DA4FF00002A5F10105002AECD019
:1043200002981199C0E90231C0E9004579E700001F
:10433000000014400000F03F300000000000F04397
:104340000000E03F30BCBDE8C09F00002DE9FF4FFA
:1043500095B09A46884606460025EEE1252877D195
:1043600000242746F94A0121039400E0044316F88B
:10437000013F203B01FA03F01042F7D130782A28A0
:1043800011D06FF02F033078A0F13002092A16D82F
:10439000039A44F0020402EB820203EB420210444F
:1043A000761C0390EFE758F8042B0392002A03DAF7
:1043B000504244F40054039044F00204761C3078D8
:1043C0002E2816D116F8010F44F004042A280DD027
:1043D0006FF02F023078A0F13003092B09D807EBDA
:1043E000870302EB4303C718761CF3E758F8047BF6
:1043F000761C30786C280FD006DC4C2817D0682843
:104400000DD06A2814D104E0742810D07A280FD176
:104410000DE044F400140AE044F4801401E044F494
:1044200040147278824202D104F58014761C761C06
:10443000307866280BD013DC582877D009DC0028A8
:1044400075D04528F6D04628F4D047281AD193E1F4
:1044500018E0632835D0642879D0652812D18BE123
:10446000702873D008DC6728F1D069286FD06E28D7
:104470000DD06F2806D1ACE073282CD0752874D0ED
:10448000782853D05246179990476D1C54E1C4F3D5
:104490000250022809D003280DD0D8F800100428B3
:1044A0000DD00D6008F1040846E1D8F80010EA17B5
:1044B000C1E90052F6E7D8F800100D80F2E70D7060
:1044C000F0E718F8041B8DF8001000208DF80100AB
:1044D000EB46012003E058F804BB4FF0FF306107C2
:1044E0004FF0000102D40DE009F101018946B94203
:1044F0000FDA8145F8DB1BF809100029F4D108E038
:1045000009F1010189468142FADB1BF809100029F3
:10451000F6D103985346A0EB090721463846179A6F
:1045200000F083FA284400EB090507E044E008E1C5
:104530000DE01BF8010B524617999047B9F101099C
:10454000F7D2534621463846179AF2E039E00A215D
:10455000C4F302524FF0000B0091022A06D058F823
:10456000040BC117032A09D00AE023E008F1070071
:1045700020F00702F2E80201904605E000B2C11700
:10458000042A01D140B2C117002906DA0A460021E7
:10459000404261EB02012D2202E0220504D52B22CC
:1045A0008DF80420012203E0E20701D02022F7E782
:1045B000914657E00A2100E010214FF0000B0091D6
:1045C0000BE010214FF0000B44F004040827009189
:1045D00003E008204FF0000B0090C4F30252022ABF
:1045E00005D058F8040B0021032A08D008E008F190
:1045F000070020F00702F2E80201904603E080B2D3
:10460000042A00D1C0B24FF0000922072AD532781F
:10461000702A07D0DDF800C08CF0100C5CEA0B0C9F
:1046200005D00EE040228DF80420012208E050EA77
:10463000010306D030238DF804308DF805200222C6
:104640009146009B83F0080353EA0B030AD150EA1A
:10465000010201D1620705D530228DF804204FF008
:1046600001097F1E3278582A04D039A20C920CAA74
:1046700002920BE03BA2F9E75B46009AFBF7A4FD30
:104680000C9B9B5C029A521E0292137050EA01022C
:10469000F2D1029804A9081A00F1200B600702D594
:1046A00024F4803400E001275F4502DDA7EB0B0016
:1046B00000E0002000EB0B01009003984944401AF1
:1046C0000390E00306D453462146179A039800F05E
:1046D000ACF90544002706E001A85246C05D1799D1
:1046E00090476D1C7F1C4F45F6DBE0030CD553460D
:1046F0002146179A039800F098F9054404E0302009
:104700005246179990476D1C0099481E0090002949
:10471000F5DC08E00298029952460078491C0291A3
:10472000179990476D1CBBF10001ABF1010BF1DC57
:104730005BE100F068F90544761C307800287FF4CE
:104740000DAE19B0284600F05BB900000928010041
:1047500030313233343536373839616263646566F7
:1047600000000000303132333435363738394142B9
:104770004344454600000000600700D4062708F1C6
:10478000070020F00700F0E80223804603F0004C09
:104790005FEA0C0001D097A009E0200501D596A0A2
:1047A00005E0E00701D095A001E0AFF24C001390C6
:1047B000307823F0004365280CD006DC452809D06A
:1047C00046281DD047287FD13BE0662818D06728AF
:1047D0007AD136E00021112F01DB112000E0781C96
:1047E000CDE9000104A90CA8FFF7EAFCDDE90D0101
:1047F0000C9A4FF0000B07F10109109200914EE066
:104800004FF000400097CDE9011004A90CA8FFF774
:10481000D7FCDDE90D020C9B0F994FF0000B914680
:104820001093009211B9791C00EB0109B7EB090054
:1048300003D4C0F1FF3B07F10109A9EB0700019088
:1048400042E0012F00DA01270021112F01DD1120A4
:1048500000E03846CDE9000104A90CA8FFF7B0FC40
:10486000DDE90D010C9A00914FF0000BB946109252
:1048700021070FD4009A4A4503DA914601E0A9F1D5
:104880000109B9F1010F05DD109AA9F10101515C8F
:104890003029F4D0B84202DA10F1040F03DA012112
:1048A000CDE9011010E0002803DC8344A9EB0001EE
:1048B00002E0411C494500DD8946A0EB0B00401C8D
:1048C00001904FF000400290200705D40198484520
:1048D00002DB4FF0FF30019000208DF84B00029872
:1048E0000DF14B07B0F1004F25D002200C902B208A
:1048F0000D90029800280CDA404202902D200D9075
:1049000007E00A210298FBF7B8FC3031029007F863
:10491000011D0C99481E0C900029F2DC0298002819
:10492000EFD1791E0D980870307800F0200040F02B
:10493000450007F8020D11A8C01BC01D0290139876
:10494000007800B1012000EB0901019801EBE07152
:10495000029801440398401A401E0390E00306D4D5
:1049600053462146179A039800F05FF805441398C0
:10497000007818B15246179990476D1CE00323D573
:1049800053462146179A039800F04FF805441BE060
:10499000BBF1000F07DB0098584504DD109817990C
:1049A00010F80B0001E0179930205246904701980B
:1049B0000BF1010B401E05F10105019004D12E20E1
:1049C0005246179990476D1CB9F10001A9F10109F0
:1049D000DEDC05E017F8010B5246179990476D1C75
:1049E0000299481E02900029F4DC53462146179A8A
:1049F00003989EE62D0000002B0000002000000020
:104A000030BCBDE8C08F2DE9F041044600251E46AC
:104A10001746880404D405E039462020B0476D1CB1
:104A2000641EF9D52846BDE8F0812DE9F041044621
:104A300000251E469046C80301D5302700E02027F8
:104A4000880404D505E041463846B0476D1C641E15
:104A5000F9D52846BDE8F08110B500221146104670
:104A600000F018F900221146012000F013F900228D
:104A70001146022000F00EF900221146032000F03A
:104A800009F900221146082000F004F9012203214F
:104A9000104600F0B1F810490860084601680FA000
:104AA000FFF752FB01221146002000F0A5F80A4949
:104AB00008600846016810A0FFF746FB01220321A9
:104AC000022000F099F8044908600846016811A026
:104AD000FFF73AFB10BD0000040000204D6F646535
:104AE0005F52656756616C75652069732025235890
:104AF0002E2E2E0D0A0000005374617475735F52E0
:104B0000656756616C7565206973202523582E2EC4
:104B10002E0D0A00436F6E6669675F5265675661C6
:104B20006C7565206973202523582E2E2E0D0A00E2
:104B300070B504460025002600224FF400414FF0D6
:104B40009040FCF7C9F800BF07E0002203210846A7
:104B500000F052F80544701CC6B2A642F5DB0122F3
:104B6000D1034FF09040FCF7B7F8B5FBF4F52846B9
:104B700070BD0000F0EE400A9FED1A1AB0EE410A37
:104B800019490978C1B901EE100AB8EE411A9FED32
:104B9000172AC1EE021AB7EE001A31EEC11A61EE01
:104BA000201A1349097801EE101AB8EE411A81EE65
:104BB000812AB0EE420A13E001EE100AB8EE411A63
:104BC00021EE201A9FED0B2AC1EE021A084909783E
:104BD00001EE101AB8EE411A81EE812AB0EE420AB7
:104BE0007047000000000000000000200000004BA3
:104BF000010000200000804B2DE9FC4107460D46D6
:104C000014460020009001908046002607F007001F
:104C1000402141EAC0008DF800002CB10022490279
:104C20004FF09040FCF758F8691CCAB2E0B26946F0
:104C3000FEF7D0FD2CB10122D1034FF09040FCF7DC
:104C40004BF8012605E01DF8060000EB0828701C53
:104C5000C6B2681C8642F6DB4046BDE8FC81000017
:104C600070B50025002400F055F80120FBF7A6FEE2
:104C7000012211460420FFF7BFFFC4B204480460BC
:104C800004F00F00022800D00125284670BD000066
:104C9000040000202DE9F04107460C461546002689
:104CA000B04600224FF400414FF09040FCF714F85A
:104CB000002203210220FFF79FFF064612480660EC
:104CC00026F00F0646EAC40005F00701084301215B
:104CD000B940C1F3090140EA0128002303224146FB
:104CE000022000F03BF80848C0F800800122D10300
:104CF0004FF09040FBF7F0FF044804700120A840FB
:104D000003490870BDE8F081040000200000002085
:104D1000010000201CB5002000900190FF208DF8BC
:104D200000008DF801008DF802008DF803008DF869
:104D300004008DF8050000224FF400414FF0904030
:104D4000FBF7CAFF062269460120FEF741FE012259
:104D5000D1034FF09040FBF7BFFF1CBD2DE9FF4191
:104D600082B0074615461C460020009001900DF1C8
:104D70000C082E4607F00700002141EAC0008DF81C
:104D8000000007E098F800000DF8060008F101089F
:104D9000701EC6B2002EF5DC34B100224FF4004183
:104DA0004FF09040FBF798FF691CCAB2E0B2694629
:104DB000FEF70EFE2CB10122D1034FF09040FBF71D
:104DC0008BFF06B0BDE8F081DFED0B0AB0EE600AA4
:104DD000A0F5000000EE900AF8EE600A9FED071AB9
:104DE000C0EE811AB0EE610ADFED050A70EE600ACE
:104DF000B0EE600A704700000000000000F02F4590
:104E00000080884370B50446D02060700020A070F8
:104E10000648E06106482062064860620025204698
:104E200000F0BBF80546E8B270BD00001550000860
:104E300011520008BD09000870B5044600250C2178
:104E400061710321A1710221E171112020710D21F5
:104E500061730021A1730221E173152020732046A4
:104E600000F093F90546E8B270BD000010B50248A5
:104E7000FFF7E2FF10BD0000500000202DE9FC5FAD
:104E80000746894615461C464FF0000B94F82A0049
:104E9000284480B2009000980190019800F006FF2D
:104EA000804600260CB1E06910B94FF0FF3B1FE0CF
:104EB00015B96FF00B0B1BE0A078012801D147F06A
:104EC00080076078D4F81CC042463946009BE04712
:104ED0008346BBF1000F09D105E018F8060009F878
:104EE0000600701C86B2AE42F7DB01E06FF0010BEA
:104EF000DA46404600F0C0FB504600F000B83CBC2B
:104F0000BDE8C09F2DE9F05F80460D4614461E4661
:104F10004FF00009CB4608F007074FEA970A07F061
:104F20000307BAF1000F01D04FF0030B6EB3012F4E
:104F300004D0022F0DD0032F23D115E015B94FF067
:104F4000FF3905E032462946584600F0BDFB814650
:104F50001AE014B94FF0FF3905E0324621465846B1
:104F600000F0DAFC81460FE004B115B94FF0FF39CB
:104F700006E0334622462946584600F019FC814691
:104F800002E06FF0040900BF01E04FF0FF3948462E
:104F900000F000B830BCBDE8C09FF8B50446032659
:104FA000204600F0B9FE0546A078012802D184F819
:104FB0002A0002E0002084F82A004DB9A0780128D8
:104FC00006D12346012269467F20FFF757FF054699
:104FD000F5B90020207006E023460122214600207A
:104FE000FFF74CFF0546301EA6F10101CEB202D0FC
:104FF0002078D128F0D14DB92078D12806D1FF20D2
:10500000E070204600F0DFF8054601E06FF0020591
:105010002846F8BDFEB506460F4614461D4604B1A7
:1050200015B94FF0FF30FEBD4FF47A7001233A46B8
:105030003146CDE9004502900448FBF7BBFE08B9B4
:105040000020F0E74FF0FF30EDE700007C0000208B
:1050500030B587B004460025234601AA04A90720DD
:10506000FFF750FFBDF91430BDF91220BDF9101043
:1050700006A0FFF769F8BDF90830BDF90620BDF9B3
:1050800004100BA0FFF760F807B030BD4163636503
:105090006C206461746120697320783D25642C79EB
:1050A0003D25642C7A3D25642E2E2E0D0A0000002D
:1050B0004779726F206461746120697320783D259F
:1050C000642C793D25642C7A3D25642E2E2E0D0A04
:1050D0000000000070B5044600250CB1606A10B9EC
:1050E0004FF0FF3508E0204600F00CFF05461DB9E3
:1050F000204600F053FF0546284670BD2DE9F047D5
:1051000005460F4616461C464FF00009C8460CB12E
:10511000206A10B94FF0FF3934E016B96FF00B096F
:1051200030E0A078012801D105F07F05207A112810
:1051300002D0207C15280BD1607833463A462946A8
:10514000D4F820C0E04781460120616A884714E016
:1051500011E007EB0802607801232946D4F820C04B
:10516000E0478146681CC5B20120616A884708F1A2
:10517000010000F0FF08B045EBDBB9F1000F01D0F2
:105180006FF001094846BDE8F08770B50546002478
:105190000DB1686A10B94FF0FF3412E0284600F0F4
:1051A0008EFE04466CB9284600F0D5FE044644B98C
:1051B0002846FFF78FFF04461CB9284600F07CF80C
:1051C0000446204670BD38B50446B62000900CB1A8
:1051D000606A10B94FF0FF3518E023460122694696
:1051E0007E20FFF78BFF05460120616A88474DB995
:1051F000A078012806D12346012269467F20FFF7C7
:105200003DFE054615B9204600F086F8284638BD13
:10521000FEB504460D4616461F464FF47A7001232C
:105220002A462146CDE9006702900448FBF796FE26
:1052300008B90020FEBD4FF0FF30FBE77C000020E6
:1052400070B505460E463346022229464020FFF738
:1052500015FE044684B93146284600F083FD044615
:1052600054B93146284600F064FD044624B931465D
:10527000681C00F08FFD0446204670BD70B50546E1
:105280000E463346022229464220FFF7F7FD044628
:1052900084B93146284600F0AAFD044654B9314687
:1052A000284600F08FFD044624B93146681C00F002
:1052B000B6FD0446204670BD38B504460020009077
:1052C0002346012269460220FFF7D8FD05469DF8D6
:1052D0000000401000909DF8000000F00F000090CA
:1052E0009DF80000012801D1C51F13E09DF80000C2
:1052F000022802D16FF006050CE09DF8000003289B
:1053000002D16FF0070505E09DF80000072801D1E4
:105310006FF00805284638BD0222C271082242718A
:1053200010210171032282710222C273082242738A
:10533000142101730022827341688160C168016198
:105340007047000010B52DED028B012211460020A0
:10535000FFF752FC5C4908700846007800F00F0027
:10536000087008460078092859D2DFE800F00516D1
:10537000273858585858490054A0FEF7E5FE0A202F
:10538000FFF7D6FB54490860B1EE040A0868FFF73E
:10539000F1FB524880ED000A47E051A0FEF7D4FE31
:1053A0000A20FFF7C5FB4C494860B1EE040A486883
:1053B000FFF7E0FB494880ED010A36E04BA0FEF71D
:1053C000C3FE0A20FFF7B4FB43498860B1EE040A2C
:1053D0008868FFF7CFFB414880ED020A25E046A030
:1053E000FEF7B2FE0A20FFF7A3FB3B49C860B1EE0F
:1053F000040AC868FFF7BEFB384880ED030A14E0D2
:1054000040A0FEF7A1FE0A20FFF792FB3249086197
:105410000869FFF7D9FC3E4880ED000A05E02A48FC
:1054200001783CA0FEF790FE00BF00BF00242CE0F6
:105430003C4800EB840090ED000A284800EB840013
:10544000D0ED000AB4EE600AF1EE10FA1BD023484A
:1054500000EB840090ED000A324800EB840080ED00
:10546000000A304800EB840090ED000A10EE101A9C
:105470000846FAF7EFFE41EC180B53EC182B2146C7
:1054800029A0FEF761FE601CC4B2042CD0DB2C48BE
:1054900090ED000A1E48D0ED000AB4EE600AF1EE6D
:1054A00010FA0ED090ED000A254880ED000A006841
:1054B000FAF7D0FE41EC180B53EC182B21A0FEF7A5
:1054C00043FEBDEC028B10BD280000204348302E67
:1054D0002E2E0D0A00000000CC020020E002002069
:1054E0004348312E2E2E0D0A000000004348322E74
:1054F0002E2E0D0A000000004348332E2E2E0D0ADA
:1055000000000000434854454D502E2E2E0D0A0039
:1055100024000020554E4B4F574E2025642E2E2E32
:105520000D0A0000F00200204348256420566F6CED
:105530007473206973202566562E2E2E0D0A0000E6
:105540002C00002043757272656E74204368697088
:105550002074656D70657261747572652069732061
:105560002566432E2E2E0D0A0000000010B50248BD
:10557000FFF76EFD10BD00005000002010B54FF485
:1055800000411848FBF796FB18B90120164908702E
:1055900002E0002014490870144800781249097884
:1055A000884219D010480078B0B111A0FEF7CCFDA8
:1055B00015490978491CC9B2134A1170084601EB14
:1055C000D0714910A0EB410119B900210F4A1170A7
:1055D00002E001210D4A1170034800780349087068
:1055E00010BD0000000800483100002030000020FD
:1055F0003E3E20546865204B657920506573736585
:1056000064202121210D0A00320000202100002009
:1056100010B51148007830B101280BD0022811D004
:10562000032817D115E04FF480714FF09040FBF73D
:1056300049FB0FE000224FF480714FF09040FBF7E0
:105640004BFB07E0012211024FF09040FBF744FBB7
:1056500000E000BF00BF10BD2100002013B50C46C4
:105660004FF6FF73012269460248FDF7FFFB0098E1
:105670001CBD00003C01002010B5002821D0114BBA
:105680000022001F196803E0814203D80A464968D6
:105690000029F9D152B11368841A9C4204D10068E0
:1056A00018441060104602E0506000E0186039B104
:1056B00002680B1A934203D10B681A4402604968CE
:1056C000416010BD480000202DE9F04F87B006462C
:1056D0000D46924600240020049005900690039009
:1056E00002900190B21D534604A91220FFF7C6FB99
:1056F0008346BBF1000F52D12046611CCCB204A9F5
:105700000F5C2046611CCCB204A911F8008047EA66
:1057100008200FFA80F9A5F800902046611CCCB251
:1057200004A90F5C2046611CCCB204A911F80080CA
:1057300047EA08200FFA80F9A5F802902046611C7C
:10574000CCB204A90F5C2046611CCCB204A911F8AC
:10575000008047EA08200FFA80F9A5F80490032E8C
:105760001AD12046611CCCB204A9085C03902046E3
:10577000611CCCB204A9085C000202902046611CA6
:10578000CCB204A9085C00040190DDE901010843E2
:1057900003990843A86004E00020A86001E06FF0CE
:1057A000010B584607B000F000B830BCBDE8C08F10
:1057B0002DE9FF4F87B082460D4616460024002093
:1057C00002900390049005900190834600900AF1A6
:1057D0000C0202A90C200A9BFFF750FB06900698CA
:1057E00000287DD12046611CCCB202A90F5C204666
:1057F000611CCCB202A911F8008047EA08200FFA18
:1058000080F9A6F800902046611CCCB202A90F5C7A
:105810002046611CCCB202A911F8008047EA08209A
:105820000FFA80F9A6F802902046611CCCB202A9BA
:105830000F5C2046611CCCB202A911F8008047EA37
:1058400008200FFA80F9A6F804902046611CCCB21B
:1058500002A90F5C2046611CCCB202A911F800809D
:1058600047EA08200FFA80F9A5F800902046611C4D
:10587000CCB202A90F5C2046611CCCB202A911F87F
:10588000008047EA08200FFA80F9A5F80290204628
:10589000611CCCB202A90F5C2046611CCCB202A9EB
:1058A00011F8008047EA08200FFA80F9A5F8049063
:1058B000BAF1030F22D12046611CCCB202A9085CC8
:1058C00001902046611CCCB202A9085C4FEA002B73
:1058D0002046611CCCB202A9085C0004009000E0E4
:1058E00010E0009840EA0B0001990843A860009876
:1058F00040EA0B0001990843B06006E00020A86070
:10590000B06002E06FF00100069006980BB000F066
:1059100000B830BCBDE8C08F2DE9F04F87B082469B
:105920000D469346002400200390049005900690B5
:10593000029001900090BAF1000F3FD15B46062221
:1059400003A90C20FFF79AFA8146B9F1000F32D172
:105950002046611CCCB203A90E5C2046611CCCB26F
:1059600003A90F5C46EA07200FFA80F8A5F800802B
:105970002046611CCCB203A90E5C2046611CCCB24F
:1059800003A90F5C46EA07200FFA80F8A5F8028009
:105990002046611CCCB203A90E5C2046611CCCB22F
:1059A00003A90F5C46EA07200FFA80F8A5F80480E7
:1059B0000020A8605CE06FF0010959E00AF10C02D8
:1059C0005B4603A90C20FFF759FA8146B9F1000F95
:1059D0004CD12046611CCCB203A90E5C2046611C50
:1059E000CCB203A90F5C46EA07200FFA80F8A5F8AD
:1059F00000802046611CCCB203A90E5C2046611CCD
:105A0000CCB203A90F5C46EA07200FFA80F8A5F88C
:105A100002802046611CCCB203A90E5C2046611CAA
:105A2000CCB203A90F5C46EA07200FFA80F8A5F86C
:105A30000480A01DC4B22046611CCCB203A9085C3E
:105A400002902046611CCCB203A9085C00020190C0
:105A50002046611CCCB203A9085C00040090DDE97B
:105A60000001084302990843A86001E06FF00109B2
:105A7000484607B000F000B830BCBDE8C08F000059
:105A8000FBF7AEFB00BFFDF7C0FFFDF7FFFB40F6E5
:105A9000B830FAF793FFFDF7D7FBFDF7A7FCFDF74A
:105AA000C3FCFDF7EBFC3248FFF7ACF968B131A05D
:105AB000FEF74AFB08E04FF480714FF09040FBF78F
:105AC00001F99620FAF77AFFF5E72948017830A026
:105AD000FEF73AFBFFF7CAF9FFF7C2F868B134A046
